:1000000085C100000C9455240C9480240C94AB24DE
:100010000C94D6240C9401250C942C250C94572573
:100020000C948225A4C10000A2C10000A0C1000060
:100030009EC100009CC100009AC1000098C1000050
:1000400096C1000094C1000092C1000090C1000060
:100050008EC100008CC100008AC100000C94AD2547
:1000600086C100000C94D5280C940B2980C1000097
:100070007EC100007CC100007AC1000078C1000090
:1000800076C1000074C1000072C1000070C10000A0
:100090000C9461290C9497296AC1000068C1000082
:1000A00066C1000064C1000062C1000060C10000C0
:1000B0005EC100005CC100005AC1000058C10000D0
:1000C00056C1000054C100000C947C150C94ED291D
:1000D0000C94232A4CC100000C94792A0C94AF2A6A
:1000E00046C10000001D3A2774694E53E8F5D2CF8F
:1000F0009C81A6BBCDD0F7EAB9A4839E25381F0208
:10010000514C6B76879ABDA0F3EEC9D46F725548F7
:100110001B06213C4A57706D3E230419A2BF9885E7
:10012000D6CBECF1130E2934677A5D40FBE6C1DCD7
:100130008F92B5A8DEC3E4F9AAB7908D362B0C11C7
:10014000425F78659489AEB3E0FDDAC77C61465BB7
:100150000815322F5944637E2D30170AB1AC8B96A7
:10016000C5D8FFE2263B1C01524F6875CED3F4E997
:10017000BAA7809DEBF6D1CC9F82A5B8031E392487
:10018000776A4D50A1BC9B86D5C8EFF24954736E77
:100190003D20071A6C71564B1805223F8499BEA367
:1001A000F0EDCAD735280F12415C7B66DDC0E7FA57
:1001B000A9B4938EF8E5C2DF8C91B6AB100D2A3747
:1001C00064795E43B2AF8895C6DBFCE15A47607D37
:1001D0002E3314097F6245580B16312C978AADB027
:1001E000E3FED9C400000A0B02090C0D0E08070338
:1001F00004010000000000000000000000000000FA
:1002000000000000000000000000000000000000EE
:1002100012111000000000000000000000000000AB
:100220000000000000000000000001021020200873
:100230000810204010204080020102010804020141
:1002400001020408102040808040201008040201B0
:100250008004020180402010080402010804020109
:100260000102040810204080010204081020408090
:1002700005050505070508080808020202020A0A22
:100280000808040404040101010101010101030340
:10029000030303030303040707070C0C0C0C0C0CEB
:1002A0000C0C0202020206060606060606060B0BE8
:1002B0000B0B0B0B0B0B000020002300260029006A
:1002C0002C002F003200000100000301060109018B
:1002D00000002200250028002B002E0031003400F1
:1002E00002010000050108010B01000021002400AB
:1002F00027002A002D003000330001010000040116
:1003000007010A013429C0294C2AD82A11241FBE0A
:10031000CFEFD1E2DEBFCDBF00E00CBF14E0A0E024
:10032000B2E0ECE0FAE500E00BBF02C007900D92EE
:10033000AC32B107D9F727E0ACE2B4E001C01D92BE
:10034000A53FB207E1F711E0C6E8D1E000E006C042
:1003500021970109802FFE010E94772BC238D10717
:1003600080E00807A9F70E94A0210C94042D48CE34
:10037000CF93DF93EC0170E060E06C177D070CF524
:10038000072E000C880B990B0E94C42220E030E05D
:10039000A9010E94292220E030E0A9010E9429221F
:1003A00020E030E040E450E40E94292220E030E0E8
:1003B00040E450E40E9428220E9491226F5F7F4F08
:1003C000DCCFDF91CF910895CF93DF9380913C04F0
:1003D00090913D040E948327EC018091420490910A
:1003E0004304C6DF80913E0490913F040E9483271E
:1003F000019771F48091400490914104219771F428
:1004000001969093410480934004DF91CF91089529
:100410008091400490914104CD2B91F30197F1CF4D
:10042000CF93DF9380913404909135040E94832709
:10043000EC0180913A0490913B049ADF809136045C
:10044000909137040E948327019771F480913804BA
:1004500090913904219771F4019690933904809317
:100460003804DF91CF910895809138049091390438
:10047000CD2B91F30197F1CFCF93DF9380912C0493
:1004800090912D040E948327EC0180913204909179
:1004900033046EDF80912E0490912F040E948327F5
:1004A000019771F48091300490913104219771F497
:1004B00001969093310480933004DF91CF91089599
:1004C0008091300490913104CD2B91F30197F1CFBD
:1004D000CF93DF9380913604909137040E94832755
:1004E000EC0180913A0490913B0442DF8091340406
:1004F000909135040E948327019771F4809138040C
:1005000090913904CD2B71F4019690933904809326
:100510003804DF91CF910895809138049091390487
:10052000219791F30197F1CFCF93DF9380912E0420
:1005300090912F040E948327EC01809132049091C6
:10054000330416DF80912C0490912D040E948327A0
:10055000019771F48091300490913104CD2B71F4A6
:1005600001969093310480933004DF91CF910895E8
:100570008091300490913104219791F30197F1CF4C
:10058000CF93DF9380913E0490913F040E94832794
:10059000EC018091420490914304EADE80913C0496
:1005A00090913D040E948327019771F4809140044B
:1005B00090914104CD2B71F4019690934104809366
:1005C0004004DF91CF9108958091400490914104BF
:1005D000219791F30197F1CF0F931F93CF93DF935F
:1005E0008C01EC0183E0CC0FDD1F8A95E1F7C45D3F
:1005F000DB4F798368835B834A838881998160E0DC
:100600000E941A278A819B8160E00E941A278881B4
:10061000998161E00E9456278A819B8161E00E9456
:10062000562701301105D9F10230110509F466C0D1
:10063000012B09F092C080912C0490912D04029717
:100640008431910530F582539D4FFC018081082E45
:10065000000C990B41E050E064E972E00E94DC2359
:1006600080912E0490912F04029784319105A0F47B
:1006700082539D4FFC018081082E000C990B41E0B4
:1006800050E06CE372E0DF91CF911F910F910C94D9
:10069000DC238FEF9FEFDECF8FEF9FEFF0CF8091C6
:1006A00034049091350402978431910508F5825302
:1006B0009D4FFC018081082E000C990B41E050E019
:1006C00068E672E00E94DC23809136049091370442
:1006D00002978431910578F482539D4FFC0180810B
:1006E000082E000C990B41E050E060E172E0CBCFA6
:1006F0008FEF9FEFE3CF8FEF9FEFF5CF80913C041B
:1007000090913D0402978431910508F582539D4FE5
:10071000FC018081082E000C990B41E050E060EC58
:1007200072E00E94DC2380913E0490913F04029786
:100730008431910578F482539D4FFC018081082E0D
:10074000000C990B41E050E064EE71E09CCF8FEF1C
:100750009FEFE3CF8FEF9FEFF5CFDF91CF911F9109
:100760000F91089523E0880F991F2A95E1F7FC0166
:10077000E45DFB4F8481958108952F923F924F92C3
:100780005F926F927F928F929F92AF92BF92CF9221
:10079000DF92EF92FF920F931F93CF93DF93CDB72A
:1007A000DEB7CB54D1090FB6F894DEBF0FBECDBF74
:1007B00026967FAF6EAF269728965FAF4EAF2897ED
:1007C0003E8B2D8B18012C96FFAEEEAE2C97FB01C5
:1007D000E150F04CEE0FFF1FEE0FFF1FE80FF91F67
:1007E00080809180A280B3808F8A988EA98EBA8EE5
:1007F000B501A401442777FD439555276627772740
:1008000029964FAF2997F901E150F04CEE0FFF1FE9
:10081000EE0FFF1F2896AEACBFAC2897EA0DFB1D6C
:10082000C080D180E280F380CB8EDC8EED8EFE8E98
:10083000B701A601442777FD4395552766277727FB
:100840002A964FAF2A97188B0F87F80130E020E0E7
:100850002C96EEACFFAC2C972E153F050CF43FC048
:1008600022969FAF8EAF22973A8A298A812C912CAB
:10087000540183948F829886A986BA8610E000E09E
:1008800026968EAC9FAC2697081519057CF1299603
:100890009FAC29972A96AFAC2A9741E050E060E0E0
:1008A00070E030E020E09A10F4C1C55BDF4F0FB676
:1008B000F894DEBF0FBECDBFDF91CF911F910F9196
:1008C000FF90EF90DF90CF90BF90AF909F908F9070
:1008D0007F906F905F904F903F902F90089511926E
:1008E0001192119211922F5F3F4FB2CF2296EEAD2F
:1008F000FFAD229781919191A191B1912296FFAF85
:10090000EEAF22978F88988CA98CBA8CB7FE23C043
:100910004F81588569857A8541505109610971096E
:100920005A016B01A81AB90ACA0ADB0AD601C50125
:1009300021E0CF80D884E984FA848C159D05AE052A
:10094000BF0508F020E0822E912CB12CA12C8F82C3
:100950009886A986BA865D01CC24DD24A8A2B9A216
:10096000CAA2DBA29C01AD01442755272CA33DA3BD
:100970004EA35FA32C96EEADFFAD2C97E01BF10BC1
:100980008D889E888E169F060CF4F4012896AEACD6
:10099000BFAC28972496BFAEAEAE2497C988DA883C
:1009A000DC8ACB8A812C912C540183948B869C8683
:1009B000AD86BE86812C912C54011E821D82CD8075
:1009C000DE80CE16DF06FCF0F7FF02C0F0E0E0E0CC
:1009D000E00FF11F2C96EEACFFAC2C97EE15FF0547
:1009E00054F4EE0FFF1FEE0FFF1FE20DF31D808288
:1009F0009182A282B3820F5F1F4FE989FA893496F0
:100A0000FA8BE98B3DCF2496AEADBFAD2497CD9048
:100A1000DD90ED90FD902496BFAFAEAF24972B8D67
:100A20003C8D4D8D5E8D57FF22C08B859C85AD859D
:100A3000BE850197A109B109AC01BD014C195D0941
:100A40006E097F096A017B0181E02B853C854D851C
:100A50005E85C216D306E406F50608F080E0482F4E
:100A600050E070E060E04B875C876D877E87B70160
:100A70008827992768A779A78AA79BA7EE24FF2430
:100A800028A139A14AA15BA1C701B6010E94332B5D
:100A90002B013C012CA13DA14EA15FA168A579A528
:100AA0008AA59BA50E94332B6CA77DA78EA79FA725
:100AB000AB89BC894D915D916D917D91BC8BAB8B68
:100AC000DB01CA01880D991DAA1DBB1D89839A836C
:100AD000AB83BC8391E09F8F29813A814B815C81FC
:100AE000281539054A055B0508F01F8E2CA13DA18C
:100AF0004EA15FA1C701B6010E94332B6B017C019F
:100B000089809A80AB80BC808C0C9D1CAE1CBF1C65
:100B100089829A82AB82BC8252019924882488AA55
:100B200099AAAAAABBAA29813A814B815C81280D86
:100B3000391D4A1D5B1D2CAB3DAB4EAB5FAB8CA48E
:100B40009DA4AEA4BFA454019924882488AE99AE74
:100B5000AAAEBBAE280D391D4A1D5B1D2CAF3DAFA3
:100B60004EAF5FAFAB89BC8914972D933D934D93E6
:100B70005C93139728A139A14AA15BA168A579A527
:100B80008AA59BA50E94332B9F8C690D711D811D29
:100B9000911D230166247724460E571E681E791E78
:100BA0002CA53DA54EA55FA54A01AA24BB24840C13
:100BB000951CA61CB71C81E090E0A0E0B0E0498144
:100BC0005A816B817C814C155D056E057F0518F09F
:100BD00080E090E0DC01880D991DAA1DBB1D41E05D
:100BE00050E060E070E088A899A8AAA8BBA8CCA8AB
:100BF000DDA8EEA8FFA8C814D904EA04FB0418F085
:100C000040E050E0BA01840F951FA61FB71F812C4A
:100C1000912C54018394C8ACD9ACEAACFBAC2CAD9C
:100C20003DAD4EAD5FAD2C153D054E055F0518F091
:100C3000812C912C5401880E991EAA1EBB1E4D8139
:100C40005E814F5F5F4F5E834D83B9CEEF85F8893C
:100C5000C190D190E190F190F88BEF87DB01CA0150
:100C60000197A109B1098C199D09AE09BF093497F3
:100C700080839183A283B383E1E084179507A6075D
:100C8000B70708F0E0E04E2F50E070E060E02F5F23
:100C90003F4F2C968EAC9FAC2C9728153905B4F29B
:100CA00004CE8F929F92AF92BF92CF92DF92EF923B
:100CB000FF920F931F93CF93DF9300D000D01F922A
:100CC0001F92CDB7DEB7C090B202D090B302E090D1
:100CD000B402F090B502A70196016091C907709126
:100CE000CA078091CB079091CC070E948D22882360
:100CF00041F0C092C907D092CA07E092CB07F092A8
:100D0000CC0790E080E02EDD4091B6025091B70212
:100D10006091B8027091B9024D835E836F837887CA
:100D2000092E000CAA0BBB0B89839A83AB83BC836F
:100D300082E0E82EF12C0FEC17E021E030E0AE016C
:100D40004F5F5F4F61E070E0CE01059616DD81E0F8
:100D500090E00E9406154091B2075091B307609150
:100D6000B4077091B50790E080E00E940215809072
:100D7000BE079090BF07A090C007B090C10720E0C9
:100D800030E040E85FEBC501B4010E948D2288236A
:100D900031F1C090B207D090B307E090B407F09063
:100DA000B507A7019601C501B4010E9428224B0195
:100DB0005C0120E030E040E054E3C701B6010E944E
:100DC00078239B01AC01C501B4010E94742318165D
:100DD00034F082EE92E090939D0780939C0780917F
:100DE000C207882331F082EE92E090939D078093B2
:100DF0009C076091B6077091B7078091B8079091F2
:100E0000B9076F5F7F4F8F4F9F4F6093B607709307
:100E1000B7078093B8079093B9070E94C2229B013D
:100E2000AC016091BA077091BB078091BC079091AB
:100E3000BD070E9478236093B2077093B307809335
:100E4000B4079093B50728960FB6F894DEBF0FBE8F
:100E5000CDBFDF91CF911F910F91FF90EF90DF9069
:100E6000CF90BF90AF909F908F900895CF93DF93D6
:100E700084E090E0C4D0ECE9F7E080E090E0A0E806
:100E8000BFEB82A393A3A4A3B5A38AE097EDA3E24B
:100E9000BCE3868F978FA0A3B1A382E996E6A7EB68
:100EA000B7E584839583A683B7838AE79DE0A8E8A6
:100EB000B5EA80879187A287B38781EE9FEBA7E889
:100EC000B4EF84879587A687B7878BE993E7AFE868
:100ED000B2E7808B918BA28BB38BACE5B4E0B3838C
:100EE000A283C8E5D4E01196DC93CE9386EF92E01E
:100EF000998388839B838A8380EB97E015969C93E4
:100F00008E93149780EA97E013969C938E93129792
:100F100082EB97E017969C938E931697AEE4B4E01D
:100F20008AE0ED0119928A95E9F7A4E4B4E0B58B63
:100F3000A48B8FE190E011969C938E9384E792E0CE
:100F400013969C938E93129786E392E015969C934A
:100F50008E9314978AE192E017969C938E9316973E
:100F600086E092E019969C938E931897C3ECD7E095
:100F700018828091B2029091B302A091B402B09114
:100F8000B5028E839F83A887B98781E090E0A0E0B7
:100F9000B0E089839A83AB83BC8343E050E062E096
:100FA00070E090E080E018DB81E08D83DF91CF91ED
:100FB00008958091C307811103C081E08093C30726
:100FC000089560E070E080E89FE7089560E070E0D9
:100FD00080E89FE7089560E070E080E89FEF089563
:100FE00060E070E080E89FEF089560E070E080ECE2
:100FF0009FEF089560E070E080EC9FEF0895F5DFCB
:101000006093E3077093E4078093E5079093E60706
:10101000F1DF6093D7077093D8078093D907909337
:10102000DA07CFDF6093DF077093E0078093E10773
:101030009093E207CBDF6093DB077093DC0780932C
:10104000DD079093DE07C7DF6093E7077093E8073B
:101050008093E9079093EA07C3DF6093EB077093EF
:10106000EC078093ED079093EE070895EF92FF92BF
:101070000F931F93CF93DF93EA01F901DC011496DC
:10108000ED90FC90159712964D915C9113974E0D33
:101090005F1D2881398118960D911C9119970217AF
:1010A000130730F00D911C911197012B09F441C0E9
:1010B0008A01021B130BDC0118968D919C918E19ED
:1010C0009F09800F911F86179707DCF1C901860FD2
:1010D000971F8417950778F4718360833383228385
:1010E000158214821782168288819981680F791F70
:1010F0007983688316C01183008333832283601B46
:10110000710B7583648390E080E01616170614F463
:101110009E2D8F2D96838783D701A60FB71FB98386
:10112000A88380E0DF91CF911F910F91FF90EF9006
:10113000089518968D919C91821B930B86179707A3
:101140005CF681E0EFCFCF92DF92EF92FF92CF93E8
:10115000DF936B0184E4869FE001879FD00D11240B
:10116000C859DB4F8AA99BA9009721F00E94622CE5
:101170001BAA1AAA84E48C9DF0018D9DF00D112408
:10118000E859FB4F86A997A9009711F00E94622C9D
:1011900084E48C9DF0018D9DF00D1124E859FB4FE6
:1011A000138A128A168A178A108E118E128E138E47
:1011B000148E158E168E178E10A211A281E090E06B
:1011C00093A382A315A214A216A217A210A611A679
:1011D00013A612A615A614A616A617A610AA11AA3B
:1011E00013AA12AA15AA14AA17AA16AA11AE10AE0B
:1011F00012AE13AE14AE15AEDF01DE961D921D9237
:101200001D921C921397EE5BFF4F11821082DF91AB
:10121000CF91FF90EF90DF90CF900895CF93DF9321
:10122000FB01DC016D917C91DB011696CD91DC9187
:101230008081918123E0880F991F2A95E1F7AA8187
:10124000BB81A80FB91F8D919C911197248535857D
:10125000220F331FEB016A817B81EB01C20FD31F89
:101260000990D881C02D14962D913C9161E070E0D9
:10127000232B11F062E070E0C69F9001C79F300DF4
:10128000D69F300D1124A085B1852A9FB0012B9FD8
:10129000700D3A9F700D1124A481B5812A9FF00131
:1012A0002B9FF00D3A9FF00D11248E0F9F1FFA0116
:1012B0009183808373836283DF91CF9108952F920E
:1012C0003F924F925F926F927F928F929F92AF92D6
:1012D000BF92CF92DF92EF92FF920F931F93CF9323
:1012E000DF9300D000D0CDB7DEB7DC011496ED91CE
:1012F000FC910190F081E02D808591859A8389830E
:10130000A281B381BC83AB83FB0181909190A190BA
:10131000B190C12CD12C7601C814D904EA04FB0485
:10132000CCF026960FB6F894DEBF0FBECDBFDF918E
:10133000CF911F910F91FF90EF90DF90CF90BF90D2
:10134000AF909F908F907F906F905F904F903F9065
:101350002F90089544805580668077804085518520
:1013600062857385CF0140969E838D83A081B18174
:101370009D0183E0220F331F8A95E1F7A981BA818D
:1013800012968D919C91D901A80FB91F2D903C9078
:1013900011970484F585E02DEE0FFF1F8B819C8152
:1013A000E80FF91F0190F081E02D14968D919C912A
:1013B000892B41F581E090E0E89F9001E99F300D95
:1013C000F89F300D1124249F8001259F100D349F1C
:1013D000100D1124249DC001259D900D349D900D6C
:1013E0001124A8016D817E81820D931D0E94EB2C3A
:1013F000ED81FE81E00FF11F9FEFC91AD90AE90ABA
:10140000F90A8ACF82E090E0D7CFCF93DF93DB0158
:10141000A654BD4F2C91222369F024E4269FF001AD
:10142000279FF00D1124E859FB4FEF0119922A95DF
:10143000E9F71C9224E4269FF001279FF00D112468
:10144000E859FB4F14821582168217821186108686
:1014500013861286118A108A17861686DF91CF911D
:1014600072CE2F923F924F925F926F927F928F92A5
:101470009F92AF92BF92CF92DF92EF92FF920F9323
:101480001F93CF93DF9300D000D01F921F92CDB750
:10149000DEB724E4269FF001279FF00D1124E859C0
:1014A000FB4F0481158126813781012B022B032BF1
:1014B00009F4B7C02A016B017C0110E000E0812C27
:1014C000912C54013F019F01285F3F4F3C832B83A8
:1014D000CF0104969E838D83AB81BC818D919C91BD
:1014E000ED81FE8140815181628173818416950670
:1014F000A606B706E4F10E94622CD3011A968D91DC
:101500009C91892B09F07EC084E48C9DD0018D9D37
:10151000B00D1124A859BB4FBC83AB8350968D915D
:101520009C910E94622CEB81FC81868597850E94AC
:10153000622CC701B60107DEC701B60128960FB6B7
:10154000F894DEBF0FBECDBFDF91CF911F910F91F9
:10155000FF90EF90DF90CF90BF90AF909F908F90D3
:101560007F906F905F904F903F902F904ECFFC01F7
:10157000E00FF11F92819983A381AA839F83A8879B
:10158000312C212C2414350464F089819A810E9425
:10159000622CEFEF8E1A9E0AAE0ABE0A0C5F1F4F36
:1015A0009BCFAF81B885ED91FD91B887AF83309720
:1015B00059F0848195810E94622CEF81F8853297E1
:1015C000808191810E94622CBFEF2B1A3B0ADACFF7
:1015D000800F911FFC01848195810E94622C2B81D8
:1015E0003C812F5F3F4F3C832B83025F1F4FF501F0
:1015F000808191812B813C81241535054CF30E941B
:10160000622C82CF10E000E01C821B8224E42C9D1F
:10161000C0012D9D900D1124DC01AE58BB4F5D0122
:10162000E6CF28960FB6F894DEBF0FBECDBFDF9190
:10163000CF911F910F91FF90EF90DF90CF90BF90CF
:10164000AF909F908F907F906F905F904F903F9062
:101650002F90089524E4269FF001279FF00D112478
:10166000E859FB4F828993890497029758F485E0E3
:1016700090E0938B828B8FEF9FEFDC01828F938FB3
:10168000A48FB58F08952F923F924F925F926F92E1
:101690007F928F929F92AF92BF92CF92DF92EF9202
:1016A000FF920F931F93CF93DF93CDB7DEB7AA9727
:1016B0000FB6F894DEBF0FBECDBF9AA389A37E8B71
:1016C0006D8B1A01098B1A8B2B8B3C8B84E4298937
:1016D0003A89829F6001839FD00C112486010859AA
:1016E0001B4F89899A89AB89BC89F80180839183D2
:1016F000A283B383AB01BC01CD01B3DED601A459F3
:10170000BB4F84E0F10101900D928A95E1F7F4E07E
:101710002F0E311C64E070E0D80114968D919C91DD
:101720000E94AC2BF80191878087892B09F0F5C0C6
:101730004D895E8969897A898B899C8992DE81E0ED
:10174000AA960FB6F894DEBF0FBECDBFDF91CF9142
:101750001F910F91FF90EF90DF90CF90BF90AF90CF
:101760009F908F907F906F905F904F903F902F90C1
:101770000895A9A5BAA58D919C91E98DFA8DE80FE0
:10178000F91FF88FEF8BD1018D919C91880F991FD4
:10179000A9A1BAA1ED91FC91E80FF91F8081918177
:1017A000EF89F88D91838083D10114962D913D911D
:1017B0004D915C9117972BA33CA34DA35EA362E0D0
:1017C00070E08D899E890E94AC2BEF89F88D938300
:1017D0008283892B09F4ACCFF8E02F0E311C412C09
:1017E000512C32012BA13CA14DA15EA14216530602
:1017F000640675069CF02B8D3C8D4D8D5E8D2F5FA4
:101800003F4F4F4F5F4F2B8F3C8F4D8F5E8F498DDA
:101810005A8D4C5F5F4F5A8F498F90C0610124E011
:10182000C20ED11CD101ED90FC90EE0CFF1CEF8993
:10183000F88D82819381E80EF91E68E070E081E006
:1018400090E00E94AC2B8C01D7018D939C93892B47
:1018500009F46ECF84E0F601D80101900D928A95CB
:10186000E1F7B8E02B0E311CF80180819181A28153
:10187000B381181619061A061B06DCF464E070E042
:101880000E94AC2BD80115969C938E931497892BAC
:1018900009F44ECFD12CC12C812C912C5401F8018C
:1018A00080819181A281B38188169906AA06BB0620
:1018B00034F0FFEF4F1A5F0A6F0A7F0A93CFF801E7
:1018C000E480F580EC0CFD1C80E1F101DE01119655
:1018D00001900D928A95E1F7F0E12F0E311CA701DE
:1018E000BE016F5F7F4FA9A1BAA114968D919C9103
:1018F00095DCF80186819781D70112962D913C9154
:10190000820F931F97838683BFEF8B1A9B0AAB0AC4
:10191000BB0AE4E0CE0ED11CC2CF1A8E198E1B8EEC
:101920001C8E1D8E1E8E18A30F8FA8014C5F5F4F5B
:1019300058A74FA3C80108969AA789A7EFA1F8A5B1
:1019400080819181A281B3812B8D3C8D4D8D5E8DE7
:10195000281739074A075B070CF40BCF6EE070E0DD
:101960008D899E890E94AC2BAF8DB8A11B969C934C
:101970008E931A97B12CA12CD12CC12CF12CE12CD7
:1019800024E4E989FA892E9FC0012F9F900D11242C
:101990009C012E583B4F388F2F8B88248394912C99
:1019A0004D895E89C416D50654F184E4A989BA89A3
:1019B0008A9F80018B9F100D112408591B4FF8013D
:1019C00015861486C70133E0880F991F3A95E1F711
:1019D0000E94C62BD80151969C938E935097892BC9
:1019E00009F4A6CEC701880F991F0E94C62BF801E3
:1019F00097878687892B09F49BCE80E0A1CED10101
:101A00004D905D906D907D901D0177FC91CEEF899A
:101A1000F88D008111810A0D1B1DD80111969C9231
:101A20008E92411451046104710429F1C2010E9493
:101A3000C62BF80195838483892B09F479CEF801AC
:101A400053824282848195819783868391878087A0
:101A50001386128681E090E045284628472811F435
:101A600090E080E0E80EF91EFFEFCF1ADF0A2EE0CB
:101A7000A20EB11C95CF15961C921E921497DFCF23
:101A80002F923F924F925F926F927F928F929F928E
:101A9000AF92BF92CF92DF92EF92FF920F931F937C
:101AA000CF93DF93CDB7DEB76A970FB6F894DEBF5A
:101AB0000FBECDBF9E8B8D8B49015A0184E4829F5E
:101AC0007001839FF00C1124970128593B4F690145
:101AD000FB0180819181F901958B848BD701A258FC
:101AE000BB4FFB01349684E001900D928A95E1F79B
:101AF000D701AE57BB4FFB01389684E001900D92A1
:101B00008A95E1F7D701AA57BB4FFB013C9684E0C9
:101B100001900D928A95E1F7D701AA56BB4FFB01C0
:101B2000709684E001900D928A95E1F78B010C5E2E
:101B30001F4FF90186A597A5A0A9B1A918161906E6
:101B4000DCF5880F991F880F991F0E94C62BF6019C
:101B500093AB82AB892B09F4D3C0312C212C412CBF
:101B6000512C32019601225D3F4F388F2F8BC601D9
:101B7000C2969A8F898FF496FC8BEB8BB301A201EE
:101B80002FEF421A520A620A720AEF89F88D808199
:101B90009181A281B381481759076A077B070CF42A
:101BA0007BC0F60184A995A90E94C62BF60197ABCC
:101BB00086AB892B09F4A4C0F80180819181A281B0
:101BC000B38124E4289DF001299DF00D1124E859EA
:101BD000FB4FAC01BD014D7F21E030E0452B462B92
:101BE000472B11F030E020E033A322A324E4289D0A
:101BF000F001299DF00D1124E859FB4F0197A1092F
:101C0000B10921E030E00297A105B10510F030E004
:101C100020E035A324A3D701A257BB4FF801349687
:101C200084E001900D928A95E1F784E4889DF001AB
:101C3000899DF00D1124E859FB4F868D978DA0A149
:101C4000B1A1B7FF58C0B095A095909581959F4FD1
:101C5000AF4FBF4F82AF93AFA4AFB5AF168E178E05
:101C600010A211A280E06A960FB6F894DEBF0FBEF4
:101C7000CDBFDF91CF911F910F91FF90EF90DF903B
:101C8000CF90BF90AF909F908F907F906F905F901C
:101C90004F903F902F900895E98DFA8D808191812A
:101CA0009C01220D331D3A8B298B80E1F801DE0166
:101CB000119601900D928A95E1F7005F1F4F4989B7
:101CC0005A89BE016F5F7F4FED89FE8984819581BE
:101CD000A5DAEB89FC8980819181E989FA892281E1
:101CE0003381820F931FEB89FC8991838083F4E019
:101CF0002F0E311C43CF12AE13AE14AE15AEB2CFC1
:101D0000C501B40120DA81E0AECFCF92DF92EF922D
:101D1000FF92CF93DF931092F00424E4269FF0010A
:101D2000279FF00D1124E859FB4F15A614A630E0AB
:101D300020E0D12CC12CDF011A96C1E0D0E0C416FE
:101D4000D506F4F024E4269FF001279FF00D11241E
:101D5000E859FB4F13A612A611AE10AEDF01DE96B6
:101D60001D921D921D921C92139782E090E0938B1E
:101D7000828BDF91CF91FF90EF90DF90CF9008950D
:101D8000ED91FC911197E20FF31FE280F3801E1496
:101D90001F0454F4E480F580F782E682F186E08641
:101DA00013861286D183C083EFEFCE1ADE0A225F3C
:101DB0003F4FC5CF24E4269FF001279FF00D11244B
:101DC000E859FB4F138A128A4CCB24E4269FF0017A
:101DD000279FF00D1124E859FB4F828993898130A8
:101DE0009105C8F08530910518F0059769F00895C0
:101DF0008FEF9FEFDC01828F938FA48FB58F85E0EB
:101E000090E0938B828B08958FEF9FEFDC01828FA0
:101E1000938FA48FB58F089524E4249FD001259F2C
:101E2000B00D1124A859BB4F2EE0AC01249FC00176
:101E3000259F900D11241A96ED91FC91E80FF91F42
:101E400081E08093F0048285938591878087408527
:101E500051852681378181E090E04217530711F0C8
:101E600090E080E09183808308952F923F924F927B
:101E70005F926F927F928F929F92AF92BF92CF921A
:101E8000DF92EF92FF920F931F93CF93DF93CDB723
:101E9000DEB7C055D1090FB6F894DEBF0FBECDBF77
:101EA0009EAF8DAF4BA75CA76DA77EA76801790198
:101EB00084E4809FF001819FF00D1124E859FB4FCD
:101EC0002285338523963FAF2EAF2397828993894E
:101ED000029761F486A597A5A0A9B1A9892B8A2BA1
:101EE0008B2BC9F584E090E0938B828B84E48C9DEE
:101EF000F0018D9DF00D1124E859FB4F82899389E3
:101F00008230910509F037C282AD93ADA4ADB5AD75
:101F100022242394312C181619061A061B060CF4D9
:101F20002FC2C05BDF4F0FB6F894DEBF0FBECDBF30
:101F3000DF91CF911F910F91FF90EF90DF90CF90A5
:101F4000BF90AF909F908F907F906F905F904F90D9
:101F50003F902F900895848995894DAD5EAD84178B
:101F6000950721F606A917A918AE1FAA1BAA1CAA35
:101F70001DAA1EAA1F01CF018E9627969FAF8EAF76
:101F80002797DF01D2962996BFAFAEAF2997F89673
:101F90002B96FFAFEEAF2B9791012A5D3F4F2D9609
:101FA0003FAF2EAF2D97A1014E5D5F4F2F965FAFD4
:101FB0004EAF2F970A9761969FAF8EAF6197279686
:101FC000EEADFFAD279780819181A281B3812BA9CE
:101FD0003CA94DA95EA9281739074A075B0744F0B9
:101FE00081E090E0D101D9969C938E93D8977ECFD3
:101FF0002996AEADBFAD2997ED91FC912FA938ADD3
:10200000E20FF31F428153815AAF49AF50815FAF56
:10201000818121968FAF21972B96AEADBFAD2B97C7
:102020008D919C91892B21F12D96EEADFFAD2D97D1
:1020300080809180A280B3801AAB09AB5FA7219604
:10204000FFAD2197F8AB29AD3AAD3695279536957A
:10205000279525963FAF2EAF25971CAE1BAE259634
:10206000AEADBFAD2597EBADFCADEA17FB070CF1AC
:1020700049AD5AAD6FAD21967FAD2197C8010E9441
:10208000EB2C89AD9AAD8C7F080F191F2BA93CA9A9
:102090004DA95EA92F5F3F4F4F4F5F4F2BAB3CAB1E
:1020A0004DAB5EAB4FA958AD4C5F5F4F58AF4FABD8
:1020B00086CF2F96AEADBFAD2F978D919C91892B7A
:1020C00071F1EFA5F8A94080518062807380A3016F
:1020D0009201C501B4010E948D22181664F0A9A9CD
:1020E000BAA92D913D914D915C91C501B4010E9419
:1020F00074231816BCF1A3019201C501B4010E941A
:102100008D2287FF0CC0E9A9FAA920813181428183
:102110005381C501B4010E948D22882319F1619673
:10212000AEADBFAD61978D919C91892B09F445C0EF
:10213000EFA5F8A94080518062807380A3019201CD
:10214000C501B4010E94742318161CF5A9A9BAA9E7
:102150002D913D914D915C91C501B4010E948D225C
:1021600018165CF184E48C9DF0018D9DF00D112416
:10217000E859FB4F868D978DA0A1B1A1892B8A2BA1
:102180008B2B69F183E090E0938B828B81E090E070
:102190002CC0A3019201C501B4010E948D228111BE
:1021A0000CC0E9A9FAA92081318142815381C5017E
:1021B000B4010E948D2287FDD5CF2BAD3CAD2F5FA2
:1021C0003F4F3CAF2BAF49A95AA94C5F5F4F5AAB69
:1021D00049AB8FA598A9049698AB8FA740CF84E010
:1021E00090E0938B828B86AD97AD93A782A77ECE2E
:1021F000EBADFCAD80819181F401EE0FFF1FEE0F7E
:10220000FF1FE80FF91FA081B1818C9181110AC0D5
:10221000FFEF8F1A9F0AAF0ABF0A8DA29EA2AFA23C
:10222000B8A68FC18330A1F30280F381E02D2FA9DE
:1022300038ADE20FF31F808191819AAB89AB892B76
:1022400039F34F5F5F4F6F4F7F4F49875A876B87D7
:102250007C879E01235E3F4FAE01475D5F4F64E088
:1022600070E0C8010E9436088111D0C18D819E8125
:10227000AF81B8850496A11DB11D8D839E83AF8368
:10228000B8874D8D5E8DBE016B5D7F4F8F8D98A1A0
:102290000E94EB2C8BA19CA1009761F06D8D7E8D2F
:1022A000A5E2B0E0AC0FBD1F6A0F7B1F49A15AA188
:1022B0000E94EB2C1CAA1BAA412C512C3201E9A92B
:1022C000FAA980819181A281B381481659066A06D4
:1022D0007B060CF09DCFE9A9FAA9848195812BA9F1
:1022E0003CA9280F391F38AB2FA7D90112966D9141
:1022F0007C919E01235E3F4FAE01475D5F4FC80159
:102300000E943608811182C1EFA5F8A982819381CC
:10231000092E000CAA0BBB0B4D815E816F81788565
:10232000840F951FA61FB71F8D839E83AF83B88729
:10233000608171814D8D5E8D8F8D98A10E94EB2CF7
:102340008BA19CA1009761F0AFA5B8A96D917C917C
:102350002D8D3E8D620F731F49A15AA10E94EB2C57
:10236000BFEF4B1A5B0A6B0A7B0AEBA9FCA93496F8
:10237000FCABEBABA4CF312C212C049709F0D1CDD1
:102380008EE0EDADFEAD8E9F80018F9F100D11246C
:1023900023962EAD3FAD2397020F131FD80112963F
:1023A0004D915C9113974115510509F4BACD1696DC
:1023B0008D919C919AA789A780E1FE013196DF015A
:1023C0001D928A95E9F7C98ADA8AEB8AFC8A211478
:1023D000310409F458C084E48C9DF0018D9DF00D0A
:1023E0001124E859FB4FDF01DE968D909D90AD9052
:1023F000BC9082AD93ADA4ADB5AD88169906AA0682
:10240000BB0609F040C0F801848195810084F18504
:10241000E02D349624E0DE01559601900D922A9528
:10242000E1F72D893E89285F3F4F3E8B2D8BD801E8
:1024300018966D917C911997260F371F19963C932A
:102440002E93189718962D913C911997480F591F64
:10245000241B350B37FD06C0820F931F19969C93E2
:102460008E93189784E48C9DF0018D9DF00D1124BE
:10247000EA55FB4FB1E08B1A9108A108B1088082A0
:102480009182A282B3829E012B5E3F4FAE01475DD7
:102490005F4F64E170E0C8010E9436088111B6C048
:1024A0008CE090E0A0E0B0E08D839E83AF83B8879E
:1024B0009E01235E3F4FAE01475D5F4F64E070E0D9
:1024C000C8010E9436088111A1C080E190E0A0E01F
:1024D000B0E08D839E83AF83B8874D8D5E8DBE0146
:1024E000655D7F4F8F8D98A10E94EB2C8BA19CA1E5
:1024F000009761F06D8D7E8DEBE2F0E0EC0FFD1F3B
:102500006E0F7F1F49A15AA10E94EB2C1DA21EA293
:102510001FA218A62DAD3EAD220F331F38AF2FAB33
:1025200024E42C9DC0012D9D900D112488599B4FB2
:10253000AC014C5F5F4F5AAF49AFDC011896BCAF9E
:10254000ABAF8DA09EA0AFA0B8A449855A856B857E
:102550007C85E9ADFAAD80819181A281B381881635
:102560009906AA06BB060CF443CE452B462B472BF7
:1025700009F4D7CC8AE190E0A0E0B0E089839A83A7
:10258000AB83BC832DAD3EADC901330FAA0BBB0B92
:102590008D879E87AF87B88B4D895E89BE016F5F3F
:1025A0007F4F8F89988D0E94EB2C8B8D9C8D00978F
:1025B00061F06D897E8941E050E04C0F5D1F640F32
:1025C000751F498D5A8D0E94EB2C89A59AA5D801BB
:1025D00017969C938E93169711961C921E92232801
:1025E00009F49FCC84E48C9DF0018D9DF00D1124A5
:1025F000EA55FB4F80819181A281B3810196A11D93
:10260000B11D80839183A283B3838BCC232809F0EF
:1026100088CC84E48C9DF0018D9DF00D1124E85947
:10262000FB4F81E090E095A784A785E090E0938B35
:10263000828B77CCCF92DF92EF92FF920F931F9312
:1026400024E4269FF001279FF00D1124E859FB4F49
:10265000228933892115310509F452C06B017C01AF
:1026600021303105B1F482A593A59C012F5F3F4F26
:1026700033A722A7092E000CAA0BBB0B028D138DCA
:10268000248D358D80179107A207B307C9F5C701BF
:102690003CDB84E48C9DF0018D9DF00D1124E85904
:1026A000FB4F82899389039759F582A593A59C01D5
:1026B0002F5F3F4F33A722A7092E000CAA0BBB0B9D
:1026C000468D578D60A171A184179507A607B7079E
:1026D000BCF086AD97AD93A782A784E090E0938B82
:1026E000828B82AD93ADA4ADB5AD181619061A064E
:1026F0001B0634F4EE5BFF4F81E090E09183808312
:102700001F910F91FF90EF90DF90CF90089524E4F8
:10271000269FF001279FF00D1124E859FB4F828975
:1027200093890497B1F482A593A5019693A782A7F4
:10273000092E000CAA0BBB0B46895789608D718D41
:1027400084179507A607B70721F485E090E0938BDF
:10275000828B08952F923F924F925F926F927F9259
:102760008F929F92AF92BF92CF92DF92EF92FF92A1
:102770000F931F93CF93DF93CDB7DEB72E970FB68E
:10278000F894DEBF0FBECDBFDC0149835A836B8353
:102790007C83290184E4849FF001859FF00D11243E
:1027A000E859FB4F22883388C1010497029708F04B
:1027B000D5C011961C921E9213961C921E921297CF
:1027C00015861486912C812C90E080E08F019F016A
:1027D000205F3F4F38872F833F013CE0630E711C21
:1027E000BF01625F7F4F7A8769873A96FC87EB87E4
:1027F000EF81F88520813181F30140815181E985A4
:10280000FA85A080B180841595050CF445C0119619
:102810005C934E9313963C932E9312971596BC920D
:10282000AE921497452BF9F4F5E02F163104D9F444
:102830001092F004F801828D938DA48DB58DAE01B8
:102840004F5F5F4F64E070E08F3F9F4FAF4FBF4FD0
:1028500009F079C080E290E0F6D469817A818B81B9
:102860009C81A201A7DA2E960FB6F894DEBF0FBEA8
:10287000CDBFDF91CF911F910F91FF90EF90DF902F
:10288000CF90BF90AF909F908F907F906F905F9010
:102890004F903F902F900895EB85FC85608171816A
:1028A000FB01E80DF91DFE87ED8760817181672BC3
:1028B00089F5E084F184628173817E836D83668112
:1028C00077816A01E3E0CC0CDD1CEA95E1F72C0D81
:1028D0003D1D440F551F4A0D5B1DFA0191838083F6
:1028E000F301408151814F5F5F4F51834083F90174
:1028F000F382E282ED85FE8573876287E616F7062E
:1029000070F46E197F09F901718360831582148256
:10291000178216820196FEE08F0E911C69CFED851D
:10292000FE85C480D5804D815E814C0D5D1D4E19A4
:102930005F09F901518340836C197D0975836483B4
:10294000D782C682E7CF8FE190E07DD4F80113A64D
:1029500012A681E090E0938B828B85CF158614863A
:1029600011961C921E9213961C921E9212977BCF68
:10297000EF92FF920F931F93CF93DF937C018B0114
:10298000EA013DD581111BC08091BC029091BD022E
:102990000497F9F4DF91CF911F910F91FF90EF9081
:1029A000089528ED38EB45E050E060E070E0CB01A1
:1029B000DCD7AE01B801C701E6D7C801AFD7809117
:1029C000F1049091F204892BF9F68881882349F368
:1029D000DBCF83E090E09093BD028093BC02DACF1E
:1029E000CF93DF932091BC023091BD02243031059A
:1029F00031F0EB01C8D7CE01DF91CF918FC7DF91C6
:102A0000CF9108950C94C1200C94B6200C94A4206E
:102A100095C70C944820089570E060E090E080E055
:102A2000C9C40895AF92BF92CF92DF92EF92FF9206
:102A30000F931F93CF93DF931F921F92CDB7DEB7F3
:102A40005C018B0169017A0190E080E0C114D1043E
:102A5000E104F10469F40F900F90DF91CF911F9181
:102A60000F91FF90EF90DF90CF90BF90AF900895BF
:102A70009C2D8D2DC114D10421E0E206F10410F04B
:102A80009FEF8FEF9E012F5F3F4F492F582FB801C7
:102A9000C5010E944A218F3F9807E9F229813A81B6
:102AA000C21AD30AE108F108020F131FCFCF40E882
:102AB00055E260E070E090E080E000C08130910578
:102AC00079F01CF4892B39F008958230910561F07A
:102AD000039771F0089526E088E295E00C9475283C
:102AE00026E085EC95E0FACF26E082E696E0F6CF88
:102AF00026E08FEF96E0F2CF1F920F920FB60F9263
:102B000011240BB60F922F933F934F935F936F93C4
:102B10007F938F939F93AF93BF93EF93FF938FE830
:102B20009DEF90932501809324010E948421FF91C1
:102B3000EF91BF91AF919F918F917F916F915F9135
:102B40004F913F912F910F900BBE0F900FBE0F90A2
:102B50001F9018958FE89DEF909325018093240195
:102B6000A3E7B0E08C918E7F8C93E0E2F1E080816E
:102B70008C7F8083E1E2F1E08081877E80838081A9
:102B80008460808380818C7F80838C9181608C9332
:102B9000089581E008958F929F92AF92BF92CF9255
:102BA000DF92EF92FF920F931F93CF93DF935C011D
:102BB0007B018A01C1E0D0E0CE15DF05CCF081E0D9
:102BC000F5018083B801C7010E94EB20F5019283D3
:102BD000818390E080E0DF91CF911F910F91FF9072
:102BE000EF90DF90CF90BF90AF909F908F9008951F
:102BF0006E018FEFC81AD80AFE01EE0FFF1FE00F1B
:102C0000F11F808091808114910469F060ED73E080
:102C1000C4010E94FB2C892B41F4CC0FDD1FC00F97
:102C2000D11F19821882E601C7CF63ED73E0C4019A
:102C30000E94FB2C892BB9F7EC14FD04A1F36E0163
:102C4000E2E0CE0ED11CCC0FDD1FC00FD11F1982C8
:102C500018821B821A82E7CF83EF94E0089580E008
:102C600008950F931F93CF93DF938B01BA01E9016E
:102C7000198218829801012E000C440B550BFC019F
:102C800081819281CFDE019641F01983088380E033
:102C9000DF91CF911F910F91089581E0F9CF0F93AC
:102CA0001F93CF93DF931F921F92CDB7DEB7FB0127
:102CB0008A01B9019E012F5F3F4FAF01FC01818165
:102CC00092810E94FF20019669F089819A81F80122
:102CD0009183808380E00F900F90DF91CF911F91BF
:102CE0000F91089581E0F7CFFC0180810895089548
:102CF000089581E0FB01808380E00895089510929B
:102D00001B050895FC01818192810C94E320CF93EF
:102D1000DF9300D000D000D01F92CDB7DEB7B0E077
:102D2000A0E089839A83AB83BC83CB01770FAA0B86
:102D3000BB0B8D839E83AF83B8879E01275F3F4F78
:102D4000AE014F5F5F4F68E070E080910A0590919F
:102D50000B0587DF811110C081E029853A85283075
:102D6000310509F480E02A960FB6F894DEBF0FBE55
:102D7000CDBFDF91CF91089581E0F5CF0F931F93E1
:102D8000CF93DF931F921F92CDB7DEB78B019E01C9
:102D90002F5F3F4FAC0180910A0590910B0561DFD9
:102DA00081110EC081E029813A812017310709F491
:102DB00080E00F900F90DF91CF911F910F910895B8
:102DC00081E0F7CFCF93DF93EC0110920E051092C4
:102DD0000D0510921A0510921905AC0160E070E023
:102DE000CB010E94DA0EAE0161E070E080E090E07D
:102DF0000E94DA0E80910A0590910B05DF91CF9128
:102E00007DCF4F925F926F927F928F929F92AF92FF
:102E1000BF92CF92DF92EF92FF920F931F93CF93C7
:102E2000DF931F921F92CDB7DEB78C017C0197FF15
:102E300003C087E0E80EF11C23E0F594E7942A959F
:102E4000E1F7C80168E070E00E94422B6C010E5F60
:102E50001F4F809108059091090580179107D4F4C0
:102E60008091060590910705009731F00E94622C31
:102E70001092090510920805C8010E94C62B909374
:102E8000070580930605892B09F482C01093090574
:102E90000093080510E000E047C1412C512C32019D
:102EA000B12CA12C9501215F3A4FAE014F5F5F4FCE
:102EB00061E070E080910A0590910B05F0DE8111D0
:102EC00049C0EFEF4E1A5E0A6E0A7E0AF0E94F160D
:102ED000FFE55F06F1E06F06710444F060911905AB
:102EE00070911A058DEE90E012DFD7CF89819A811B
:102EF000A80EB91E8AE0A816B10409F043C049E043
:102F000050E070E060E08FE095E00E9476216091F3
:102F1000190570911A05882391F18091170590E0A9
:102F20008617970781F4BC018EEE90E0F0DE809169
:102F3000190590911A050196992790931A05809387
:102F400019050F5F1F4F0E151F050CF4A6CFCD28D6
:102F500009F07CC090E080E00F900F90DF91CF915E
:102F60001F910F91FF90EF90DF90CF90BF90AF90A7
:102F70009F908F907F906F905F904F9008958FEE0D
:102F800090E0B2CFEAE0AE16B1040CF48BCFDBCF09
:102F900010E000E0D8CF0A30110531F549E050E0EB
:102FA00070E060E08FE095E00E9476216091190565
:102FB00070911A058823A9F08091170590E0861773
:102FC000970741F6BC018EEE90E0A1DE80911905D5
:102FD00090911A050196992790931A0580931905E7
:102FE000B9CF8FEE90E02BC00A3011050CF0B2CFB4
:102FF0009801215F3A4FAE014F5F5F4F61E070E093
:1030000080910A0590910B054ADE8111A3CF898139
:103010009A81080F191FFFEFCF1ADF0AEF0AFF0A84
:1030200080E9C8168FE5D80681E0E806F1040CF4C3
:10303000B2CF6091190570911A058DEE90E067DEB0
:1030400010E000E0C12CD12C7601D2CFC12CD12CC4
:10305000760110E000E0CCCF412C512C3201B12C94
:10306000A12C480193E0880C991C9A95E1F72091D6
:10307000060530910705C501880D991D280F391FD8
:10308000AE014F5F5F4F61E070E080910A05909163
:103090000B0505DE81115ECFEFEF4E1A5E0A6E0A58
:1030A0007E0A6091190570911A058DEE90E0F0E9A5
:1030B0004F16FFE55F06F1E06F0671040CF043C0A8
:1030C00089819A81A80EB91E8AE0A816B10409F078
:1030D00041C049E050E0B401809106059091070598
:1030E0000E9476216091190570911A05882349F193
:1030F0008091060590910705880E991EF401808540
:1031000090E08617970781F4BC018EEE90E0FFDD1A
:103110008091190590911A050196992790931A05A7
:10312000809319050F5F1F4F0E151F050CF494CFE8
:10313000C114D10409F081C0809106059091070562
:103140000BCF8FEE90E0E3DD412C512C3201B12CFE
:10315000A12C8DCFFAE0AF16B1040CF488CFE4CFE8
:103160008FEE90E0D4DDF12CE12C812C912C5401D8
:103170009701215F3A4FAE014F5F5F4F61E070E012
:1031800080910A0590910B058ADD8111E3CE8FEFC6
:10319000881A980AA80AB80A6091190570911A0548
:1031A0008DEE90E0E0E98E16EFE59E06E1E0AE06DA
:1031B000B104C4F689819A81E80EF91EFAE0EF168F
:1031C000F104A9F549E050E070E060E08FE095E09F
:1031D0000E9476216091190570911A05882309F4DF
:1031E000BFCF8091170590E08617970709F0A4CF0D
:1031F000BC018EEE90E08BDD83E0000F111F8A95FD
:10320000E1F78091060590910705A6016FE075E052
:10321000800F911F0E94EB2C8091190590911A0547
:103220000196992790931A058093190585CF8AE016
:10323000E816F1040CF49CCF7FCF812C912C540123
:10324000F12CE12C95CFCF92DF92EF92FF920F936A
:103250001F93CF93DF931F92CDB7DEB76C017B0135
:103260008A01452B39F0AB0170E060E0C8010E9493
:1032700072218983B701C6014ADD81110DC0011594
:10328000110551F0B701C80179DD811105C061E078
:1032900070E0CE01019672DD0F90DF91CF911F910A
:1032A0000F91FF90EF90DF90CF900895CF92DF9233
:1032B000EF92FF92CF93DF9300D000D01F921F9226
:1032C000CDB7DEB76B01F12CE12CC982DA82EB823B
:1032D000FC822D833E834F835887AE014F5F5F4F43
:1032E00068E070E0B0DF28960FB6F894DEBF0FBE3E
:1032F000CDBFDF91CF91FF90EF90DF90CF900895F9
:103300008F929F92AF92BF92CF92DF92EF92FF92F5
:103310000F931F93CF93DF937C01EB01CA016901E7
:1033200070DD0097B1F42FEF3FEFA90161E070E08D
:10333000C701BCDFC1E08C2FDF91CF911F910F91AE
:10334000FF90EF90DF90CF90BF90AF909F908F90C5
:103350000895FC0181909190A190B190BF01FCE192
:10336000EF16F10479F4A5019401CE010E94400DFD
:10337000C82FA5019401882369F061E070E0C701BE
:1033800095DFD9CF95018401AB01B601CE010E9432
:10339000430BEECF70E060E0C701DF91CF911F914A
:1033A0000F91FF90EF90DF90CF90BF90AF909F90E4
:1033B0008F907CCF0F931F93CF93DF93EC018B0102
:1033C0004BDC90930B0580930A050097A9F0A801A8
:1033D000BE01E1DBEC01892B49F080910A05909157
:1033E0000B0585DC10920B0510920A05CE01DF91CA
:1033F000CF911F910F910895CFEDD3E0EECF809143
:103400000A0590910B0570CC2F923F924F925F92DC
:103410006F927F928F929F92AF92BF92CF92DF92E4
:10342000EF92FF920F931F93CF93DF93CDB7DEB749
:1034300069970FB6F894DEBF0FBECDBF20910E0581
:103440002223F1F05B8B4A8B6E877F87888B998B69
:103450009A01AB01BC01CE0101967C017BD910E041
:1034600048E0242E312CE88EF98E89819A81181635
:1034700019060CF450C2112319F08A899B89A2DC29
:1034800069960FB6F894DEBF0FBECDBFDF91CF9126
:103490001F910F91FF90EF90DF90CF90BF90AF9072
:1034A0009F908F907F906F905F904F903F902F9064
:1034B0000895EB81FC818C859D8533E0880F991FF1
:1034C0003A95E1F7E80FF91F808191819093050506
:1034D00080930405248135814281538150930305F3
:1034E00040930205468157815093010540930005A2
:1034F000820F931F9C01990F440B550B2C8B3D8B16
:103500004E8B5F8B812C912C54018C899D89AE89C7
:10351000BF8988169906AA06BB0638F18C859D8559
:10352000880F991FED81FE81E80FF91F4E855F8599
:1035300068897989808191810E940C0FAC85BD8555
:103540001196BD87AC8789819A81EC85FD85E81746
:10355000F9070CF4AECF2A893B894E855F856889CF
:103560007989888D998DF6D880CF1F826091040566
:1035700070910505CB01072E000CAA0BBB0B840133
:103580007501640134E0C30ED11CE11CF11CC816A6
:10359000D906EA06FB0608F0B3C020910205309177
:1035A0000305A4014C5F5F4F240F351FF901C08054
:1035B000D12CF12CE12C24013501F5E04F0E511CEA
:1035C000611C711C481659066A067B0608F0A3C0E8
:1035D0002091020530910305F8013596E20FF31FA3
:1035E0002081D22A2401350126E0420E511C611CA3
:1035F000711C481659066A067B0608F097C0209190
:10360000020530910305F8013696E20FF31F208181
:10361000E22A2401350137E0430E511C611C711C64
:10362000481659066A067B0608F08BC020910205F1
:1036300030910305F8013796E20FF31F2081260130
:103640003701722A7501640148E0C40ED11CE11CE7
:10365000F11C8C159D05AE05BF0508F41DC188162B
:103660009906AA06BB0608F077C0809102059091E2
:103670000305800F911F68E070E080DBE091040596
:10368000F09105059F010F2E000C440B550BD30143
:10369000C2018C0D9D1DAE1DBF1D281739074A079D
:1036A0005B0708F478C0C216D306E406F50608F0F6
:1036B0005DC080910205909103059801285F3F4FFE
:1036C000820F931FB2015ADB80910405909105058A
:1036D000AC01092E000C660B770BC416D506E60666
:1036E000F70608F04DC0085F1F4F809102059091CA
:1036F0000305800F911FA20170E060E0F3D5A7C021
:1037000044E050E0461B570B480D591D2091000521
:103710003091010549CFE5E0F0E0E61BF70BE00F43
:10372000F11F209100053091010558CFE6E0F0E04F
:10373000E61BF70BE00FF11F20910005309101050A
:1037400064CFE7E0F0E0E61BF70BE00FF11F2091FC
:1037500000053091010570CF9801261B370B809131
:10376000000590910105820F931F85CF91012E1BBB
:103770003F0B200F311F8091000590910105A0CFD4
:10378000D101A81BB90BCD01080F191F80910005AD
:1037900090910105AECFBF0168507109601B710B9C
:1037A000C216D306E406F50608F062C08091020551
:1037B000909103059801285F3F4F820F931FDEDA37
:1037C0008091040590910505B101681B790B600F8C
:1037D000711F640D751D8091000590910105CEDA71
:1037E0008091040590910505AC0148505109FA01FA
:1037F000E01BF10BAC01092E000C660B770BC41615
:10380000D506E606F70608F03DC0809102059091C6
:1038100003059801285F3F4F820F931FAF0170E0AF
:1038200060E060D58F832091040530910505F1019A
:10383000E21BF30B9F01200F311F240D351D50E0BB
:1038400040E0682F809100059091010537D58F8366
:1038500061E070E0CE01079691DA182F38E0430E50
:10386000511C611C711C840C951CA61CB71C4DCEF0
:1038700091012E1B3F0B200F311F8091000590916D
:1038800001059BCF9101281B390B200F311F80911F
:10389000000590910105C0CF88169906AA06BB06BF
:1038A00068F5601B710B8091020590910305800FF4
:1038B000911F64DA8091040590910505B101681BA0
:1038C000790B600F711F640D751D8091000590913B
:1038D000010554DA8091040590910505AC01092E8B
:1038E000000C660B770BC416D506E606F70608F43F
:1038F000FACE9101281B390BC90146CFC801861B9E
:10390000970B2091000530910105B201685F7F4F50
:10391000820F931FDECF1D861C8615CECF93DF93BB
:10392000EC01AC0160E070E0CB016EDDAE0161E066
:1039300070E080E090E0DF91CF9166CDCF938091F1
:103940000A0590910B058BD9C82F81110BC060E03F
:1039500070E0CB010E94050A61E070E080E090E039
:103960000E94050A8C2FCF9108950F931F93890110
:103970009A01AB01BC0180910A0590910B05B8D961
:103980001F910F9108954F925F926F927F928F9245
:103990009F92AF92BF92CF92DF92EF92FF920F93DE
:1039A0001F93CF93DF93CDB7DEB763970FB6F8942D
:1039B000DEBF0FBECDBF6C018B015A0180910E0599
:1039C000882309F43DC080910E05882309F442C084
:1039D00080910D051A821982882309F4C0C0F0E98C
:1039E0004F2EFFE55F2E66246394712CF12CE12CA1
:1039F00097012A503B4FAE014F5F5F4F61E070E08F
:103A000080910A0590910B054AD9982E811169C0C1
:103A100089819A81E80EF91EE114F10409F461C06C
:103A200081E0481A51086108710859F5609119053B
:103A300070911A058DEE90E06AD91A82198251C0F0
:103A40006EE075E080910A0590910B0552D98823AC
:103A500009F4B9CF63960FB6F894DEBF0FBECDBFA1
:103A6000DF91CF911F910F91FF90EF90DF90CF905A
:103A7000BF90AF909F908F907F906F905F904F908E
:103A80000895AAE0EA16F10409F063C049E050E0A5
:103A900070E060E086EF94E029D4609119057091A0
:103AA0001A05882309F452C08091FE0490E086171D
:103AB000970719F6BC018EEE90E029D988E0E6EF71
:103AC000F4E0DE01199601900D928A95E1F780915C
:103AD000190590911A050196992790931A058093DC
:103AE000190581E029813A81121613060CF080E055
:103AF0009110CAC2882309F4ADCF80910D058111C0
:103B000004C019861A861B861C8689859A85AB8512
:103B1000BC8580319105A105B10508F09BCFFC0162
:103B20008827EA56F24E8F4F0C94772B161ED51F1E
:103B300044202A1D1A1F4D1F061E0E1EEA1D292095
:103B4000182025202A1D2A1D2A1DD51D8FEE90E044
:103B500073CFBAE0EB16F1040CF44ACFC2CFF12CCC
:103B6000E12CE8E06E2E712C29E030E02C0F3D1F97
:103B70002E0D3F1DAE014F5F5F4FB3016E197F09E0
:103B800080910A0590910B058AD8982E29813A8157
:103B9000811109C0E20EF31EE114F10421F0E8E006
:103BA000EE16F1040CF381E09FCFD6011696ED914D
:103BB000FC9180819181A281B38189839A83AB83B7
:103BC000BC83AE014F5F5F4F64E070E085E190E041
:103BD0003ADB40CF8D859E8514D92FEF3FEFA901A9
:103BE00061E070E0009771F0FC01C080D180E2805C
:103BF000F380A801C701B6010E94850EA7019601B6
:103C000070E060E08DE190E051DB24CF4D855E8572
:103C10009801B6018BE190E073DB1CCF4D855E858A
:103C20002FEF3FEFB6018CE190E0F6CFD60114966E
:103C3000ED91FC9100811181F80182809380A08038
:103C4000B18070E1472E512C612C712C49825A822F
:103C50006B827C8288E090E0A0E0B0E08D839E8360
:103C6000AF83B8879E012F5E3F4FAE014F5F5F4F1E
:103C700068E070E080910A0590910B050E94311672
:103C80008823D9F010E000E0C80163960FB6F894DD
:103C9000DEBF0FBECDBFDF91CF911F910F91FF907F
:103CA000EF90DF90CF90BF90AF909F908F907F90DC
:103CB0006F905F904F900C94622C89899A89089735
:103CC00009F7D801ED90FC90B8E0EB0EF11CEE0C7A
:103CD000FF1CEE0CFF1CC7010E94C62B8C01892B18
:103CE00089F249825A826B827C82C7010F2C000CB8
:103CF000AA0BBB0B8D839E83AF83B8879E012F5E7B
:103D00003F4FAE014F5F5F4F68E070E080910A0562
:103D100090910B050E9431168111B6CF89899A893D
:103D2000089709F0B1CFD6011296ED91FC91408130
:103D3000518162817381D8014D935D936D937C9322
:103D40001397448155816681778114964D935D93D5
:103D50006D937C931797408551856285738518967E
:103D60004D935D936D937C931B9784859585A68574
:103D7000B785F80184879587A687B787108A118A47
:103D8000128A138A84E090E0A0E0B0E0848B958BE7
:103D9000A68BB78B8091BC029091BD02B0E0A0E0F1
:103DA000808F918FA28FB38FC5010B2C000CAA0BB3
:103DB000BB0B848F958FA68FB78FF401D801909697
:103DC00090E080E08A159B055CF19E012F5E3F4FDD
:103DD000A801B70180910A0590910B050E94311648
:103DE000811152CF89899A89E816F90609F04CCFDA
:103DF000A70170E060E0C80175D28B8B9E012F5E39
:103E00003F4FAE014D5E5F4F61E070E080910A056B
:103E100090910B050E94311681E080930D0534CFFF
:103E20004191519170E060E04D935D936D937D936E
:103E30000196C8CF8D859E85AF85B8890097A1056D
:103E4000B10521F481E080930C0504CE0E94011796
:103E5000009781F481E090E0A0E0B0E089839A834C
:103E6000AB83BC83AE014F5F5F4F64E070E082E1E3
:103E700090E0AECEBC01C6010E945F0919821A8291
:103E80001B821C82AE014F5F5F4F64E070E082E1F5
:103E900090E0D9D98823B1F2DDCDD6011496ED9109
:103EA000FC910190F081E02DE084F1848FEF898313
:103EB000E114F10409F472C0D7016D907C90C280C6
:103EC000D38070E060E090E080E08615970594F084
:103ED00083E190E00E94871610E000E08111BACDE6
:103EE000061517055CF161E070E0CE0101960E94B5
:103EF000BE16B0CD9C0143E0220F331F4A95E1F777
:103F0000F701A281B381A20FB31F1296ED91FC912C
:103F10001397EE0FFF1FEC0DFD1D0190F081E02DBA
:103F200016964D915C91E49F9001E59F300DF49FB2
:103F3000300D1124620F731F0196C7CFD70112965F
:103F4000ED91FC91C80123E0880F991F2A95E1F7B4
:103F5000E80FF91FA080B180A281B381AA0FBB1F17
:103F6000AC0DBD1D2D913C9186819781289F40010C
:103F7000299F900C389F900C1124B401C5010E9418
:103F8000BE16582E940150E040E06981C50196D1DB
:103F9000898351105FCD0F5F1F4FA2CF70E060E0AB
:103FA00083E190E00E94871655CD50E040E070E03C
:103FB00060E081E190E047D981114CCD60E070E094
:103FC000CB010E942A0B8091F004882329F0A801DC
:103FD00060E070E0CB0118DAA80160E070E0CB018E
:103FE0000E94310A61E070E080E090E00E942A0BBC
:103FF0008091F004882331F0A80161E070E080E056
:1040000090E002DAA80161E070E080E090E00E94B8
:10401000310A10920E0510920D0510921A05109299
:10402000190580910A0590910B050E947F1612CD0B
:1040300081E090E09093F2048093F10450E040E03E
:1040400070E060E086E190E0C3CD81E0F50180831F
:1040500001CD8D859E850E9401172FEF3FEFA901AD
:1040600061E070E0009769F0DC01CD90DD90ED90AB
:10407000FC90C701B6010E94E50EA701960170E011
:1040800060E08EE190E0C0CDC8010E94E216E2CC73
:10409000CF92DF92EF92FF92CF93DF93EC01C12C8E
:1040A000D12C7601C701B6010E942A0BAE01C701CF
:1040B000B601AAD9AE01C701B6010E94310A8091AA
:1040C000060590910705009731F00E94622C10922E
:1040D000070510920605CA94CD28CE28CF2879F579
:1040E00080910D05F12C882351F050E040E070E004
:1040F00060E084E190E0A7D8F82E10920D05809141
:104100000E05882341F010920E0581E090E0909317
:10411000BD028093BC0280910A0590910B050E941C
:10412000821680910A0590910B050E9477168F2DBB
:10413000DF91CF91FF90EF90DF90CF900895C12C49
:10414000D12C7601C394AECFCF93DF93EC01AC01B9
:1041500060E070E0CB010E941A13AE0161E070E0F4
:1041600080E090E0DF91CF910C941A1360E070E052
:10417000CB010E94871361E070E080E090E00C9436
:104180008713CF92DF92EF92FF920F931F93CF93FB
:10419000DF93EC016A017B0100E010E098010E94CE
:1041A000350F01E010E020E030E0B701A601CE01BC
:1041B0000E94350FDF91CF911F910F91FF90EF90EB
:1041C000DF90CF90089568EE73E080E090E034D502
:1041D00090E080E0089526E040E050E16EE070E07D
:1041E00088E295E082D788E295E0B5D6892B21F068
:1041F00088E295E0CAD6F7CF90E080E00895CF92AC
:10420000DF92EF92FF920F931F93CF93DF936B0197
:104210007A01E9011982188288E295E09CD6892BFF
:1042200071F18601CC24C39485E6D82E80911B05BC
:10423000811111C088E295E0A8D685369105B1F7C5
:10424000C0921B05F801D1928F0188819981019656
:1042500099838883EBCF888199818E159F0578F4A7
:1042600088E295E092D68F3F9807A9F3F8018193F1
:104270008F0188819981019699838883ECCF90E0A2
:1042800080E0DF91CF911F910F91FF90EF90DF9031
:10429000CF9008950F931F93CF93DF93EA01890185
:1042A00088E295E00E94052BF801D183C08390E05D
:1042B00080E0DF91CF911F910F910895DC01A40F51
:1042C000B51F420F531F9D01281B390B24173507BB
:1042D00010F0862F0895ED91E627F0E0EC51FF4FA6
:1042E0006491F1CF9A01AB016FEFE8CFCF93FC015E
:1042F000E60FF71FE40FF51FC081F4DF91E0C8134C
:1043000090E0892FCF91089580911C0591E0980F3E
:1043100090931C05882349F021E030E030931E057E
:1043200020931D0580931C05089578940E945106E2
:10433000F89480911C05815080931C050C94041501
:10434000FF920F931F93CF93DF931F92CDB7DEB7EA
:104350001092F0071092EF07A5D40E945715009114
:10436000F7021091F802F8011182108270E060E00B
:1043700090E080E00E940C150E9436077894C801F6
:1043800082960E940B1581E090E00E940815198228
:10439000AE014F5F5F4F61E070E0F8018281938171
:1043A0000E94B8148981882319F081E0F80186A35E
:1043B0000E941115F8940E94AA15F801808191813C
:1043C000892B19F481E096A1911180E08093EF0789
:1043D00078947894FF24F3948091EF07811110C0B2
:1043E0000E94D90781E090E00E940915F89490E0BE
:1043F00080E00F90DF91CF911F910F91FF90089572
:104400001982AE014F5F5F4F61E070E0F801828179
:1044100093810E94F0148981882311F0F801F6A29B
:10442000F80180819181892B89F481E096A1911115
:1044300001C080E08093F0079091F00781E0911136
:1044400080E08093EF070E94C915C6CF81E0F2CFCC
:104450005058BB27AA270ED00DC1FED030F003D193
:1044600020F031F49F3F11F41EF4F3C00EF4E095F8
:10447000E7FBE9C0E92F0FD180F3BA176207730792
:104480008407950718F071F49EF527C10EF4E095A6
:104490000B2EBA2FA02D0B01B90190010C01CA01FE
:1044A000A0011124FF27591B99F0593F50F4503EA9
:1044B00068F11A16F040A22F232F342F4427585F9B
:1044C000F3CF469537952795A795F0405395C9F7B3
:1044D0007EF41F16BA0B620B730B840BBAF091506B
:1044E000A1F0FF0FBB1F661F771F881FC2F70EC00A
:1044F000BA0F621F731F841F48F4879577956795DD
:10450000B795F7959E3F08F0B3CF9395880F08F0C5
:104510009927EE0F97958795089571D008F481E05B
:10452000089504D06894B111D9C00895BCD088F022
:104530009F5790F0B92F9927B751A0F0D1F0660F8F
:10454000771F881F991F1AF0BA95C9F712C0B130AA
:1045500081F0C3D0B1E00895C0C0672F782F8827BD
:10456000B85F39F0B93FCCF3869577956795B395E9
:10457000D9F73EF490958095709561957F4F8F4F58
:104580009F4F0895E89409C097FB3EF4909580955D
:10459000709561957F4F8F4F9F4F9923A9F0F92F09
:1045A00096E9BB279395F695879577956795B79587
:1045B000F111F8CFFAF4BB0F11F460FF1BC06F5F6D
:1045C0007F4F8F4F9F4F16C0882311F096E911C07F
:1045D000772321F09EE8872F762F05C0662371F0A0
:1045E00096E8862F70E060E02AF09A95660F771FB4
:1045F000881FDAF7880F9695879597F90895990F90
:104600000008550FAA0BE0E8FEEF16161706E8079C
:10461000F907C0F012161306E407F50798F0621BBD
:10462000730B840B950B39F40A2661F0232B242B92
:10463000252B21F408950A2609F4A140A6958FEFB1
:10464000811D811D089597F99F6780E870E060E003
:1046500008959FEF80EC089500240A94161617061B
:1046600018060906089500240A9412161306140663
:1046700005060895092E0394000C11F4882352F0C6
:10468000BB0F40F4BF2B11F460FF04C06F5F7F4F7E
:104690008F4F9F4F089557FD9058440F551F59F065
:1046A0005F3F71F04795880F97FB991F61F09F3F1F
:1046B00079F087950895121613061406551FF2CF48
:1046C0004695F1DF08C0161617061806991FF1CF98
:1046D00086957105610508940895E894BB276627BF
:1046E0007727CB0197F908958ADF08F48FEF0895B3
:1046F0000BD0C0CFB1DF28F0B6DF18F0952309F05A
:10470000A2CFA7CF1124EACFC6DFA0F3959FD1F3A4
:10471000950F50E0551F629FF001729FBB27F00D6F
:10472000B11D639FAA27F00DB11DAA1F649F6627C4
:10473000B00DA11D661F829F2227B00DA11D621F13
:10474000739FB00DA11D621F839FA00D611D221FCD
:10475000749F3327A00D611D231F849F600D211DB1
:10476000822F762F6A2F11249F5750408AF0E1F054
:1047700088234AF0EE0FFF1FBB1F661F771F881F9D
:1047800091505040A9F79E3F510570F05CCFA6CFE5
:104790005F3FECF3983EDCF3869577956795B79588
:1047A000F795E7959F5FC1F7FE2B880F911D9695B2
:1047B000879597F908950895883008F075C0E82F17
:1047C000F0E0EE0FFF1FE254FD4F718360838150D4
:1047D000873008F03CC0E82FF0E08827EE50FC4D11
:1047E0008F4F85C72F24F92301240D241A243B243D
:1047F0004824809169008C7F482B40936900E89A97
:10480000089580916900837F440F551F440F551F01
:10481000482B40936900E99A0895809169008F7C44
:1048200074E0440F551F7A95E1F7482B40936900D7
:10483000EA9A0895809169008F7366E0440F551FCE
:104840006A95E1F7482B40936900EB9A08958091AF
:104850006A008C7F482B40936A00EC9A08958091FF
:104860006A00837F440F551F440F551F482B409308
:104870006A00ED9A089580916A008F7C24E0440FCD
:10488000551F2A95E1F7482B40936A00EE9A089548
:1048900080916A008F7396E0440F551F9A95E1F757
:1048A000482B40936A00EF9A08951F920F920FB61B
:1048B0000F9211240BB60F922F933F934F935F9358
:1048C0006F937F938F939F93AF93BF93EF93FF93D8
:1048D000E091C202F091C3021995FF91EF91BF914F
:1048E000AF919F918F917F916F915F914F913F9188
:1048F0002F910F900BBE0F900FBE0F901F90189529
:104900001F920F920FB60F9211240BB60F922F9396
:104910003F934F935F936F937F938F939F93AF9347
:10492000BF93EF93FF93E091C402F091C5021995F4
:10493000FF91EF91BF91AF919F918F917F916F9177
:104940005F914F913F912F910F900BBE0F900FBE33
:104950000F901F9018951F920F920FB60F9211246F
:104960000BB60F922F933F934F935F936F937F9369
:104970008F939F93AF93BF93EF93FF93E091C60202
:10498000F091C7021995FF91EF91BF91AF919F915F
:104990008F917F916F915F914F913F912F910F90E8
:1049A0000BBE0F900FBE0F901F9018951F920F9285
:1049B0000FB60F9211240BB60F922F933F934F9384
:1049C0005F936F937F938F939F93AF93BF93EF9377
:1049D000FF93E091C802F091C9021995FF91EF9100
:1049E000BF91AF919F918F917F916F915F914F9107
:1049F0003F912F910F900BBE0F900FBE0F901F9005
:104A000018951F920F920FB60F9211240BB60F92AA
:104A10002F933F934F935F936F937F938F939F93C6
:104A2000AF93BF93EF93FF93E091BE02F091BF026B
:104A30001995FF91EF91BF91AF919F918F917F91C8
:104A40006F915F914F913F912F910F900BBE0F90FF
:104A50000FBE0F901F9018951F920F920FB60F92D6
:104A600011240BB60F922F933F934F935F936F9345
:104A70007F938F939F93AF93BF93EF93FF93E091B7
:104A8000C002F091C1021995FF91EF91BF91AF91D2
:104A90009F918F917F916F915F914F913F912F9156
:104AA0000F900BBE0F900FBE0F901F9018951F9286
:104AB0000F920FB60F9211240BB60F922F933F93C4
:104AC0004F935F936F937F938F939F93AF93BF9316
:104AD000EF93FF93E091CA02F091CB021995FF91F9
:104AE000EF91BF91AF919F918F917F916F915F9166
:104AF0004F913F912F910F900BBE0F900FBE0F90D3
:104B00001F9018951F920F920FB60F9211240BB69B
:104B10000F922F933F934F935F936F937F938F9356
:104B20009F93AF93BF93EF93FF93E091CC02F091EB
:104B3000CD021995FF91EF91BF91AF919F918F9108
:104B40007F916F915F914F913F912F910F900BBE8D
:104B50000F900FBE0F901F9018951F920F920FB6D7
:104B60000F9211242F933F938F939F93AF93BF93F3
:104B70008091200590912105A0912205B0912305F7
:104B800030911F0523E0230F2D3758F50196A11D05
:104B9000B11D20931F058093200590932105A093BC
:104BA0002205B09323058091240590912505A091BD
:104BB0002605B09127050196A11DB11D80932405FE
:104BC00090932505A0932605B0932705BF91AF913B
:104BD0009F918F913F912F910F900FBE0F901F903B
:104BE000189526E8230F0296A11DB11DD2CF3FB71D
:104BF000F8948091240590912505A0912605B09107
:104C0000270526B5A89B05C02F3F19F00196A11DC9
:104C1000B11D3FBFBA2FA92F982F8827BC01CD0106
:104C2000620F711D811D911D42E0660F771F881F65
:104C3000991F4A95D1F708958F929F92AF92BF9294
:104C4000CF92DF92EF92FF926B017C01D0DF4B019C
:104C50005C01C114D104E104F104D9F003D5C7DF2C
:104C6000681979098A099B09683E73408105910595
:104C700080F321E0C21AD108E108F10888EE880E1D
:104C800083E0981EA11CB11CC114D104E104F104FD
:104C900031F7FF90EF90DF90CF90BF90AF909F9053
:104CA0008F900895789484B5826084BD84B58160C6
:104CB00084BD85B5826085BD85B5816085BDEEE624
:104CC000F0E0808181608083E1E8F0E01082808103
:104CD00082608083808181608083E0E8F0E0808171
:104CE00081608083E1EBF0E0808184608083E0EB91
:104CF000F0E0808181608083E1E9F0E08081826082
:104D00008083808181608083E0E9F0E08081816040
:104D10008083E1EAF0E0808182608083808181602D
:104D20008083E0EAF0E0808181608083E1E2F1E06D
:104D3000808182608083808181608083E0E2F1E015
:104D4000808181608083EAE7F0E0808184608083F5
:104D5000808182608083808181608083808180689F
:104D600080831092C10008958150823108F059C0AB
:104D7000E82FF0E08827E154F94D8F4FB8C4DF26C3
:104D8000E326D126D726DB261127E626EC26F026B9
:104D9000F626FA26FE260427082711270C271227B5
:104DA0001627809180008F778093800008958091EE
:104DB00080008F7DF9CF80918000877FF5CF84B50B
:104DC0008F7784BD089584B58F7DFBCF8091B0002F
:104DD0008F778093B00008958091B0008F7DF9CFD8
:104DE000809190008F77809390000895809190003B
:104DF0008F7DF9CF80919000877FF5CF8091A000C3
:104E00008F778093A00008958091A0008F7DF9CFC7
:104E10008091A000877FF5CF809120018F778093CC
:104E200020010895809120018F7DF9CF809120018C
:104E3000877FF5CFCF93DF9390E0FC01E65DFD4FD8
:104E4000249180599D4FFC0184918823C9F090E002
:104E5000880F991FFC01E651FD4FA591B491FC010B
:104E6000E053FD4FC591D49161110DC09FB7F894E7
:104E70008C91209582238C938881282328839FBF3F
:104E8000DF91CF910895623051F49FB7F8943C912F
:104E9000822F809583238C93E8812E2BEFCF8FB7C1
:104EA000F894EC912E2B2C938FBFEACF1F93CF93C6
:104EB000DF93282F30E0F901EC51FE4F8491F90186
:104EC000E65DFD4FD491F901E059FD4FC491CC232B
:104ED000A1F0162F811148DFEC2FF0E0EE0FFF1F3D
:104EE000E053FD4FA591B4918FB7F894EC91111157
:104EF00008C0D095DE23DC938FBFDF91CF911F9147
:104F00000895DE2BF8CFCF93DF93282F30E0F901FF
:104F1000EC51FE4F8491F901E65DFD4FD491F9010A
:104F2000E059FD4FC491CC2399F081111DDFEC2F86
:104F3000F0E0EE0FFF1FEA54FD4FA591B491EC9104
:104F4000ED2381E090E009F480E0DF91CF910895B6
:104F500080E090E0FACFFC01918D228D892F90E0C6
:104F6000805C9F4F821B91098F7399270895FC01E4
:104F7000918D828D981731F0828DE80FF11D858D0E
:104F800090E008958FEF9FEF0895FC01918D828D41
:104F9000981761F0A28DAE0FBF2FB11D5D968C9159
:104FA000928D9F5F9F73928F90E008958FEF9FEF98
:104FB0000895FC01538D448D252F30E0842F90E01F
:104FC000821B930B541710F0CF9608950197089504
:104FD000FC01A48DA80FB92FB11DA35ABF4F2C916E
:104FE000848D90E001968F739927848FA689B78965
:104FF0002C93A089B1898C91837080648C93938D5C
:10500000848D981306C00288F389E02D80818F7DFE
:1050100080830895CF93DF93EC01888D8823B1F0CE
:10502000AA89BB89E889F9898C9185FD03C08081B3
:1050300086FD0CC00FB607FCF7CF8C9185FFF2CF31
:10504000808185FFEDCFCE01C3DFEACFDF91CF9125
:105050000895EF92FF920F931F93CF93DF93EC018C
:1050600081E0888F9B8D8C8D98131AC0E889F9890F
:10507000808185FF15C09FB7F894EE89FF89608312
:10508000E889F98980818370806480839FBF81E093
:1050900090E0DF91CF911F910F91FF90EF900895D5
:1050A000F62E0B8D10E00F5F1F4F0F731127E02EB0
:1050B0008C8D8E110BC00FB607FCFACFE889F989E9
:1050C000808185FFF5CFCE0183DFF2CFEB8DEC0F32
:1050D000FD2FF11DE35AFF4FF0829FB7F8940B8F1D
:1050E000EA89FB8980818062D0CFCF92DF92EF92F4
:1050F000FF921F93CF93DF93EC016A017B01122F84
:10510000E889F98982E08083C11481EED806E10440
:10511000F10499F060E079E08DE390E0A701960159
:10512000C4D2215031094109510956954795379507
:105130002795211580E1380790F0E889F9891082D8
:1051400060E874E88EE190E0A7019601AED22150AC
:105150003109410951095695479537952795EC85B1
:10516000FD853083EE85FF852083188EEC89FD89CF
:105170001083EA89FB89808180618083EA89FB89C9
:10518000808188608083EA89FB8980818068808350
:10519000EA89FB8980818F7D8083DF91CF911F9188
:1051A000FF90EF90DF90CF9008951F920F920FB66F
:1051B0000F9211240BB60F922F938F939F93EF931F
:1051C000FF93E0913805F09139058081E0913E052B
:1051D000F0913F0582FD1DC09081809141058F5F58
:1051E0008F7320914205821741F0E0914105F0E074
:1051F000E85DFA4F958F80934105FF91EF919F9164
:105200008F912F910F900BBE0F900FBE0F901F909C
:1052100018958081F2CF1F920F920FB60F92112432
:105220000BB60F922F933F934F935F936F937F93A0
:105230008F939F93AF93BF93EF93FF9388E295E093
:10524000C7DEFF91EF91BF91AF919F918F917F91B9
:105250006F915F914F913F912F910F900BBE0F90E7
:105260000FBE0F901F901895E8E2F5E013821282AE
:1052700088EE93E0A0E0B0E084839583A683B783B3
:105280008EE194E09183808385EC90E0958784871C
:1052900084EC90E09787868780EC90E0918B808B00
:1052A00081EC90E0938B828B82EC90E0958B848BE9
:1052B00086EC90E0978B868B118E128E138E148E57
:1052C00008951F920F920FB60F9211240BB60F92F2
:1052D0002F938F939F93EF93FF93E091D505F091D8
:1052E000D6058081E091DB05F091DC0582FD1DC0D3
:1052F00090818091DE058F5F8F732091DF0582178B
:1053000041F0E091DE05F0E0EB53FA4F958F80938A
:10531000DE05FF91EF919F918F912F910F900BBE22
:105320000F900FBE0F901F9018958081F2CF1F92A3
:105330000F920FB60F9211240BB60F922F933F933B
:105340004F935F936F937F938F939F93AF93BF938D
:10535000EF93FF9385EC95E03BDEFF91EF91BF91DA
:10536000AF919F918F917F916F915F914F913F91FD
:105370002F910F900BBE0F900FBE0F901F9018959E
:10538000E5ECF5E01382128288EE93E0A0E0B0E055
:1053900084839583A683B7838EE194E09183808391
:1053A0008DEC90E0958784878CEC90E097878687DA
:1053B00088EC90E0918B808B89EC90E0938B828BD2
:1053C0008AEC90E0958B848B8EEC90E0978B868BAB
:1053D000118E128E138E148E08951F920F920FB697
:1053E0000F9211240BB60F922F938F939F93EF93ED
:1053F000FF93E0917206F09173068081E091780648
:10540000F091790682FD1DC0908180917B068F5FAF
:105410008F7320917C06821741F0E0917B06F0E0CB
:10542000EE59F94F958F80937B06FF91EF919F91F5
:105430008F912F910F900BBE0F900FBE0F901F906A
:1054400018958081F2CF1F920F920FB60F92112400
:105450000BB60F922F933F934F935F936F937F936E
:105460008F939F93AF93BF93EF93FF9382E696E062
:10547000AFDDFF91EF91BF91AF919F918F917F91A0
:105480006F915F914F913F912F910F900BBE0F90B5
:105490000FBE0F901F901895E2E6F6E0138212827D
:1054A00088EE93E0A0E0B0E084839583A683B78381
:1054B0008EE194E09183808385ED90E095878487E9
:1054C00084ED90E09787868780ED90E0918B808BCC
:1054D00081ED90E0938B828B82ED90E0958B848BB5
:1054E00086ED90E0978B868B118E128E138E148E24
:1054F00008951F920F920FB60F9211240BB60F92C0
:105500002F938F939F93EF93FF93E0910F07F09169
:1055100010078081E0911507F091160782FD1DC0EC
:105520009081809118078F5F8F73209119078217E0
:1055300041F0E0911807F0E0E150F94F958F80932A
:105540001807FF91EF919F918F912F910F900BBEB4
:105550000F900FBE0F901F9018958081F2CF1F9271
:105560000F920FB60F9211240BB60F922F933F9309
:105570004F935F936F937F938F939F93AF93BF935B
:10558000EF93FF938FEF96E023DDFF91EF91BF91B3
:10559000AF919F918F917F916F915F914F913F91CB
:1055A0002F910F900BBE0F900FBE0F901F9018956C
:1055B000EFEFF6E01382128288EE93E0A0E0B0E015
:1055C00084839583A683B7838EE194E0918380835F
:1055D00085E391E09587848784E391E097878687C8
:1055E00080E391E0918B808B81E391E0938B828BC0
:1055F00082E391E0958B848B86E391E0978B868B99
:10560000118E128E138E148E0895AF92BF92CF9288
:10561000DF92EF92FF920F931F93CF93DF936C0172
:105620007B018B01040F151FEB015E01AE18BF0853
:10563000C017D10759F06991D601ED91FC91019005
:10564000F081E02DC6011995892B79F7C501DF910D
:10565000CF911F910F91FF90EF90DF90CF90BF906F
:10566000AF9008950895DB018F939F9348D0BF9129
:10567000AF91A29F800D911DA39F900DB29F900DA1
:105680001124089597FB072E16F4009406D077FD99
:1056900008D03FD007FC05D03EF4909581959F4FF0
:1056A0000895709561957F4F0895A1E21A2EAA1B67
:1056B000BB1BFD010DC0AA1FBB1FEE1FFF1FA217C2
:1056C000B307E407F50720F0A21BB30BE40BF50BBF
:1056D000661F771F881F991F1A9469F76095709548
:1056E000809590959B01AC01BD01CF010895EE0F0F
:1056F000FF1F881F8BBF0790F691E02D19941DD0D6
:10570000A59F900DB49F900DA49F800D911D112415
:105710000895AA1BBB1B51E107C0AA1FBB1FA617F8
:10572000B70710F0A61BB70B881F991F5A95A9F74A
:1057300080959095BC01CD010895A29FB001B39FC3
:10574000C001A39F700D811D1124911DB29F700D8A
:10575000811D1124911D08950F931F93CF93DF9303
:10576000869F8001879F100D969F100D1124C80100
:105770000DD0EC01009721F0A80170E060E034D179
:10578000CE01DF91CF911F910F9108950F931F9339
:10579000CF93DF938230910510F482E090E0E091A6
:1057A000F307F091F40730E020E0B0E0A0E030979C
:1057B00099F42115310509F44AC0281B390B24300E
:1057C0003105D8F58A819B816115710589F1FB014D
:1057D00093838283FE0111C0408151810281138134
:1057E00048175907E0F04817590799F4109761F0E6
:1057F00012960C93129713961C933296CF01DF9159
:10580000CF911F910F9108950093F3071093F40720
:10581000F4CF2115310551F04217530738F0A90193
:10582000DB019A01BD01DF01F801C1CFEF01F9CF22
:105830009093F4078093F307CDCFFE01E20FF31F9F
:10584000819391932250310939832883D7CF2091B6
:10585000F1073091F207232B41F42091020230919D
:1058600003023093F2072093F10720910002309158
:1058700001022115310541F42DB73EB740910402D4
:1058800050910502241B350BE091F107F091F207CE
:10589000E217F307A0F42E1B3F0B2817390778F007
:1058A000AC014E5F5F4F2417350748F04E0F5F1F66
:1058B0005093F2074093F107819391939FCFF0E0CB
:1058C000E0E09CCFCF93DF930097E9F0FC013297A3
:1058D00013821282A091F307B091F407ED0130E03A
:1058E00020E01097A1F420813181820F931F209135
:1058F000F1073091F2072817390709F061C0F093DA
:10590000F207E093F107DF91CF910895EA01CE17F6
:10591000DF07E8F54A815B819E0141155105B1F72A
:10592000E901FB83EA8349915991C40FD51FEC1714
:10593000FD0761F4808191810296840F951FE90132
:1059400099838883828193819B838A83F0E0E0E05E
:1059500012968D919C9113970097B9F52D913C91DA
:105960001197CD010296820F931F2091F10730917C
:10597000F2072817390739F6309751F51092F407D6
:105980001092F307B093F207A093F107BCCFD38333
:10599000C28340815181840F951FC817D90761F4D4
:1059A0004E5F5F4F88819981480F591F5183408313
:1059B0008A819B81938382832115310509F0B0CFC1
:1059C000F093F407E093F3079ECFFD01DC01C0CF15
:1059D00013821282D7CFFB01DC0102C001900D922D
:1059E00041505040D8F70895DC0101C06D934150FB
:1059F0005040E0F70895FB01DC018D910190801982
:0C5A00000110D9F3990B0895F894FFCF22
:105A0C000000F507800002000A02B202000000004C
:105A1C000100B6020E000000010003001E02CF07B9
:105A2C000F0000000100C307100000000100CD07AB
:105A3C000B0000000100F90200030A030903120322
:105A4C0011031B031A0323032D0338033E034803DE
:105A5C0051031B03860365038603850390038F03A1
:105A6C009A039903A503A403B003AF03BB03BA03C2
:105A7C00C603C5030400040001000100020002007B
:105A8C0004000400010004000200020004000800ED
:105A9C00040008000A00080008000C000C001000AC
:105AAC00100014001400180018001C001C0020002A
:105ABC0020000AD7233C0000004001010100DB2339
:105ACC00DB23DB23DB23DB23DB23DB23DB230001D7
