:1000000005C100000C945F380C948A380C94B53804
:100010000C94E0380C940B390C9436390C946139FB
:100020000C948C3924C1000022C1000020C10000C2
:100030001EC100001CC100001AC1000018C1000050
:1000400016C1000014C1000012C1000010C1000060
:100050000EC100000CC100000AC100000C94B739A9
:1000600006C100000C94B33D0C94E93D00C10000B2
:10007000FEC00000FCC00000FAC00000F8C0000094
:10008000F6C00000F4C00000F2C00000F0C00000A4
:100090000C943F3E0C94753EEAC00000E8C000009E
:1000A000E6C00000E4C00000E2C00000E0C00000C4
:1000B000DEC00000DCC00000DAC00000D8C00000D4
:1000C000D6C00000D4C000000C94FE320C94CB3E8D
:1000D0000C94013FCCC000000C94573F0C948D3F12
:1000E000C6C0000000000A0B02090C0D0E08070331
:1000F00004010000000000000000000000000000FB
:1001000000000000000000000000000000000000EF
:1001100012111000000000000000000000000000AC
:100120000000000000000000000001021020200874
:100130000810204010204080020102010804020142
:1001400001020408102040808040201008040201B1
:10015000800402018040201008040201080402010A
:100160000102040810204080010204081020408091
:1001700005050505070508080808020202020A0A23
:100180000808040404040101010101010101030341
:10019000030303030303040707070C0C0C0C0C0CEC
:1001A0000C0C0202020206060606060606060B0BE9
:1001B0000B0B0B0B0B0B000020002300260029006B
:1001C0002C002F003200000100000301060109018C
:1001D00000002200250028002B002E0031003400F2
:1001E00002010000050108010B01000021002400AC
:1001F00027002A002D003000330001010000040117
:1002000007010A01123E9E3E2A3FB63F11241FBE3F
:10021000CFEFD1E2DEBFCDBF00E00CBF13E0A0E026
:10022000B2E0E4EFF0E800E00BBF02C007900D92EF
:10023000AC3EB107D9F72AE0ACEEB3E001C01D92A5
:10024000A43EB207E1F711E0C6E0D1E000E006C04D
:1002500021970109802FFE010E944740C230D1073B
:1002600080E00807A9F70E948D340C947840C8CE2E
:10027000611102C00C94F83B6130E1F362E0FACF07
:10028000662319F061E00C94343C60E0FCCFCF931E
:10029000DF93EC0170E060E06C177D070CF5072E32
:1002A000000C880B990B0E942C3620E030E0A9014D
:1002B0000E94163520E030E0A9010E94163520E0AA
:1002C00030E040E450E40E94163520E030E040E4A5
:1002D00050E40E9415350E94F9356F5F7F4FDCCFE7
:1002E000DF91CF910895CF93DF938091FC0390919C
:1002F000FD030E94613CEC01809102049091030493
:10030000C6DF8091FE039091FF030E94613C01973C
:1003100071F48091000490910104219771F4019689
:100320009093010480930004DF91CF910895809110
:10033000000490910104CD2B91F30197F1CFCF935D
:10034000DF938091F4039091F5030E94613CEC01EE
:100350008091FA039091FB039ADF8091F6039091CC
:10036000F7030E94613C019771F48091F80390912A
:10037000F903219771F401969093F9038093F803A0
:10038000DF91CF9108958091F8039091F903CD2BDF
:1003900091F30197F1CFCF93DF938091EC0390918C
:1003A000ED030E94613CEC018091F2039091F30314
:1003B0006EDF8091EE039091EF030E94613C019704
:1003C00071F48091F0039091F103219771F40196FB
:1003D0009093F1038093F003DF91CF910895809182
:1003E000F0039091F103CD2B91F30197F1CFCF93CF
:1003F000DF938091F6039091F7030E94613CEC013A
:100400008091FA039091FB0342DF8091F403909175
:10041000F5030E94613C019771F48091F80390917B
:10042000F903CD2B71F401969093F9038093F803AF
:10043000DF91CF9108958091F8039091F90321976E
:1004400091F30197F1CFCF93DF938091EE039091D9
:10045000EF030E94613CEC018091F2039091F30361
:1004600016DF8091EC039091ED030E94613C0197AF
:1004700071F48091F0039091F103CD2B71F401960A
:100480009093F1038093F003DF91CF9108958091D1
:10049000F0039091F103219791F30197F1CFCF935E
:1004A000DF938091FE039091FF030E94613CEC0179
:1004B0008091020490910304EADE8091FC03909104
:1004C000FD030E94613C019771F4809100049091BA
:1004D0000104CD2B71F401969093010480930004E4
:1004E000DF91CF91089580910004909101042197AC
:1004F00091F30197F1CF0F931F93CF93DF938C016B
:10050000EC0183E0CC0FDD1F8A95E1F7C451DC4F8D
:10051000798368835B834A838881998160E00E9444
:10052000F83B8A819B8160E00E94F83B8881998139
:1005300061E00E94343C8A819B8161E00E94343CEE
:1005400001301105D9F10230110509F466C0012B03
:1005500009F092C08091EC039091ED0302978431F1
:10056000910530F58B5B9C4FFC018081082E000CBF
:10057000990B41E050E063E272E00E94E537809120
:10058000EE039091EF03029784319105A0F48B5B09
:100590009C4FFC018081082E000C990B41E050E03B
:1005A0006BEC71E0DF91CF911F910F910C94E537C7
:1005B0008FEF9FEFDECF8FEF9FEFF0CF8091F403AF
:1005C0009091F50302978431910508F58B5B9C4F60
:1005D000FC018081082E000C990B41E050E067EF90
:1005E00071E00E94E5378091F6039091F70302973E
:1005F0008431910578F48B5B9C4FFC018081082E3F
:10060000000C990B41E050E06FE971E0CBCF8FEF28
:100610009FEFE3CF8FEF9FEFF5CF8091FC03909199
:10062000FD0302978431910508F58B5B9C4FFC011B
:100630008081082E000C990B41E050E06FE472E0DD
:100640000E94E5378091FE039091FF030297843169
:10065000910578F48B5B9C4FFC018081082E000C87
:10066000990B41E050E063E771E09CCF8FEF9FEF83
:10067000E3CF8FEF9FEFF5CFDF91CF911F910F91D8
:10068000089523E0880F991F2A95E1F7FC01E451B2
:10069000FC4F848195810895CF92DF92EF92FF9273
:1006A000CF93882351F16A017B01CFEFC80F20E07F
:1006B00030E0A901CB01B6010E948D3518168CF0EF
:1006C000C701B60190580E94FE359B01AC016C2F0A
:1006D00070E090E080E0CF91FF90EF90DF90CF90BE
:1006E000B2C0C701B6010E94F9358C2FCF91FF909F
:1006F000EF90DF90CF900C94BE3ACF91FF90EF90A7
:10070000DF90CF9008950F931F938B019C0183E09E
:1007100036952795179507958A95D1F70C5F1B4F4E
:10072000462F477021E030E0F90102C0EE0FFF1FB5
:100730004A95E2F7AF01F80120812423CB0101960D
:10074000211102C090E080E01F910F9108950F9356
:100750001F938B019C0183E036952795179507958C
:100760008A95D1F7677081E090E001C0880F6A95A3
:10077000EAF7F801EC5FFB4F2081452B31F48095BF
:10078000822380831F910F910895822BFACF2F929D
:100790003F924F925F926F927F928F929F92AF9211
:1007A000BF92CF92DF92EF92FF920F931F93CF935E
:1007B000DF93D62EC72E782E692E49015A012801C3
:1007C00061E08D2D0E94F83BCD2DDC2D8E010F5F59
:1007D0001F4FA8016D2D7C2D872D962DB8DF20E0B1
:1007E00030E0A901C201B7010E947D37181664F4F8
:1007F000C201B7010E94FE352B01C501B4010E9460
:10080000FE35A201CE0123D0C801DF91CF911F9107
:100810000F91FF90EF90DF90CF90BF90AF909F909F
:100820008F907F906F905F904F903F902F900895A2
:10083000882341F08150682F70E090E080E050E024
:1008400040E085CF0895862FB9010C94BE3A9C01F3
:10085000FC01EC51FF4FE491E150E231E0F4F0E0B3
:100860008827EA5CFB4F8F4F0C94474048044F04A5
:10087000520469047E044B0493049F04A304BA0445
:10088000CF04E404FB0410054B0425053C05510589
:1008900084B5806884BD60E0822F0C94343C84B5BC
:1008A0008062F8CF809180008C7F8260809380008E
:1008B00080918100807E8061682B609381005093DD
:1008C000870040938600809180008068809380003C
:1008D000E2CF809180008C7F826080938000809145
:1008E0008100807E8061682B609381005093870037
:1008F00040938600809180008062E8CF80918000E4
:100900008C7F82608093800080918100807E8061F6
:10091000682B6093810050938700409386008091FC
:1009200080008860D3CF8091B00080688093B00051
:100930008091B100887F682B6093B100ACCF80912B
:10094000B0008062F3CF809190008C7F82608093B2
:10095000900080919100807E8061682B609391006F
:100960005093970040939600809190008068809308
:10097000900091CF809190008C7F82608093900056
:1009800080919100807E8061682B609391005093EC
:10099000970040939600809190008062E8CF80910C
:1009A00090008C7F82608093900080919100807E87
:1009B0008061682B6093910050939700409396005C
:1009C000809190008860D3CF8091A0008C7F82605E
:1009D0008093A0008091A100807E8061682B60934D
:1009E000A1005093A7004093A6008091A0008068CA
:1009F0008093A00050CF8091A0008C7F8260809374
:100A0000A0008091A100807E8061682B6093A1008E
:100A10005093A7004093A6008091A0008062E8CF89
:100A20008091A0008C7F82608093A0008091A100C3
:100A3000807E8061682B6093A1005093A700409353
:100A4000A6008091A0008860D3CF809120018C7F88
:100A500082608093200180912101807E8061682BDB
:100A6000609321015093270140932601809120013A
:100A70008068809320010FCF809120018C7F82605D
:100A80008093200180912101807E8061682B60939A
:100A9000210150932701409326018091200180621B
:100AA000E8CF809120018C7F82608093200180912B
:100AB0002101807E8061682B609321015093270182
:100AC00040932601809120018860D3CF90E080E0A0
:100AD00008950F931F93009709F489C0611571055C
:100AE00009F485C000910C0310910D0320910E03B1
:100AF00030910F030E3F1F4F2F4F3F4F09F068C03B
:100B00004FEF5FEFBA0140930C0350930D036093D6
:100B10000E0370930F0340910C0350910D036091ED
:100B20000E0370910F03DC011296ED91FC91808110
:100B30009181A281B3818093990490939A04A093A8
:100B40009B04B0939C0484819581A681B781809396
:100B5000950490939604A0939704B093980480858D
:100B60009185A285B3858093910490939204A0937C
:100B70009304B093940484859585A685B785809366
:100B80008D0490938E04A0938F04B09390041092E0
:100B9000890410928A0410928B0410928C040E9493
:100BA000E31688E097E190930E0480930D049093F0
:100BB000100480930F040E94D215009731F421E0B5
:100BC00030E030939E0420939D041F910F9108956F
:100BD00000910C0310910D0320910E0330910F032F
:100BE000DB010D931D932D933C93139794CF8FEFBF
:100BF0009FEFEBCF8F929F92AF92BF92CF92DF92F7
:100C0000EF92FF921F93CF93DF934B015C01109102
:100C1000A00482E090E090939E0480939D04811450
:100C20009104A104B10441F48091A004811104C095
:100C300080919F04C1E08111C0E0C12CD12C7601CC
:100C40008091A004811106C080919F04811102C08F
:100C5000CC23D9F083E090E090939E0480939D0490
:100C6000CC2381F1CCE9DFEF111102C00E946C1A94
:100C7000CE01DF91CF911F91FF90EF90DF90CF9049
:100C8000BF90AF909F908F9008956AE070E080E0F1
:100C900090E00E94263A80E1C80E87E2D81EE11C4F
:100CA000F11C8FEF88169806A806B80631F0C1E04F
:100CB0008C149D04AE04BF0408F0C0E080E00E94E4
:100CC0000616BECFD0E0C0E0CFCFCF92DF92EF923A
:100CD000FF920F931F93CF93DF938F3F910511F0F6
:100CE00008F051C020919D0430919E0423303105BD
:100CF00039F020919D0430919E042130310531F46A
:100D000024E030E030939E0420939D046A017B012F
:100D1000EC0182309105A8F011E0AE01C701B601E7
:100D20000E94D115AB01BC01CE011123F9F0DF9176
:100D3000CF911F910F91FF90EF90DF90CF900C9487
:100D4000951C8C01000F111F035F1B4FD8018D9163
:100D50009C91892B09F30E949F1C0297E9F6D80108
:100D6000ED91FC91CE011995182FD7CF0E94B71C99
:100D700090E080E0DF91CF911F910F91FF90EF9075
:100D8000DF90CF9008958FEF9FEFF4CF80E00C9429
:100D90000616CF93DF9386E090E090939E048093B5
:100DA0009D040E945F16EC01EDE0F4E084E0DF01B9
:100DB0001D928A95E9F70E94041A10929E041092DF
:100DC0009D04CE01DF91CF91089580919F040895F5
:100DD00080918804089560930C0370930D038093B1
:100DE0000E0390930F0390E080E00895FC0191E0E2
:100DF00080916604811190E0918308954F925F92F3
:100E00006F927F928F929F92AF92BF92CF92DF921A
:100E1000EF92FF92CF93DF9300D01F92CDB7DEB752
:100E20004B015C0169017A010E94CF148823E9F02B
:100E30008090D60A9090D70AA090D80AB090D90A8C
:100E4000C501B4010F900F900F900F90DF91CF91DB
:100E5000FF90EF90DF90CF90BF90AF909F908F90DA
:100E60007F906F905F904F900895C701B6010E94E8
:100E7000CF148111DDCFC501B4010E948A14811104
:100E8000D7CFC701B6010E948A148111D9CF20E0C3
:100E900030E0A901C701B6010E948D3587FF4CC023
:100EA000C701B6010E947A352B013C01A3019201D2
:100EB000C701B6010E948D35882309F44CC0A701F3
:100EC0009601C501B4010E9491352B013C01E894C3
:100ED00077F820E030E040E05FE3C301B2010E9418
:100EE00016350E9467369B01AC01C301B2010E9416
:100EF00015359B01AC015F7729833A834B835C8373
:100F000020E030E040E054E3C301B2010E948137A9
:100F10009B01AC0169817A818B819C810E947D3724
:100F20001816CCF020E030E0A901C501B4010E9400
:100F300081374B015C0184CFC701B6010E9467363F
:100F40002B013C0120E030E0A901C701B6010E945D
:100F50008D358111ABCFA7019601C501B4010F906A
:100F60000F900F900F90DF91CF91FF90EF90DF9057
:100F7000CF90BF90AF909F908F907F906F905F9039
:100F80004F900C948136CF92DF92EF92FF926B01DB
:100F90007C019F7720E030E040E859E50E948D35E4
:100FA00087FF2BC020E030E040E05FE3C701B601DF
:100FB0000E947D3787FD0EC020E030E040E05FE317
:100FC000C701B6010E941635FF90EF90DF90CF90D9
:100FD0000C94673620E030E040E05FEBC701B601DB
:100FE0000E947D37181684F420E030E0A901C70183
:100FF000B6010E9481376B017C01C701B601FF90E9
:10100000EF90DF90CF90089520E030E040E05FE384
:10101000C701B6010E941535FF90EF90DF90CF9089
:101020000C947A354F925F926F927F928F929F923B
:10103000AF92BF92CF92DF92EF92FF9280916604BF
:101040008F5F8A3008F070C080936604C0905104AE
:10105000D0905204E0905304F09054048FEFC81ADB
:10106000D80AE80AF80AC0925104D0925204E092D9
:101070005304F0925404C114D104E104F10499F42E
:101080008091550490915604A0915704B091580452
:101090000196A11DB11D8093550490935604A09311
:1010A0005704B09358048090590490905A04A0902B
:1010B0005B04B0905C04609155047091560480917B
:1010C0005704909158040E942A36A50194010E9469
:1010D000813720E030E040E85FE40E9481372B0157
:1010E0003C01C701B6010E942A36A50194010E9465
:1010F00081379B01AC01C301B2010E941635609398
:101100004D0470934E0480934F0490935004FF90CD
:10111000EF90DF90CF90BF90AF909F908F907F9097
:101120006F905F904F900895109266048FCF2F922A
:101130003F924F925F926F927F928F929F92AF9267
:10114000BF92CF92DF92EF92FF920F931F93CF93B4
:10115000DF93CDB7DEB766970FB6F894DEBF0FBE4C
:10116000CDBFC0905002D0905102E0905202F0905A
:101170005302A701960160911A0A70911B0A80918F
:101180001C0A90911D0A0E948D35882339F1C701F0
:10119000B6010E948A14882309F4E8C080915002A5
:1011A00090915102A0915202B09153028093B20AE1
:1011B0009093B30AA093B40AB093B50A8091B20A8F
:1011C0009091B30AA091B40AB091B50A80931A0A1B
:1011D00090931B0AA0931C0AB0931D0A81E090E033
:1011E00050DABC01990F880B990B0E942C36209184
:1011F00088023091890240918A0250918B020E94AC
:1012000081376B017C01AC019B0160918C02709174
:101210008D0280918E0290918F020E948D3587FF02
:10122000B3C08090580290905902A0905A02B0909A
:101230005B0220915C0230915D0240915E02509110
:101240005F02C701B6010E941635A5019401D6DDE3
:101250009B01AC0160916002709161028091620219
:10126000909163020E9416356093B20A7093B30A9C
:101270008093B40A9093B50A2091B20A3091B30AD0
:101280004091B40A5091B50A609190027091910218
:1012900080919202909193020E94813760936A0A32
:1012A00070936B0A80936C0A90936D0A6093B60AF0
:1012B0007093B70A8093B80A9093B90A20916E0A86
:1012C00030916F0A4091700A5091710A609140020A
:1012D0007091410280914202909143020E948137B5
:1012E0004B015C01409038025090390260903A0204
:1012F00070903B02AC019B01C301B2010E948D358D
:10130000181674F4C301B2010E94CF14811108C0F1
:101310008090380290903902A0903A02B0903B023F
:101320008091620A882309F462C0C092360AD09282
:10133000370AE092380AF092390A40909C025090A5
:101340009D0260909E0270909F02A7019601C301CA
:10135000B2010E948D3587FF39C04092360A509203
:10136000370A6092380A7092390A41C0609150027F
:101370007091510280915202909153020E94CF14B9
:10138000882309F40BCF1ACF8090640290906502F5
:10139000A0906602B09067022091680230916902C5
:1013A00040916A0250916B02C701B6010E94163546
:1013B000A501940123DD9B01AC0160916C02709149
:1013C0006D0280916E0290916F024CCF4090A0020E
:1013D0005090A1026090A2027090A302A701960112
:1013E000C301B2010E947D3718160CF4B6CF20E07D
:1013F00030E0A9016091940270919502809196026B
:10140000909197020E948D35811104C08091600AED
:10141000882389F1C092360AD092370AE092380ABE
:10142000F092390A40909C0250909D0260909E027A
:1014300070909F02A7019601C301B2010E948D35F1
:1014400087FF09C04092360A5092370A6092380AE4
:101450007092390A10C04090A0025090A102609092
:10146000A2027090A302A7019601C301B2010E94DB
:101470007D3718163CF36090360A7090370A50900A
:10148000380A4090390A1091A4022091A5022E83B7
:101490008091A6028D830091A702212F3E81482FC3
:1014A000502FB301852D942D0E947D371816CCF056
:1014B0001091A8029091A9029E83A091AA02AD83E7
:1014C0000091AB02212F392F4A2F502FB301852DC8
:1014D000942D0E948D3587FD04C0162D7E825D827D
:1014E000042D20E030E0A901C501B4010E948D3532
:1014F000412C512C3201811106C0412C512C90E815
:10150000692E95E2792E212F3E814D81502FC70102
:10151000B6010E9415356B017C01A3019201C50142
:10152000B4010E9416359B01AC0160E070E080E8D8
:101530009FE30E949135A70196010E9481376D8734
:101540007E878F87988B20913002309131024091B5
:101550003202509133020E9481378B01898B998727
:10156000B0912802BD83209129022E8380912A0206
:101570008F8390912B0298879801498959856B2F09
:101580007E810E948D3587FD1CC0A0912002AD8315
:10159000B0912102BE83209122022F8380912302E9
:1015A0008887980149895985BD018F8198850E9456
:1015B0007D37181634F00D831E8399899F83A98582
:1015C000A8872091AC023091AD024091AE025091BB
:1015D000AF026D817E818F8198850E9481376093F3
:1015E000760A7093770A8093780A9093790A6093C9
:1015F000BA0A7093BB0A8093BC0A9093BD0AC0904C
:101600005402D0905502E0905602F0905702A70184
:1016100096016091100A7091110A8091120A9091BE
:10162000130A0E948D358823F9F0C701B6010E9484
:101630008A14882309F4E0C08091540290915502E5
:10164000A0915602B091570289839A83AB83BC83E1
:1016500089819A81AB81BC818093100A9093110A91
:10166000A093120AB093130A90E080E00AD8BC015C
:10167000990F880B990B0E942C362091B002309163
:10168000B1024091B2025091B3020E948137209181
:10169000B4023091B5024091B6025091B7020E9457
:1016A00016356B017C01AC019B016091B802709111
:1016B000B9028091BA029091BB020E948D3587FFDA
:1016C000A9C08090700290907102A0907202B090B8
:1016D000730220917402309175024091760250910C
:1016E0007702C701B6010E941635A501940186DB79
:1016F000209178023091790240917A0250917B02D8
:101700000E94163569837A838B839C832091BC0267
:101710003091BD024091BE025091BF0269817A8131
:101720008B819C810E94813760937A0A70937B0A37
:1017300080937C0A90937D0A6093BE0A7093BF0ADF
:101740008093C00A9093C10A20917E0A30917F0A4B
:101750004091800A5091810A609144027091450243
:1017600080914602909147020E9481374B015C01B3
:1017700040903C0250903D0260903E0270903F02CB
:10178000AC019B01C301B2010E948D35181674F49F
:10179000C301B2010E94CF14811108C080903C02A5
:1017A00090903D02A0903E02B0903F028091630A6B
:1017B000882309F460C0C0923A0AD0923B0AE092B2
:1017C0003C0AF0923D0A4090C8025090C9026090D5
:1017D000CA027090CB02A7019601C301B2010E9418
:1017E0008D3587FF37C040923A0A50923B0A60928B
:1017F0003C0A70923D0A3FC06091540270915502BC
:1018000080915602909157020E94CF14882309F4C8
:1018100013CF1ECF80907C0290907D02A0907E021C
:10182000B0907F022091800230918102409182022B
:1018300050918302C701B6010E941635A50194019B
:10184000DDDA209184023091850240918602509128
:10185000870256CF4090CC025090CD026090CE02CD
:101860007090CF02A7019601C301B2010E947D379B
:1018700018160CF4B8CF20E030E0A9016091C00246
:101880007091C1028091C2029091C3020E948D3575
:10189000811104C08091610A882389F1C0923A0ABB
:1018A000D0923B0AE0923C0AF0923D0A4090C80276
:1018B0005090C9026090CA027090CB02A7019601B5
:1018C000C301B2010E948D3587FF09C040923A0AD8
:1018D00050923B0A60923C0A70923D0A10C04090C0
:1018E000CC025090CD026090CE027090CF02A70142
:1018F0009601C301B2010E947D3718163CF3709027
:101900003A0A60903B0A50903C0A40903D0A009190
:10191000D0021091D1029091D202998BA091D30262
:10192000A9879801492F5A2F672D762D852D942D43
:101930000E947D371816CCF00091D4021091D50288
:10194000B091D602B98B2091D702298798014B2FED
:101950005985672D762D852D942D0E948D3587FD17
:1019600004C0072D162D598A498620E030E0A901D0
:10197000C501B4010E948D35412C512C32018111D9
:1019800006C0412C512C80E8682E85E2782E980103
:1019900049895985C701B6010E9415356B017C0143
:1019A000A3019201C501B4010E9416359B01AC014F
:1019B00060E070E080E89FE30E949135A701960106
:1019C0000E948137698B7A8B8B8B9C8B20913402A0
:1019D0003091350240913602509137020E94813792
:1019E0007B018C0180912C028E8B90912D029D8B1E
:1019F00030902E0220902F029701A801BC01832D68
:101A0000922D0E948D3587FD17C0A0912402AE8BC8
:101A1000B0912502BD8B30902602209027029701BD
:101A2000A801BD01832D922D0E947D37181624F048
:101A3000EE8AFD8A302E212E2091D8023091D902D3
:101A40004091DA025091DB026E897D89832D922DBF
:101A50000E9481376093860A7093870A8093880A70
:101A60009093890A6093C20A7093C30A8093C40A50
:101A70009093C50A2091DC023091DD024091DE0294
:101A80005091DF0269817A818B819C819F770E94CE
:101A90007D3787FD6AC18091480290914902A091EB
:101AA0004A02B0914B0289879A87AB87BC874090E6
:101AB000B20A5090B30A6090B40A7090B50A60916F
:101AC00000027091010280910202909103029058ED
:101AD000A30192010E9481376B017C016091040295
:101AE00070910502809106029091070290582D8115
:101AF0003E814F8158850E9481379B01AC01C7010F
:101B0000B6010E9416356B017C016091080270914C
:101B1000090280910A0290910B02905829813A8122
:101B20004B815C810E9481379B01AC01C701B601EA
:101B30000E9416356B017C0160910C0270910D02C0
:101B400080910E0290910F0290582E893D89432D6D
:101B5000522D0E9481379B01AC01C701B6010E9442
:101B6000163529853A854B855C850E9481376093BF
:101B70008A0A70938B0A80938C0A90938D0A209125
:101B8000E0023091E1024091E2025091E3020E94B2
:101B900016352091E4023091E5024091E602509121
:101BA000E7020E9481376B017C01C0928E0AD092BD
:101BB0008F0AE092900AF092910ADC01CB01BF7784
:101BC0008093920A9093930AA093940AB093950AF3
:101BD0008093C60A9093C70AA093C80AB093C90A13
:101BE0002091E8023091E9024091EA025091EB0223
:101BF000C301B2010E9481374B015C018092960AB9
:101C00009092970AA092980AB092990A29813A81F3
:101C10004B815C816091EC027091ED028091EE024B
:101C20009091EF020E94813760939A0A70939B0A09
:101C300080939C0A90939D0AA301920160911002E7
:101C40007091110280911202909113020E948137CB
:101C500060939E0A70939F0A8093A00A9093A10AB2
:101C60002D813E814F81588560911402709115023B
:101C700080911602909117020E9481376093A20A08
:101C80007093A30A8093A40A9093A50A29813A81AC
:101C90004B815C81609118027091190280911A0247
:101CA00090911B020E9481376093A60A7093A70A45
:101CB0008093A80A9093A90A2E893D89432D522D1D
:101CC00060911C0270911D0280911E0290911F0272
:101CD0000E9481376093AA0A7093AB0A8093AC0A82
:101CE0009093AD0A20E030E0A90169857A858B8563
:101CF0009C850E948D3520E030E0A901811104C04F
:101D000020E030E040E85FE36091F0027091F10282
:101D10008091F2029091F3020E9481376093AE0AA3
:101D20007093AF0A8093B00A9093B10A8FEF9FEF40
:101D3000DC018093580A9093590AA0935A0AB093F1
:101D40005B0A8091640A811119C081E08093640A62
:101D500082E090E0A0E0B0E080935C0A90935D0A9E
:101D6000A0935E0AB0935F0A1EC080914C029091CE
:101D70004D02A0914E02B0914F0295CE80915C0A27
:101D800090915D0AA0915E0AB0915F0A0197A1054A
:101D9000B105B1F520E030E0A901C501B4010E9410
:101DA0008D351816ACF62091F8023091F902409169
:101DB000FA025091FB02C701B6010E9481376B0104
:101DC0007C01C092B20AD092B30AE092B40AF092B7
:101DD000B50A8090FC029090FD02A090FE02B090A7
:101DE000FF02A50194010E947D371816C4F4809269
:101DF000B20A9092B30AA092B40AB092B50A1FC078
:101E000020E030E040EF51E4C501B4010E947D378D
:101E100087FDC9CF81E090E0A0E0B0E09DCF809049
:101E2000000390900103A0900203B0900303A5016A
:101E30009401C701B6010E948D3587FDD8CF91E08E
:101E4000998320E030E0A9016091F4027091F502DD
:101E50008091F6029091F7020E948D3581111982CE
:101E60006091B20A7091B30A8091B40A9091B50A58
:101E700096D58D83882309F4F7C02091D60A309136
:101E8000D70A4091D80A5091D90A60910403709101
:101E9000050380910603909107030E948D3587FF0B
:101EA0000AC16091F4027091F5028091F60290915E
:101EB000F70269D86B017C0120E030E040E853E490
:101EC0000E948D356FEF87FF0EC020E030E0A90142
:101ED000C701B6010E947D3760E087FD04C0C701DD
:101EE000B6010E94FE3589E00E944001BD81BB23FE
:101EF00009F4E9C02091D60A3091D70A4091D80A56
:101F00005091D90A609108037091090380910A03E6
:101F100090910B030E948D3587FFFCC02981622FB1
:101F200070E090E080E00E942A362DD86B017C01A1
:101F300020E030E040E853E40E948D356FEF87FFEA
:101F40000EC020E030E0A901C701B6010E947D3734
:101F500060E087FD04C0C701B6010E94FE358AE03B
:101F60000E94400168E070E080E090E00E948303FE
:101F70009A8389839093350A8093340AC090B20A79
:101F8000D090B30AE090B40AF090B50AE894F7F85C
:101F900020E030E04FE753E4C701B6010E948D35E1
:101FA00018160CF4C0C0C092B20AD092B30AE092E4
:101FB000B40AF092B50A4091B20A5091B30A609106
:101FC000B40A7091B50A89819A810E944C031092DB
:101FD000620AC0909402D0909502E0909602F09030
:101FE000970220E030E0A901C701B6010E948D35BB
:101FF0008111B6C0209198023091990240919A02C5
:1020000050919B026D857E858F8598890E948137CE
:102010002091360A3091370A4091380A5091390A96
:102020000E9416354B015C018092360A9092370A65
:10203000A092380AB092390A40909C0250909D02BA
:1020400060909E0270909F02A30192010E947D37D2
:1020500018160CF075C04092360A5092370A6092FA
:10206000380A7092390A7CC0C090B20AD090B30A84
:10207000E090B40AF090B50A20E030E0A901C70171
:10208000B6010E948D3520E030E040E85FEB87FD2F
:10209000FCCE20E030E0A901C701B6010E947D37E7
:1020A00020E030E0A90118160CF0EFCE20E030E07F
:1020B00040E85FE3EACEA9816A2F70E090E080E01B
:1020C0000E942A36F6CEC090B20AD090B30AE090B1
:1020D000B40AF090B50A20E030E0A901C701B601CA
:1020E0000E948D3520E030E040E85FEB87FD0ACFAD
:1020F00020E030E0A901C701B6010E947D3720E051
:1021000030E0A90118160CF0FDCE20E030E040E8E8
:102110005FE3F8CE6091F4027091F5028091F602CF
:102120009091F70202CF80E090E0AFE7B3E48093B4
:10213000B20A9093B30AA093B40AB093B50A3BCF06
:102140004090A0025090A1026090A2027090A30261
:10215000A3019201C501B4010E948D3587FD7BCF9B
:1021600020E030E0A901C701B6010E947D371816B2
:1021700024F481E08093600A16C020E030E0A901D9
:10218000C701B6010E948D3587FF02C08FEFF2CFE5
:1021900020E030E0A901C701B6010E948D35811110
:1021A0004EC01092600A1092630AC090C002D09094
:1021B000C102E090C202F090C30220E030E0A90129
:1021C000C701B6010E948D3581114BC02091C40218
:1021D0003091C5024091C6025091C70269897A893F
:1021E0008B899C890E94813720913A0A30913B0A61
:1021F00040913C0A50913D0A0E9416354B015C010A
:1022000080923A0A90923B0AA0923C0AB0923D0A10
:102210004090C8025090C9026090CA027090CB02F0
:10222000A30192010E947D3718165CF440923A0A8D
:1022300050923B0A60923C0A70923D0A12C082E0C2
:1022400099CF4090CC025090CD026090CE02709019
:10225000CF02A3019201C501B4010E948D3587FD13
:10226000E5CF20E030E0A901C701B6010E947D372B
:10227000181624F481E08093610A16C020E030E053
:10228000A901C701B6010E948D3587FF02C08FEFFB
:10229000F2CF20E030E0A901C701B6010E948D35E0
:1022A000811145C01092610A80915D0490915E0495
:1022B000A0915F04B09160040196A11DB11D8093AF
:1022C0005D0490935E04A0935F04B0936004892B37
:1022D0008A2B8B2B99F48091610490916204A091D8
:1022E0006304B09164040196A11DB11D8093610443
:1022F00090936204A0936304B093640466960FB64F
:10230000F894DEBF0FBECDBFDF91CF911F910F912B
:10231000FF90EF90DF90CF90BF90AF909F908F9005
:102320007F906F905F904F903F902F90089582E044
:10233000A2CF8F929F92AF92BF92CF92DF92EF92F5
:10234000FF920F931F93CF9384E090E0ACD28091E3
:10235000DA0A9091DB0AA091DC0AB091DD0A809341
:10236000200290932102A0932202B0932302809333
:10237000240290932502A0932602B0932702409155
:10238000D20A5091D30A6091D40A7091D50A409331
:1023900028025093290260932A0270932B024093E3
:1023A0002C0250932D0260932E0270932F024093C3
:1023B0009C0250939D0260939E0270939F028093B3
:1023C000A0029093A102A093A202B093A302409313
:1023D000A4025093A5026093A6027093A702809373
:1023E000A8029093A902A093AA02B093AB024093D3
:1023F000C8025093C9026093CA027093CB028093C3
:10240000CC029093CD02A093CE02B093CF02409322
:10241000D0025093D1026093D2027093D302809382
:10242000D4029093D502A093D602B093D702E7E3EB
:10243000F4E085E3DF011D928A95E9F780E090E002
:10244000A0E8BFEB8093670490936804A0936904AD
:10245000B0936A048FE692E1A3E8BAE3809359044B
:1024600090935A04A0935B04B0935C048DE996EFBB
:10247000ADEFB0E580933B0490933C04A0933D0402
:10248000B0933E0480E49AECA1E6B0E680933F046A
:1024900090934004A0934104B09342048AEE9CE7D9
:1024A000A5EBB6ED8093430490934404A0934504B8
:1024B000B093460484EA96E2A9E5BEE88093470417
:1024C00090934804A0934904B0934A048BE294E0AB
:1024D00090933A048093390481E194E090932C0422
:1024E00080932B0489E593E0909312048093110468
:1024F000909314048093130490931604809315040E
:10250000909318048093170490931A0480931904ED
:1025100090931C0480931B0490931E0480931D04CD
:102520009093200480931F049093220480932104AD
:10253000909324048093230490932604809325048D
:10254000909328048093270490932A04809329046D
:102550008BE494E09093300480932F048BE394E019
:1025600090932E0480932D048DE494E09093320494
:1025700080933104EAE6FAE08CE4DF011D928A954B
:10258000E9F7EAE0FAE080E6DF011D928A95E9F7D3
:10259000E6EBFAE084E1DF011D928A95E9F781E03C
:1025A0008093670A609150027091510280915202AB
:1025B00090915302AFD1882309F4EEC0C09050022D
:1025C000D0905102E0905202F0905302C0921A0A49
:1025D000D0921B0AE0921C0AF0921D0A81E090E062
:1025E000A0E0B0E08093150A9093160AA093170A12
:1025F000B093180A44E050E062E070E00E947B0271
:1026000081E08093190A4AE057ED63E27CE340934E
:102610006E0A50936F0A6093700A7093710A109259
:10262000720A1092730A1092740A1092750A10922C
:102630000A0A8093650A6091540270915502809154
:1026400056029091570266D1882309F4B2C0809057
:10265000540290905502A0905602B090570280927A
:10266000100A9092110AA092120AB092130AC12C79
:10267000D12C7601C394C0920B0AD0920C0AE0923E
:102680000D0AF0920E0A45E050E063E070E090E041
:1026900080E00E947B02C1E0C0930F0A8AE097EDC0
:1026A000A3E2BCE380937E0A90937F0AA093800A02
:1026B000B093810A1092820A1092830A1092840ABF
:1026C0001092850A1092260AC093690AC092270ABE
:1026D000D092280AE092290AF0922A0A61E089E061
:1026E0000E943801C0932B0A10921E0AC093680AF8
:1026F000C0921F0AD092200AE092210AF092220A88
:1027000061E08AE00E943801C093230A10922E0AE9
:10271000C093660AC0922F0AD092300AE092310A22
:10272000F092320AE12CF12C8701A801970168E0B0
:1027300070E080E090E00E94C7039093350A809398
:10274000340AC093330A1092600AC093620A10924E
:10275000610AC093630A8FEF9FEFDC018093580AF0
:102760009093590AA0935A0AB0935B0A1092640A94
:1027700010925C0A10925D0A10925E0A10925F0A33
:10278000CF911F910F91FF90EF90DF90CF90BF906E
:10279000AF909F908F900895609150027091510278
:1027A0008091520290915302FAD0882309F406CF07
:1027B0000DCF609154027091550280915602909114
:1027C0005702EDD0882309F442CF49CF8091140AF3
:1027D000811103C081E08093140A80910A0A81115B
:1027E00003C081E080930A0A8091260A811103C008
:1027F00081E08093260A80911E0A811103C081E046
:1028000080931E0A80912E0A81112EC081E0809350
:102810002E0A80912F0A9091300AA091310AB0912E
:10282000320A0197A105B105F9F48091330A882392
:10283000D9F068E070E080E090E00E94830390931C
:10284000350A8093340A40E050E0BA010E944C03FC
:1028500068E070E080E090E00E9483039093350A86
:102860008093340A0C941804089560E070E080E8C6
:102870009FE7089560E070E080E89FE7089560E0DA
:1028800070E080E89FEF089560E070E080E89FEFDF
:10289000089560E070E080EC9FEF089560E070E0E4
:1028A00080EC9FEF0895F5DF6093D60A7093D70A06
:1028B0008093D80A9093D90AF1DF6093CA0A709383
:1028C000CB0A8093CC0A9093CD0ACFDF6093D20AD3
:1028D0007093D30A8093D40A9093D50ACBDF609388
:1028E000CE0A7093CF0A8093D00A9093D10AC7DFA3
:1028F0006093DA0A7093DB0A8093DC0A9093DD0A16
:10290000C3DF6093DE0A7093DF0A8093E00A90933E
:10291000E10A0895CF92DF92EF92FF92CF936B017D
:102920007C01AC019B016091D20A7091D30A809125
:10293000D40A9091D50A0E948D35C1E0882371F0A8
:10294000A70196016091DA0A7091DB0A8091DC0A96
:102950009091DD0A0E948D358111C0E08C2FCF91BE
:10296000FF90EF90DF90CF9008950F931F938B010E
:102970009C010027112720783F7701151105204879
:102980003F4749F4AB01BC016F77772781E0452BC6
:10299000462B472B09F480E01F910F910895E5CF56
:1029A0004F925F926F927F928F929F92AF92BF925F
:1029B000CF92DF92EF92FF920F931F93F894409083
:1029C00078045090790460907A0470907B04C090F1
:1029D0006C04D0906D04E0906E04F0906F04452B71
:1029E00009F0A4C09B01AC01241935094609570917
:1029F00029013A0100917404109175042091760424
:102A00003091770448015901840C951CA61CB71C11
:102A100080169106A206B306A0F4009170041091EE
:102A2000710420917204309173040F5F1F4F2F4F78
:102A30003F4F0093700410937104209372043093FD
:102A400073048092740490927504A0927604B092FC
:102A500077040091700410917104209172043091F8
:102A6000730480927C0490927D04A0927E04B092C4
:102A70007F04009380041093810420938204309398
:102A80008304609378047093790480937A0490931C
:102A90007B04A8EEB3E0A30192010E944F406C0DAD
:102AA0007D1D8E1D9F1D60936C0470936D0480933B
:102AB0006E0490936F0400910C0310910D0320910C
:102AC0000E0330910F030F3F1F4F2F4F3F4FF1F079
:102AD00000910C0310910D0320910E0330910F0310
:102AE0000E3F1F4F2F4F3F4F89F0C0900C03D090E7
:102AF0000D03E0900E03F0900F0321E08C149D0471
:102B0000AE04BF0408F420E02093880478941F9159
:102B10000F91FF90EF90DF90CF90BF90AF909F907C
:102B20008F907F906F905F904F9008954B015C0164
:102B300084189508A608B708A3019201261B370B35
:102B4000480B590B6415750586059705D0F082165C
:102B50009306A406B50640F420E030E0A9018114F4
:102B60009104A104B10491F4A8EEB3E00E944F4097
:102B7000A7019601261B370B480B590BCA01B90157
:102B8000C5CF82169306A406B50670F7A8EEB3E08B
:102B9000A50194010E944F406C0D7D1D8E1D9F1D4F
:102BA000B5CFFECECF93DF9300D01F92CDB7DEB767
:102BB0001C821B821A82198210928404109285044E
:102BC0001092860410928704BE016F5F7F4FCE0182
:102BD00003960E94CE3269817A818B819C810E940A
:102BE000BC2B009761F4BE016F5F7F4FCE0103964F
:102BF0000E94DA3269817A818B819C812ED50F9077
:102C00000F900F900F90DF91CF910895FF920F9347
:102C10001F93CF93DF93082F60E070E0CB010E94F9
:102C2000263AFF24F3940E94A52AEC01892B89F00F
:102C300010E0CE3F8FEFD80769F0002361F160E02C
:102C400070E0CB010E94263A81E090E0892B59F395
:102C500022C011E025D5EC01892B21F0CE3F8FEF6A
:102C6000D80759F711111EC011E0229609F410E09F
:102C70000E94552AEC01892B21F0CE3F8FEFD80717
:102C8000E1F6111111C011E0CE3F8FEFD80709F422
:102C900010E001110BC0CE01DF91CF911F910F9178
:102CA000FF90089511E0E4CF11E0F3CF60E070E011
:102CB000CB010E94263A1F25812F90E0C7CFCF93EA
:102CC000DF9380918804882321F060E070E0CB01DD
:102CD0004CD635D6D0E0C0E0892B71F06AE070E0C8
:102CE00080E090E00E94263A81E090DF28D621968D
:102CF000C03D27E0D20781F727D60E94102C109202
:102D0000A00410929F041092990410929A041092B9
:102D10009B0410929C0410929504109296041092B9
:102D200097041092980410929104109292041092B9
:102D300093041092940410928D0410928E041092B9
:102D40008F04109290041092890410928A041092B9
:102D50008B0410928C044EEF5FEF6FEF7FEF409388
:102D60000C0350930D0360930E0370930F031092A6
:102D70008804ECE7F4E028E0DF011D922A95E9F7EA
:102D8000109278041092790410927A0410927B04C5
:102D900010927404109275041092760410927704C5
:102DA00010927004109271041092720410927304C5
:102DB00010926C0410926D0410926E0410926F04C5
:102DC000DF91CF9108951092AC041092AD0410924F
:102DD000AE041092AF041092AB048091B4049091B1
:102DE000B5049093AA048093A9041092A8041092A9
:102DF000A7041092A3041092A4041092A5041092A8
:102E0000A6041092B1041092B00490E080E00895FE
:102E1000CF92DF92EF92FF920F931F93CF938C018B
:102E2000892B09F055C02091B4043091B5048091EC
:102E3000A9049091AA044091B4045091B504509310
:102E4000AA044093A9042817390781F01092A80416
:102E50001092A7041092A3041092A4041092A50447
:102E60001092A6041092B1041092B0048091B404A0
:102E70009091B504019761F58091B0049091B104EF
:102E8000892B21F480911003811112C08091B0042C
:102E90009091B1040197E1F48091A3049091A4046E
:102EA000A091A504B091A6040197A105B10581F4F4
:102EB0001092A3041092A4041092A5041092A604E8
:102EC0001092100382E090E09093B1048093B004DC
:102ED0008091B4049091B504019709F01CC18091D0
:102EE000CA049091CB048017910709F014C1809116
:102EF000C6049091C704A091C804B091C90400977A
:102F000009F409C12091C50421110DC04091C604E6
:102F10005091C7046091C8047091C904452B462B99
:102F2000472B09F4F8C02091B0043091B10422304D
:102F3000310509F0F0C02091A7042111ECC0FC017B
:102F4000C080D180E280F3808091AB04882309F4B3
:102F5000D3C08091B7049091B804892B09F4FDC0C7
:102F60002091B7043091B80481E02230310509F096
:102F700080E02091B7043091B804C1E021303105E0
:102F800049F02091B7043091B804C1E022303105F6
:102F900009F0C0E0882309F456C02091C1043091A3
:102FA000C2044091C3045091C404C701B6010E94F9
:102FB0007D3787FD14C02091C1043091C204409137
:102FC000C3045091C4046091AC047091AD0480912D
:102FD000AE049091AF040E948D3587FD22C02091F0
:102FE000C1043091C2044091C3045091C404C7018C
:102FF000B6010E947D37181634F52091C104309136
:10300000C2044091C3045091C4046091AC04709117
:10301000AD048091AE049091AF040E948D35811172
:1030200012C08091B9049091BA04A091BB04B091F0
:10303000BC04892B8A2B8B2B19F481E08093A80484
:1030400081E08093A704CC2309F456C02091C104E9
:103050003091C2044091C3045091C404C701B60129
:103060000E948D3587FF14C02091C1043091C204A5
:103070004091C3045091C4046091AC047091AD04BC
:103080008091AE049091AF040E947D3787FF22C0EB
:103090002091C1043091C2044091C3045091C404F2
:1030A000C701B6010E948D35811126C02091C1044F
:1030B0003091C2044091C3045091C4046091AC04A7
:1030C0007091AD048091AE049091AF040E947D3761
:1030D000181694F48091B9049091BA04A091BB049D
:1030E000B091BC04892B8A2B8B2B19F481E080933F
:1030F000A80481E08093A70481E09091A704911136
:1031000080E08093AB04C092AC04D092AD04E09216
:10311000AE04F092AF04012B09F067C18091B004B6
:103120009091B104892BD9F41092B6041092A7049F
:1031300080911003882379F082E090E09093B104AD
:103140008093B004109210032091B4043091B50420
:1031500081E0232BE9F080E01BC081E00ACF1092D0
:1031600010038091B604882349F01092A8041092AD
:10317000B1041092B0041092B604EDCF8091B40463
:103180009091B504892BE1F08091A7041092A704D7
:103190002091B0043091B1042230310509F45EC0B1
:1031A00088F42115310509F448C02130310509F4AE
:1031B000F3C01092A8041092A7041092B60438C06D
:1031C00081E0E6CF2330310509F4B1C02430310568
:1031D00081F74091A3045091A4046091A5047091DB
:1031E000A604411551056105710561F04150510971
:1031F000610971094093A3045093A4046093A5044A
:103200007093A6044091A3045091A4046091A50476
:103210007091A604452B462B472BD9F42091B2047C
:103220003091B3042130310509F046C01092A80452
:103230001092B1041092B0040CC080911003882346
:1032400041F082E090E09093B1048093B00410923A
:1032500010031092A1048091A804CEC08823C9F362
:103260008091B9049091BA04A091BB04B091BC04C0
:10327000181619061A061B060CF07DC08091B404BE
:103280009091B504019709F076C08091B9049091AE
:10329000BA04A091BB04B091BC048093A3049093A2
:1032A000A404A093A504B093A60483E090E09093B7
:1032B000B1048093B004CDCF4091BD045091BE04C1
:1032C0006091BF047091C004452B462B472BA9F099
:1032D0001092A8048091BD049091BE04A091BF04F7
:1032E000B091C0048093A3049093A404A093A50478
:1032F000B093A60481E090E0DACF882399F0809122
:10330000110390911203A0911303B09114038093C1
:10331000A3049093A404A093A504B093A60484E00E
:1033200090E0C5CF1092A80482E090E0C0CF8091D9
:10333000A3049091A404A091A504B091A6040097C1
:10334000A105B10559F00197A109B1098093A30422
:103350009093A404A093A504B093A6048091A30421
:103360009091A404A091A504B091A604892B8A2B66
:103370008B2B09F06ECF8091110390911203A091D5
:103380001303B0911403892B8A2B8B2B09F44ECF96
:1033900081E08093A804B3CF4091A3045091A4048A
:1033A0006091A5047091A604411551056105710550
:1033B00061F041505109610971094093A304509390
:1033C000A4046093A5047093A6044091A3045091B3
:1033D000A4046091A5047091A604452B462B472BAD
:1033E00009F037CF8111C7CF9FCF8091A1048823E7
:1033F00009F431CF8091A204CF911F910F91FF90DA
:10340000EF90DF90CF9008951092AC041092AD042D
:103410001092AE041092AF041092AB041092B1045B
:103420001092B0041092AA041092A9041092CB0436
:103430001092CA041092A8041092A7041092A30438
:103440001092A4041092A5041092A6041092A20453
:103450001092A1041092C6041092C7041092C804DE
:103460001092C9041092C5041092C1041092C204B3
:103470001092C3041092C40488EE93E0A0E0B0E080
:103480008093110390931203A0931303B09314033A
:103490001092BD041092BE041092BF041092C0049A
:1034A0001092B9041092BA041092BB041092BC049A
:1034B0001092B8041092B70481E080931003109228
:1034C000B6041092B5041092B4041092B304109292
:1034D000B20490E080E008958091B4049091B50426
:1034E000892B19F580911003882351F08091B6043F
:1034F000811106C081E08093A2048093A104089505
:103500002091B6043091100381E090E0332311F054
:1035100090E080E030E082239323892B21F0109209
:10352000A20481E0EACF1092A104089582E090E025
:10353000FA01918380838FEF9FEF0895CF93DF93FC
:10354000EA01009711F00E94302D1982188290E054
:1035500080E0DF91CF910895DB01009719F48FEFA0
:103560008C9308952EEF2C93FC013F96EF30F105DC
:1035700008F034C08827E054F54E8F4F0C94474034
:10358000EC1AEA1AE81AE61AE41AE01AE21ADE1A43
:10359000DC1ADA1AD71AD31ACF1AD51AEE1A80E320
:1035A00011968C93089589E2FBCF82E2F9CF1196B0
:1035B0001C92089583E2F4CF81E2F2CF81E1F0CF53
:1035C00087E2EECF8AE2ECCF80E1EACF84E2E8CF77
:1035D00088E2E6CF86E2E4CF81E3E2CF80E2E0CF8B
:1035E0008091D8049091D90408959093D904809340
:1035F000D80408958091D70408959091D704892B19
:103600008093D7040895982F90958091D7048923AB
:103610008093D70408958091D60408958091D404AE
:103620009091D50408956115710559F0FB0130E0C2
:1036300020E070E060E02417350719F0611571058E
:1036400011F0CB010895A081B181A817B90709F441
:10365000BF012F5F3F4F3696EECF8091DA04811184
:103660001CC060D266D29093CD048093CC040E949B
:103670002E250E9440259093D1048093D0040E946F
:10368000BD290E94C4299093CF048093CE0481E089
:103690008093DA0490E080E0089584EF9FEF08952E
:1036A0008F929F92AF92BF92CF92DF92EF92FF9252
:1036B0000F931F93CF93DF9300D000D000D01F92C1
:1036C000CDB7DEB71A86198618861F821E821D8224
:1036D0001C821B821A8219828091DA0407EF1FEF85
:1036E000882309F49CC08E010D5F1F4F9E012B5F44
:1036F0003F4FAE01495F5F4FBE01675F7F4F90E074
:1037000080E00E94412B8C01009721F005960297E2
:1037100008F0DBC029853A852115310509F402C17D
:10372000ED80FE804B815C81B701640F751F8F8136
:1037300098858617970708F4F5C0E20EF31ED701A7
:103740009C91903C09F07FC04230510508F47BC049
:1037500011968C914091D8045091D904452B09F4CD
:103760009CC0913F08F071C02CE1290F2D3008F466
:103770008BC02DE2290F203108F489C0903C21F440
:103780008150823008F483C088E3890F8B3008F4BD
:1037900081C09CEAC92E9AE1D92EE6E9FAE16D8151
:1037A0007E81AE014F5F5F4F89859A8519955C01D7
:1037B000C114D104A1F189809A808114910479F116
:1037C0008B819C818815990508F487C010E000E082
:1037D0004B815C8170E060E0C7010E94714001157F
:1037E0001105E9F449815A8169857A858D819E8127
:1037F000680F791FC501F6011995E980FA800D81DE
:103800001E812F81388549855A856FEF7FEF81E0D2
:1038100090E00E94DC2A8C01892B09F056C0C80177
:103820002A960FB6F894DEBF0FBECDBFDF91CF91C1
:103830001F910F91FF90EF90DF90CF90BF90AF90CE
:103840009F908F90089580E085CF30E020E0220F98
:10385000331FF901E453FB4F0190F081E02D3097C5
:1038600009F497CF892F90E01995009709F491CF2B
:10387000DC011296ED91FC9113971496CD90DC909B
:10388000309709F08CCF1FC021E030E0E0CF22E07C
:1038900030E0DDCF23E030E0DACFD12CC12CEEE9EF
:1038A000FAE19F3F09F07BCFE091CC04F091CD0489
:1038B000309721F4C90104EF1FEF0CC08FEF90E0A7
:1038C00019950097A9F604EF1FEF89859A8500974F
:1038D00009F4A5CF0E94302DA2CF0E940B2C8C01A1
:1038E00089859A850E94302D70E060E0C4010E94B5
:1038F000A42B98878F830E94D92A9E838D836F8102
:1039000078856115710559F0C8010E94BC2E9A870F
:10391000898706EF1FEF892B09F058CF59CF08EFA1
:103920001FEF56CF08EF1FEFD0CF2091DA042223EC
:1039300019F020E00C94452587EF9FEF08958091C2
:10394000D8049091D90408950E94C9290E9423297E
:10395000F5D0ECECF4E088E0DF011D928A95E9F700
:103960001092DA0490E080E008950C94812721E021
:1039700040E050E0BA010C94452586E090E0FA0161
:103980009183808390E080E0089547E050E06CE50B
:1039900073E049CEDF92EF92FF920F931F93CF9384
:1039A000DF938A01EC01C60FD71FE090DE04F09090
:1039B000DF04D9800E94F32BD816190678F082E034
:1039C00090E0F801918380838EEF9FEFDF91CF919C
:1039D0001F910F91FF90EF90DF900895EF2841F431
:1039E00082E090E0F8019183808384EF9FEFEECF37
:1039F00089818093DD0490E00196F80191838083B2
:103A000090E080E0E3CFCF93DF93EA010E94322879
:103A1000882321F00E94002C0E94332882E090E04D
:103A2000998388838BEF9FEFDF91CF910895CF9398
:103A3000DF93EB0186E0FB0111928A95E9F78FEFA6
:103A40008883D8DD8983E7DD8A83E8DD9D838C83E5
:103A5000DF91CF910895CF93DF93EA010E9435283B
:103A6000811109C082E090E09983888385EF9FEF00
:103A7000DF91CF91089590E080E0B7DD81E090E0A4
:103A80009983888390E080E0F3CF0F931F93CF93C7
:103A9000DF93EA018C01060F171F0E943528811160
:103AA0000BC082E090E09983888385EF9FEFDF91E0
:103AB000CF911F910F910895F8018181823038F0E4
:103AC00082E090E0998388838EEF9FEFF0CF81E0D2
:103AD00090E08BDD88E090E09983888390E080E03F
:103AE000E6CFCF93DF930097D1F4EB01FB01329641
:103AF00086E0DF011D928A95E9F78FEF888385E0E4
:103B000089831A820E94F32B8B830E94F22B9D8360
:103B10008C8381E08E838F83DF91CF910895DF9135
:103B2000CF911ACD85EC9CE19093DC048093DB046B
:103B300008958091DB049091DC0408951092DC04D8
:103B40001092DB0408958091DE049091DF040895C3
:103B5000411105C0611571058105910561F0609302
:103B6000DE047093DF048093E0049093E1044093BB
:103B7000E20481E0089580E00895FF920F931F937F
:103B8000CF93DF938A01EC01C60FD71FF9800E9403
:103B9000F32BF816190668F082E090E0F8019183A3
:103BA00080838EEF9FEFDF91CF911F910F91FF9058
:103BB00008956C817D818E819F814B81C9DF811148
:103BC00008C082E090E0F8019183808384EF9FEF4A
:103BD000EACF89818093DD0490E00196F80191831A
:103BE000808390E080E0DFCFCF93DF93EA01FC0198
:103BF000E60FF71F64817581868197814381A8DF75
:103C0000811109C082E090E09983888384EF9FEF5F
:103C1000DF91CF91089581E090E09983888390E0CF
:103C200080E0F6CFEEEDF4E0408151816281738156
:103C3000480F511D611D711D408351836283738341
:103C40000895CF93C091DD044C2F50E06091DE04C5
:103C50007091DF0401960E9468408C2FE3DF109280
:103C6000DD04CF910895009799F48091DE0490913E
:103C7000DF042FEFFB012083892B59F02091DD0415
:103C800030E02F5F3F4F2417350719F4CB01D9CF10
:103C900063CC0895009799F48091DE049091DF043D
:103CA0002FEFFB012083892B59F02091DD0430E0B8
:103CB0002F5F3F4F2417350719F4CB01C2CF4CCCEF
:103CC000089523E1AC01249FC001259F900D11248C
:103CD000E091E704F091E804E80FF91F23813481B3
:103CE0002250310981E02230310508F080E008954A
:103CF0000F931F93CF93DF930091E9041091EA048F
:103D0000D0E0C0E080E00C171D0749F491E081117C
:103D100090E0892FDF91CF911F910F91089581112C
:103D2000F5CFCE01CEDF2196EECFA091E704B09182
:103D3000E804109729F12091E9043091EA048217F0
:103D40009307F0F453E1589F9001599F300D1124CF
:103D5000A20FB31FED91FC911197309789F0129645
:103D60008C91681768F48DE0689FE00DF11D1124B7
:103D700080819181892B21F081E09281491708F09F
:103D800080E008959C0143E1429FC001439F900D54
:103D90001124E091E704F091E804E80FF91F83850E
:103DA000823091F481E090E0658176814091150345
:103DB000509116036417750711F490E080E0892B89
:103DC00019F081E0232B09F080E00895FC01A08127
:103DD000B1818DE0689FA00DB11D112413964D9106
:103DE0005C9185859685489F9001499F300D589F2D
:103DF000300D1124C9010196611103C0478144FDB2
:103E000004960895EF92FF920F931F93CF93DF9341
:103E1000EA01FC01E60FF71F02811381E480F580BF
:103E20004F2D6E2DC80181DF81110DC082E090E021
:103E3000998388838EEF9FEFDF91CF911F910F9130
:103E4000FF90EF900895C8013CDF882339F082E0AD
:103E500090E09983888388EF9FEFEECF10931C0347
:103E600000931B03E0921D03F0921E0381E090E09B
:103E70009983888390E080E0DFCFCF92DF92EF924A
:103E8000FF920F931F93CF93DF937A01EC01C60F3C
:103E9000D71FC0901B03D0901C0300911D031091ED
:103EA0001E03412F602FC60140DF811110C082E048
:103EB00090E0F701918380838AEF9FEFDF91CF91AC
:103EC0001F910F91FF90EF90DF90CF900895C60162
:103ED000F8DE882341F082E090E0F701918380834F
:103EE00088EF9FEFEBCF4C815D816E817F819A815E
:103EF00089818F3F41F082E090E0F70191838083D8
:103F00008EEF9FEFDBCFE3E1EC9D9001ED9D300D57
:103F10001124E091E704F091E804E20FF31F01900F
:103F2000F081E02D2DE0029FE00DF11D11240190A4
:103F3000F081E02D27E0129FE00DF11D1124808318
:103F400091838B81828343835483658376831F5F50
:103F500010931E0381E090E0F7019183808390E04D
:103F600080E0ACCFEF92FF920F931F93CF93DF933C
:103F70007A018C01060F171FC091E704D091E80465
:103F8000209781F021E030E0F80182819381409117
:103F9000E9045091EA048417950710F030E020E01E
:103FA000232B71F482E090E0F701918380838EEF00
:103FB0009FEFDF91CF911F910F91FF90EF900895A8
:103FC00043E1489F9001499F300D1124C20FD31F38
:103FD00078DE882341F082E090E0F70191838083CE
:103FE00088EF9FEFE6CFF801248135812038310535
:103FF000C8F687818111D6CF4181842F90E08F7ED2
:10400000009741F082E090E0F7019183808386EF92
:104010009FEFCFCF4F833E832D832681288719863C
:10402000223010F421E0288721E030E0F7013183CD
:104030002083BFCF88E090E0FA019183808390E0F5
:1040400080E00895FB018FEF808381E181838FEF12
:104050009FEF9383828380E890E095838483168228
:1040600017820895FB018FEF808391E09183828313
:104070009383848384E3858381E090E097838683C0
:104080000895DF92EF92FF920F931F93CF93DF93E8
:10409000EA01FC01E60FF71F8181813071F082E0B7
:1040A00090E0998388838FEF9FEFDF91CF911F91ED
:1040B0000F91FF90EF90DF90089582819381D480DB
:1040C0002581E680F7800091E7041091E80401154E
:1040D000110539F482E090E0998388838CEF9FEF9B
:1040E000E4CF4091E9045091EA048417950738F031
:1040F00082E090E0998388838EEF9FEFD6CF892B63
:1041000039F082E090E09983888386EF9FEFCDCFEE
:104110008D2D8D7FB1F72130A1F781E0D11006C040
:1041200091E0E916F10431F080E004C0E2E0EE161F
:10413000F104D0F3882329F390E080E0C2DD8823E6
:1041400039F082E090E09983888388EF9FEFADCFCC
:10415000F801D38681E08487F686E586108A178683
:1041600081E090E09983888390E080E09ECF4CE0EE
:1041700050E066E873E057CA8F929F92BF92CF9249
:10418000DF92EF92FF920F931F93CF93DF93EA0199
:10419000FC01E60FF71F828193810481B580E091D5
:1041A000E704F091E804309791F482E090E099837D
:1041B00088838CEF9FEFDF91CF911F910F91FF903C
:1041C000EF90DF90CF90BF909F908F9008952091B7
:1041D000E9043091EA048217930738F082E090E016
:1041E000998388838EEF9FEFE6CF23E1289F6001BC
:1041F000299FD00C1124EC0DFD1DE080F180E1140D
:10420000F10499F28281081748F78DE0089F800138
:104210001124E00EF11EF70180819181892B29F68E
:10422000BB20E1F2F7E0BF9E40011124C4010E94CF
:10423000F72CF70191838083E091E704F091E80483
:10424000EC0DFD1D0190F081E02DE00FF11F80814C
:104250009181009739F482E090E0998388838DEF13
:104260009FEFA9CFA40170E060E00E9471408091AF
:10427000E7049091E804C80ED91EF601808191816F
:10428000080F191FF801B28281E090E099838883BA
:1042900090E080E090CFAF92BF92CF92DF92FF92FA
:1042A0000F931F93CF93DF93EA01FC01E60FF71FF3
:1042B00082819381F4800091E7041091E804011554
:1042C000110581F482E090E0998388838CEF9FEF61
:1042D000DF91CF911F910F91FF90DF90CF90BF9012
:1042E000AF9008952091E9043091EA048217930772
:1042F00038F082E090E0998388838EEF9FEFE8CFDB
:104300002FEF2F0D2C3FA8F723E1289F6001299F55
:10431000D00C11240C0D1D1DF80180819181892B79
:1043200089F6FDE0FF9E50011124C5010E94F72C83
:10433000F80191838083E091E704F091E804EC0DAB
:10434000FD1D80819181009739F482E090E099838E
:1043500088838DEF9FEFBCCFA50170E060E00E94E5
:104360007140E091E704F091E804EC0DFD1DF2824C
:1043700081E090E09983888390E080E0A9CFCF929C
:10438000DF92EF92FF920F931F93CF93DF93860FED
:10439000971FFC01028113818091E7049091E8044A
:1043A000892B81F082E090E0FA01918380838CEF89
:1043B0009FEFDF91CF911F910F91FF90EF90DF90D2
:1043C000CF900895C801B0E0A0E00197A109B1091C
:1043D0008F3F9F4FA105B10540F082E090E0FA01C8
:1043E000918380838EEF9FEFE4CF7A0183E1809FFA
:1043F0006001819FD00C1124C6010E94F72CEC01B2
:10440000009741F482E090E0F701918380838DEF83
:104410009FEFCFCFA60170E060E00E947140D09383
:10442000E804C093E7041093EA040093E90490E0E1
:1044300080E02FEF3FEF41E061E070E080179107EF
:1044400041F481E090E0F7019183808390E080E087
:10445000B0CF3A8B298B1B864C877E876D87188A55
:104460001F8601966396EACFEF92FF921F93CF9338
:10447000DF93EC0110E0F12CE12C6A811617B0F00B
:1044800083E0689FB0011124AE014F5E5F4FC7010A
:104490000E945C2D009721F02FEF3FEF3A8B298B84
:1044A000DF91CF911F91FF90EF900895612FCE0182
:1044B0008DDC61E070E00E94A42BE816F90608F498
:1044C0007C011F5FDACFF8942091E5043091E60477
:1044D00081E02115310509F080E0232B09F0789463
:1044E00008952F923F924F925F926F927F928F9298
:1044F0009F92AF92BF92CF92DF92EF92FF920F9373
:104500001F93CF93DF933C01660E771EF3018281E8
:1045100093814C01B12CA12CC091E704D091E80407
:10452000209769F021E030E06091E9047091EA049D
:104530008617970710F030E020E0232BD1F482E0BB
:1045400090E0FA01918380838EEF9FEFDF91CF910E
:104550001F910F91FF90EF90DF90CF90BF90AF90A1
:104560009F908F907F906F905F904F903F902F9093
:10457000089580921F0390922003A0922103B0928D
:10458000220363E1689F9001699F300D1124C20FDF
:10459000D31FF3018181833040F082E090E0FA0183
:1045A0009183808386EF9FEFD1CF2A012B813C81BD
:1045B000232BF1F4288139819F8191FF2EC0232B79
:1045C00009F46FC02091EC049A81422F490F5527BE
:1045D000551FBA0141E050E06138710514F050E018
:1045E00040E0452B09F45DC02A87920F9093EC04BC
:1045F0008150823008F481C066DF882309F4D8C076
:10460000F3018181813009F48DC008F47BC08230D0
:1046100009F4C6C090E080E0ADC0232B09F441C08E
:104620002091EB049A81E22FE90FFF27FF1F41E061
:1046300050E0ED3FF10514F050E040E0452B89F1EA
:104640002A87920F9093EB04D3CFA081B181A20F60
:10465000B31F11966C91060F111D0196295F3F4FF4
:104660008417950794F38D859E85089F1001099FF7
:10467000300C189F300C1124C114D104D1F48F8157
:1046800084FF17C00E94F22BF5E02F0E311C21E0B1
:104690008215930508F420E0A701435F5F4F2111C5
:1046A0000EC082E090E0F2019183808387EF9FEF5C
:1046B0004DCF0E94F22B2FEF221A320AE8CF8881C9
:1046C0009981E80EF91EF70114830383FFEFCF1AD7
:1046D000DF0A7A018A818C151D0409F00CF48CCF55
:1046E000E881F981EE0DFF1D428150E030E020E0CD
:1046F00010E000E090E080E0B3CFF12CE12CD12C71
:10470000C12CE8CF81E090E09C838B83F1DA882391
:1047100009F480CF81E090E00E94F51A80E40E94C5
:10472000031B78CF89899A89019661F083E090E034
:104730009C838B8382E090E00E94F51A80E40E94C3
:10474000FD1A68CF8D819E8120911503309116034B
:1047500082179307D1F46091190370911A03AE0187
:104760004F5E5F4F80911703909118030E947B2E3C
:104770000097E1F2789422E030E0F2013183208367
:10478000892B99F08DEF9FEFE1CE89288A288B281D
:1047900069F6029758F6CE0167DE188A1F86E8CFC1
:1047A00082E090E09C838B8335CF90E080E0CECE9A
:1047B00082E090E0F2019183808385EF9FEFC6CE87
:1047C0008F929F92AF92BF92CF92DF92EF92FF9221
:1047D0000F931F93CF93DF93EA018C01060F171FEE
:1047E000F8018181833098F082E090E0998388839A
:1047F00086EF9FEFDF91CF911F910F91FF90EF9088
:10480000DF90CF90BF90AF909F908F900895809150
:10481000E7049091E804892B61F081E090E0209119
:10482000E9043091EA04232B11F490E080E0892B15
:1048300039F482E090E0998388838EEF9FEFDACF9E
:1048400042DE882309F4E0C0F8018181813009F457
:1048500096C0E8F0823099F42091E9043091EA049E
:10486000E091E704F091E80490E080E041E050E05E
:104870002817390709F0BEC03BDA811117C07894B8
:1048800081E090E09983888390E080E0B3CF20912D
:10489000E9043091EA04E091E704F091E80490E043
:1048A00080E041E050E02817390741F481E090E0D2
:1048B0000E94F51A80E40E94031BE1CF638174819A
:1048C000672B11F05483438301967396ECCFE091EC
:1048D000E704F091E804E00FF11F238134812230D6
:1048E0003105D9F4218932892F3F3F4FB1F4258119
:1048F000368140911503509116032417350761F551
:10490000AF014F5E5F4F6091190370911A03809160
:104910001703909118030E947B2EEFEFCE1ADE0A48
:10492000EE0AFE0A0D5E1F4F4091E9045091EA0421
:1049300070E060E0C416D506E606F70644F5009779
:1049400031F27894892B09F49BCF82E090E099832F
:1049500088838DEF9FEF4ECFC114D104E104F104A1
:10496000E1F622303105C8F6CF017EDDE091E704A3
:10497000F091E804E00FF11F108A1786CECF10E007
:1049800000E090E080E0C12CD12C7601CDCF0097E3
:10499000C1F610E000E0812C912C540183E0E82E58
:1049A000F12C1AC0E091E704F091E804E00FF11F48
:1049B00083819481029749F4F482E38282E090E05B
:1049C0000E94F51A80E40E94FD1AFFEF8F1A9F0AD9
:1049D000AF0ABF0A0D5E1F4F8091E9049091EA046F
:1049E000B0E0A0E088169906AA06BB06DCF290E0CB
:1049F00080E0A7CF638174816230710511F4548324
:104A000043830196739634CF82E090E09983888344
:104A100085EF9FEFEFCE0097B9F48FEFFB01808316
:104A200020911F033091200343E1429FC001439F27
:104A3000900D1124E091E704F091E804E80FF91FCC
:104A40008285FB01818308950C94AC1A88E090E084
:104A5000FA019183808390E080E008951092E6044B
:104A60001092E504E7EEF4E086E0DF011D928A95FE
:104A7000E9F787EB90E29093E4048093E3040895D0
:104A80008091E3049091E40408952F923F924F9215
:104A90005F926F927F928F929F92AF92BF92CF92CE
:104AA000DF92EF92FF920F931F93CF93DF93CDB7D7
:104AB000DEB72F970FB6F894DEBF0FBECDBFF894C8
:104AC000E091E504F091E6043196F093E604E0937A
:104AD000E50478944090E7045090E80441145104B0
:104AE00009F40CC2E091E904F091EA04EF2B09F417
:104AF00005C22D8749875A876B877C8798878F8364
:104B00001201B12CA12C10E000E08091E9049091F9
:104B1000EA04A816B90618F40115110529F1F8944C
:104B20008091E5049091E60401979093E6048093C8
:104B3000E5047894C8012F960FB6F894DEBF0FBE37
:104B4000CDBFDF91CF911F910F91FF90EF90DF903C
:104B5000CF90BF90AF909F908F907F906F905F901D
:104B60004F903F902F9008957101E418F508D101FE
:104B700017968C91179781FD54C013968D919C9137
:104B80001497039709F04DC015968D919C91EF8174
:104B9000F8858E179F0709F044C0B50190E080E0CA
:104BA0007FD48A832091E7043091E8043D832C83ED
:104BB0003D85332309F44CC04C815D81452B09F4BC
:104BC0009AC18091E9049091EA04A816B90608F008
:104BD00092C1C501D7D88823E9F06C817D816E0D23
:104BE0007F1D7D836C83DB011F968D919C91892BAA
:104BF00089F0D12CC12CF12CE12CAC81BD81129615
:104C00008C9112978E151F0409F094F450961C9203
:104C10001E921F972A81222321F0B50190E080E0A7
:104C200041D43FEFA31AB30A43E1240E311C6DCFE8
:104C3000AC81BD81ED91FC91EC0DFD1D85819681CE
:104C40000FD7BFEFEB1AFB0AEDE0CE0ED11CD5CF8C
:104C5000EC81FD81309709F44EC18091E904909177
:104C6000EA04A816B90608F046C1EE0DFF1DFF873D
:104C7000EE87C50187D88B83882339F1AE85BF8540
:104C80001F968D919C915097019621E01D964D9114
:104C90005C918417950709F020E02E831982712C0E
:104CA00010E000E0AE85BF8512968C91781608F46E
:104CB0005DC0EE85FF85878590890196658576853F
:104CC0000E941140908B8787A5CFB1E0BE83E6CFCD
:104CD000992493946BC08BD6F6019683858382C00A
:104CE000D601ED90FC90B7E06B9EE00CF11C112416
:104CF000F7016381748180818F3F61F121E030E0B1
:104D000002C0220F331F8A95E2F7C901092E000C59
:104D1000AA0BBB0BFB01408151816281738184230B
:104D20009523A623B72321E0892B8A2B8B2B09F40B
:104D300020E0D4012C93D70111968C91F6012385A4
:104D40003485820F932F911D880E991E1486138629
:104D500063949BC0418150E0C4010E946840EBCF46
:104D6000998206EF1FEFC5C01982C3C0F981F11106
:104D7000A0CFEDE07E9E70011124AE85BF85CD9061
:104D8000DC90CE0CDF1C15D49D838C83BB81BB23B0
:104D900009F49ECF81E0EE85FF8527853089232B9E
:104DA00009F080E0982E882309F458C0672D8E857D
:104DB0009F850CD8D60118969C938E93179761E027
:104DC00070E0C2D4EE85FF85218932892F3F3207FA
:104DD00009F481CFBC01C901CFD7D60116969C93A7
:104DE0008E931597D60115968D919C9116970097E5
:104DF00009F4B6CFEC81FD818E0F9F1F1A969C930C
:104E00008E931997AE85BF85ED91FC911197EE0EAB
:104E1000FF1EF70121853285148613861A968C9120
:104E2000870DD9018D93711016C0EE85FF8587819E
:104E300084FF11C049855A856B857C85F9014183C2
:104E4000528363837483F701838594850496A80F46
:104E5000B91F14861386F701B287A187D60115966C
:104E60008D919C911697892B09F443C0EE85FF859F
:104E700025813681809115039091160328173907F3
:104E800079F019968D909C90612CD60112968C9198
:104E90001297681608F424CF1A969C928E9219974E
:104EA000BE81BB2309F460CF61E070E0F601878129
:104EB00090854AD4D6011796ED90FC9018971596D8
:104EC0004D915C91E1E0F0E0BA81BB2311F0F0E09C
:104ED000E0E00C811D819C01B501882799278E1B7C
:104EE0009F0B6AD38C01892B21F0F6018581968175
:104EF000B7D57394D7CE0FEF1FEF8CCE10E000E044
:104F00000ECE2F923F924F925F926F927F928F922E
:104F10009F92AF92BF92CF92DF92EF92FF920F9348
:104F20001F93CF93DF938091E7049091E80410E002
:104F300000E0892BA9F0C7DA0AEF1FEF882381F080
:104F40002090E9043090EA04C091E704D091E8048D
:104F5000D12CC12C10E000E02C143D04A9F478946D
:104F6000C801DF91CF911F910F91FF90EF90DF90DB
:104F7000CF90BF90AF909F908F907F906F905F90F9
:104F80004F903F902F900895C6010E94C21E882323
:104F900009F18B819C810397E9F48F859889892B8E
:104FA000C9F0B60190E080E07BD221E030E08823B8
:104FB00011F030E020E044245524421A530AB12C69
:104FC000A12C912C812C8A818815190409F038F4C0
:104FD000188A1F864FEFC41AD40A6396BDCFE881A2
:104FE000F981EA0DFB1D85819681892BA1F161E094
:104FF00070E087819085A8D33C01DBD28C01E881E9
:10500000F981EA0DFB1D8185928525813681200F6E
:10501000311FAC01421B530B9A0147815085421B43
:10502000530B70E060E00E947140E881F981EA0D65
:10503000FB1DE780F084458156819301B601C201D2
:10504000BBD28C01892B39F0E881F981EA0DFB1D77
:105050008581968105D55FEF851A950A8DE0A80EAA
:10506000B11CB1CF30CA789408952F923F924F92DD
:105070005F926F927F929F92AF92BF92CF92DF9298
:10508000EF92FF920F931F93CF93DF9300D000D046
:10509000CDB7DEB70091E7041091E804992493940A
:1050A0000115110509F43EC0A090E904B090EA048E
:1050B0000ADA982E8823B1F11092E8041092E704DE
:1050C0001092EA041092E9041092EB041092EC049E
:1050D0008FEF9FEFDC0180931F0390932003A09339
:1050E0002103B093220378947FD31E830D83C12CB8
:1050F000D12C7601C501B0E0A0E089839A83AB830F
:10510000BC8322242A94322C89819A81AB81BC8170
:10511000C816D906EA06FB06F4F0C801A1D480E45B
:105120000E94031B892D26960FB6F894DEBF0FBE92
:10513000CDBFDF91CF911F910F91FF90EF90DF9046
:10514000CF90BF90AF909F907F906F905F904F9067
:105150003F902F900895AD81BE8115968D919C91C1
:105160001697209115033091160382179307D1F4F7
:1051700051968D919C91EED5ED81FE81808191813A
:10518000B12CA12C412C512C3201892B89F5BFEF78
:10519000CB1ADB0AEB0AFB0AED81FE817396FE83D4
:1051A000ED83B2CFC114D104E104F10429F70297D1
:1051B00018F7ED81FE81818992898F3F980709F068
:1051C00029D5AD81BE8152963C922E925197D4CF73
:1051D0008A0D9B1DDC018D919C91009709F040D4B4
:1051E000BFEF4B1A5B0A6B0A7B0AEDE0AE0EB11CF7
:1051F000AD81BE818D919C91119712964C9150E09A
:1052000070E060E044165506660677060CF328D475
:10521000BECFCF93DF93EA0128DF811109C082E07E
:1052200090E09983888385EF9FEFDF91CF91089578
:1052300081E090E00E94F51A81E090E099838883F4
:1052400090E080E0F2CF11DF1092E4041092E304CA
:10525000089542E050E06EEC73E00C94131BFF9253
:105260000F931F93CF93DF938A01EC01C60FD71FD3
:10527000F980B9D20897F816190671F068F082E043
:1052800090E0F801918380838EEF9FEFDF91CF91C3
:105290001F910F91FF9008956C817D818E819F8178
:1052A0004B810E94A81D811108C082E090E0F801A6
:1052B0009183808384EF9FEFE9CFF9800E94A31D43
:1052C0004F2D50E0BE01685F7F4F0E94684089818A
:1052D0000E94121E81E090E0F8019183808390E0AB
:1052E00080E0D4CFDF92EF92FF920F931F93CF9382
:1052F000DF938A01EC01C60FD71F0E94A31D7C011A
:10530000D98071D2DD2059F0029721E030E0D81623
:10531000190619F010F030E020E0232B79F482E038
:1053200090E0F801918380838EEF9FEFDF91CF9122
:105330001F910F91FF90EF90DF900895EF2841F4B7
:1053400082E090E0F8019183808384EF9FEFEECFBD
:10535000F9800E94A31D4F2D50E0BE016E5F7F4F6C
:105360000E94684089810E94121E81E090E0F8014D
:105370009183808390E080E0D9CF89E299E2909395
:10538000EE048093ED0408958091ED049091EE0475
:1053900008950895FC0111821082938382830895F9
:1053A000DB011D921C92DC011296ED91FC9113978A
:1053B0007183608313967C936E9312970895FC011A
:1053C00080819181DB018D939C93A081B1811097A5
:1053D00041F08D919C9191838083892B11F4F3830B
:1053E000E2830895FC0180819181DB018D939C9380
:1053F000892B11F473836283718360830895FC01A8
:1054000011821082938382830895CF93DF931F923A
:105410001F92CDB7DEB71A821982F894BE016F5F72
:105420007F4F84EF94E0CBDF89819A81009709F068
:1054300017D389819A81892B89F7BE016F5F7F4FCE
:1054400088EF94E0BCDF89819A81009709F008D346
:1054500089819A81892B89F778940F900F90DF9139
:10546000CF910895CF93DF931F921F92CDB7DEB7F0
:105470001A821982F894BE016F5F7F4F80EF94E02B
:105480009EDF89819A81009709F0EAD289819A8109
:10549000892B89F778940F900F90DF91CF91089521
:1054A00081E0089590E080E00895EF92FF920F93DD
:1054B0001F93CF93DF931F921F92CDB7DEB71A824F
:1054C00019828091EF0407EF1FEF8823A1F1F89470
:1054D000BE016F5F7F4F88EF94E071DF7894898120
:1054E0009A81EE24E394F12C892B51F4F894BE01B7
:1054F0006F5F7F4F84EF94E062DF7894F12CE12CB2
:1055000089819A810EEF1FEF0097A9F0FC0142817B
:10551000538164E070E076D68C01892B61F0F894B9
:1055200069817A81C701880F991F880F991F8C5054
:105530009B4F58DF7894C8010F900F90DF91CF9167
:105540001F910F91FF90EF9008950F931F93CF93AA
:10555000DF9300D01F92CDB7DEB71C821B821A8268
:1055600019828091EF0407EF1FEF8823C1F0AE018D
:105570004D5F5F4F64E070E0CE010196B6D68C01BE
:10558000892B69F4E981FA818B819C8193838283E1
:10559000F89469817A8180EF94E002DF7894C80101
:1055A0000F900F900F900F90DF91CF911F910F915F
:1055B0000895BBD7049608958F929F92AF92BF92A1
:1055C000CF92DF92EF92FF920F931F93CF93DF93CF
:1055D0001F921F92CDB7DEB71A821982BC016F5F8E
:1055E0007F4F6330710598F0AA24AA94BA2CC501A4
:1055F0000F900F90DF91CF911F910F91FF90EF903F
:10560000DF90CF90BF90AF909F908F9008954115FD
:10561000510551F3480159018A016C01CADF88150F
:10562000990511F7E114F104F9F28E0D9F1DA816EA
:10563000B906D0F28091EF048823F1F0F894B50117
:10564000645071099701AE014F5F5F4FC801049626
:10565000E1D65C01892B71F489819A81F8019383E9
:105660008283C601880F991F880F991FB8018C503B
:105670009B4F96DE7894BBCF87EFA82EBB24BA94BD
:10568000B6CFAF92BF92CF92DF92EF92FF920F937D
:105690001F93CF93DF931F921F92CDB7DEB71A826D
:1056A0001982892B09F047C06115710509F443C0BF
:1056B0004115510509F43FC02115310509F43BC0DE
:1056C00001151105C1F18091EF048823B9F1790129
:1056D0006A015B01F894BE016F5F7F4F80EF94E039
:1056E0006EDE789489819A81009759F1DC011296D7
:1056F0006D917C91A8010496A6D68C01E981FA816E
:10570000D501ED93FC93828193810496F6019183F8
:1057100080834FDFD7018D939C93C8010F900F902A
:10572000DF91CF911F910F91FF90EF90DF90CF907D
:10573000BF90AF9008950FEF1FEFEFCF07EF1FEF70
:10574000ECCF0EEF1FEFE9CFCF93DF93EC01672B88
:1057500071F4F4D68C179D0760F0E7D62496C80F35
:10576000D91FE6D68C0F9D1FDF91CF910895E3D608
:10577000F1CF90E080E0F8CF0F931F93CF93DF93AA
:105780002091EF0421112BC08B01EC0184EF94E0F8
:1057900001DE88EF94E0FEDD80EF94E0FBDD97D042
:1057A0000097C1F4CBD670E060E0CEDF43E253E077
:1057B00062E070E081D1009769F4809123039091B9
:1057C0002403CED6B801CE0103D5009719F421E009
:1057D0002093EF04DF91CF911F910F91089584EFF3
:1057E0009FEFF8CFA8C6AAC6CF93DF93AAD6EC0145
:1057F000892B11F40ADE36DECE01DF91CF910895B8
:10580000CF93DF939ED6EC01892B09F4FEDDCE0108
:10581000DF91CF91089580912303909124030895FF
:10582000CF93DF938091EF04D0E0C0E08823D1F0E4
:105830009CD6EC01892BB1F4E8DD14DE80912303C2
:1058400090912403E7D1E8D2EC01892B59F484EF3D
:1058500094E0D5DD88EF94E0D2DD80EF94E0CFDDF9
:105860001092EF04CE01DF91CF910895EF92FF9255
:105870000F931F93CF93DF93EC017A018B010F5F9E
:105880001F4F0E9DA0010F9D500D1E9D500D112408
:1058900070E060E00E94714090E080E0F0E0E0E0C5
:1058A0002FEFE816F90639F4DF91CF911F910F9190
:1058B000FF90EF9008951A8219822883309711F093
:1058C000D283C1830196FE01C00FD11FEACFCF92D0
:1058D000DF92EF92FF920F931F93CF93DF9305E830
:1058E00016E00C7F43E050E065E273E08BE293E06A
:1058F0001CD485E2E82E83E0F82E9BE2C92E93E0CB
:10590000D92ECCE4D7E0D7014D915D917D01F60110
:10591000619171916F01198308835D834C835B836F
:105920004A837F836E839B012F5F3F4F249FC0017B
:10593000259F900D349F900D11249987888701151C
:10594000110511F0C80192DF88859985080F191F8C
:105950002A96FBE2EF16F3E0FF06A9F6EEEFF4E07D
:1059600084E891E0DF019C011D9221503040E1F775
:105970001092FD041092FC0410926B0710926A07BB
:1059800010926F0710926E0710926D0710926C07BD
:10599000109271071092700710927307109272079D
:1059A0001092750710927407109279071092780779
:1059B000109277071092760710927B0710927A0761
:1059C00010927D0710927C071092490710924807A9
:1059D00010924B0710924A0790E080E0DF91CF9140
:1059E0001F910F91FF90EF90DF90CF900895009757
:1059F000F1F0F894ABE2B3E0ECE4F7E030E020E063
:105A00004D915D9148175907A8F042815381411586
:105A1000510581F08AE0829FF001839FF00D1124EF
:105A2000E45BF84F80819181009759F4789490E07D
:105A300080E008952F5F3F4F3A962330310501F7FC
:105A4000F5CFDC0111966D917C917183608341509B
:105A5000510953834283FC012193CF017894089527
:105A6000009749F1DC018E91853041F4E0914A07BD
:105A7000F0914B073097F9F0CD0119948530D8F4A7
:105A8000282F30E0F8948FEF8C938AE0829FF0010A
:105A9000839FF00D1124E45BF84F80819181129671
:105AA0009C938E931197B183A083828193810196F9
:105AB0009383828378940895CF92DF92EF92FF923E
:105AC0000F931F93CF93DF939C0181E095E08C7F30
:105AD0004115510509F49BC02115310509F497C002
