:1000000005C100000C944F320C947A320C94A53246
:100010000C94D0320C94FB320C9426330C94513354
:100020000C947C3324C1000022C1000020C10000D8
:100030001EC100001CC100001AC1000018C1000050
:1000400016C1000014C1000012C1000010C1000060
:100050000EC100000CC100000AC100000C94A733BF
:1000600006C100000C94A3370C94D93700C10000DE
:10007000FEC00000FCC00000FAC00000F8C0000094
:10008000F6C00000F4C00000F2C00000F0C00000A4
:100090000C942F380C946538EAC00000E8C00000CA
:1000A000E6C00000E4C00000E2C00000E0C00000C4
:1000B000DEC00000DCC00000DAC00000D8C00000D4
:1000C000D6C00000D4C000000C943C2D0C94BB386A
:1000D0000C94F138CCC000000C9447390C947D3955
:1000E000C6C0000000000A0B02090C0D0E08070331
:1000F00004010000000000000000000000000000FB
:1001000000000000000000000000000000000000EF
:1001100012111000000000000000000000000000AC
:100120000000000000000000000001021020200874
:100130000810204010204080020102010804020142
:1001400001020408102040808040201008040201B1
:10015000800402018040201008040201080402010A
:100160000102040810204080010204081020408091
:1001700005050505070508080808020202020A0A23
:100180000808040404040101010101010101030341
:10019000030303030303040707070C0C0C0C0C0CEC
:1001A0000C0C0202020206060606060606060B0BE9
:1001B0000B0B0B0B0B0B000020002300260029006B
:1001C0002C002F003200000100000301060109018C
:1001D00000002200250028002B002E0031003400F2
:1001E00002010000050108010B01000021002400AC
:1001F00027002A002D003000330001010000040117
:1002000007010A0102388E381A39A63911241FBE97
:10021000CFEFD1E2DEBFCDBF00E00CBF13E0A0E026
:10022000B2E0E4EDF4E700E00BBF02C007900D92EE
:10023000A434B107D9F729E0A4E4B3E001C01D92CA
:10024000AB30B207E1F711E0C6E0D1E000E006C054
:1002500021970109802FFE010E94373AC230D10751
:1002600080E00807A9F70E94CB2E0C94683AC8CE0C
:10027000611102C00C94E8356130E1F362E0FACF1D
:10028000662319F061E00C94243660E0FCCFCF9334
:10029000DF93EC0170E060E06C177D070CF5072E32
:1002A000000C880B990B0E946A3020E030E0A90115
:1002B0000E94542F20E030E0A9010E94542F20E03A
:1002C00030E040E450E40E94542F20E030E040E46D
:1002D00050E40E94532F0E9437306F5F7F4FDCCF76
:1002E000DF91CF910895CF93DF9380915403909144
:1002F00055030E945136EC0180915A0390915B03A3
:10030000C6DF80915603909157030E9451360197A2
:1003100071F48091580390915903219771F40196DB
:100320009093590380935803DF91CF910895809162
:10033000580390915903CD2B91F30197F1CFCF93AF
:10034000DF9380914C0390914D030E945136EC0154
:1003500080915203909153039ADF80914E039091C4
:100360004F030E945136019771F480915003909190
:100370005103219771F40196909351038093500398
:10038000DF91CF9108958091500390915103CD2B2F
:1003900091F30197F1CFCF93DF9380914403909134
:1003A00045030E945136EC0180914A0390914B0322
:1003B0006EDF80914603909147030E94513601976A
:1003C00071F48091480390914903219771F401964B
:1003D0009093490380934803DF91CF9108958091D2
:1003E000480390914903CD2B91F30197F1CFCF931F
:1003F000DF9380914E0390914F030E945136EC01A0
:10040000809152039091530342DF80914C0390916D
:100410004D030E945136019771F4809150039091E1
:100420005103CD2B71F401969093510380935003A7
:10043000DF91CF91089580915003909151032197BE
:1004400091F30197F1CFCF93DF9380914603909181
:1004500047030E945136EC0180914A0390914B036F
:1004600016DF80914403909145030E945136019715
:1004700071F48091480390914903CD2B71F401965A
:100480009093490380934803DF91CF910895809121
:10049000480390914903219791F30197F1CFCF93AE
:1004A000DF9380915603909157030E945136EC01DF
:1004B00080915A0390915B03EADE809154039091FE
:1004C00055030E945136019771F480915803909121
:1004D0005903CD2B71F401969093590380935803DF
:1004E000DF91CF91089580915803909159032197FE
:1004F00091F30197F1CF0F931F93CF93DF938C016B
:10050000EC0183E0CC0FDD1F8A95E1F7CC5BDC4F7B
:10051000798368835B834A838881998160E00E9444
:10052000E8358A819B8160E00E94E8358881998165
:1005300061E00E9424368A819B8161E00E9424361A
:1005400001301105D9F10230110509F466C0012B03
:1005500009F092C080914403909145030297843141
:10056000910530F583569D4FFC018081082E000CCB
:10057000990B41E050E063E272E00E94D531809136
:10058000460390914703029784319105A0F4835666
:100590009D4FFC018081082E000C990B41E050E03A
:1005A0006BEC71E0DF91CF911F910F910C94D531DD
:1005B0008FEF9FEFDECF8FEF9FEFF0CF80914C0357
:1005C00090914D0302978431910508F583569D4F14
:1005D000FC018081082E000C990B41E050E067EF90
:1005E00071E00E94D53180914E0390914F030297A4
:1005F0008431910578F483569D4FFC018081082E4B
:10060000000C990B41E050E06FE971E0CBCF8FEF28
:100610009FEFE3CF8FEF9FEFF5CF80915403909141
:10062000550302978431910508F583569D4FFC01CF
:100630008081082E000C990B41E050E06FE472E0DD
:100640000E94D531809156039091570302978431CF
:10065000910578F483569D4FFC018081082E000C93
:10066000990B41E050E063E771E09CCF8FEF9FEF83
:10067000E3CF8FEF9FEFF5CFDF91CF911F910F91D8
:10068000089523E0880F991F2A95E1F7FC01EC5BA0
:10069000FC4F848195810895CF92DF92EF92FF9273
:1006A000CF93882351F16A017B01CFEFC80F20E07F
:1006B00030E0A901CB01B6010E94CB2F18168CF0B7
:1006C000C701B60190580E943C309B01AC016C2FD1
:1006D00070E090E080E0CF91FF90EF90DF90CF90BE
:1006E000B2C0C701B6010E9437308C2FCF91FF9066
:1006F000EF90DF90CF900C94AE34CF91FF90EF90BD
:10070000DF90CF9008950F931F938B019C0183E09E
:1007100036952795179507958A95D1F7045A1C4F5A
:10072000462F477021E030E0F90102C0EE0FFF1FB5
:100730004A95E2F7AF01F80120812423CB0101960D
:10074000211102C090E080E01F910F9108950F9356
:100750001F938B019C0183E036952795179507958C
:100760008A95D1F7677081E090E001C0880F6A95A3
:10077000EAF7F801E45AFC4F2081452B31F48095CB
:10078000822380831F910F910895822BFACF2F929D
:100790003F924F925F926F927F928F929F92AF9211
:1007A000BF92CF92DF92EF92FF920F931F93CF935E
:1007B000DF93D62EC72E782E692E49015A012801C3
:1007C00061E08D2D0E94E835CD2DDC2D8E010F5F6F
:1007D0001F4FA8016D2D7C2D872D962DB8DF20E0B1
:1007E00030E0A901C201B7010E946D31181664F40E
:1007F000C201B7010E943C302B01C501B4010E9427
:100800003C30A201CE0123D0C801DF91CF911F91CE
:100810000F91FF90EF90DF90CF90BF90AF909F909F
:100820008F907F906F905F904F903F902F900895A2
:10083000882341F08150682F70E090E080E050E024
:1008400040E085CF0895862FB9010C94AE349C0109
:10085000FC01EC51FF4FE491E150E231E0F4F0E0B3
:100860008827EA5CFB4F8F4F0C94373A48044F04BB
:10087000520469047E044B0493049F04A304BA0445
:10088000CF04E404FB0410054B0425053C05510589
:1008900084B5806884BD60E0822F0C94243684B5D2
:1008A0008062F8CF809180008C7F8260809380008E
:1008B00080918100807E8061682B609381005093DD
:1008C000870040938600809180008068809380003C
:1008D000E2CF809180008C7F826080938000809145
:1008E0008100807E8061682B609381005093870037
:1008F00040938600809180008062E8CF80918000E4
:100900008C7F82608093800080918100807E8061F6
:10091000682B6093810050938700409386008091FC
:1009200080008860D3CF8091B00080688093B00051
:100930008091B100887F682B6093B100ACCF80912B
:10094000B0008062F3CF809190008C7F82608093B2
:10095000900080919100807E8061682B609391006F
:100960005093970040939600809190008068809308
:10097000900091CF809190008C7F82608093900056
:1009800080919100807E8061682B609391005093EC
:10099000970040939600809190008062E8CF80910C
:1009A00090008C7F82608093900080919100807E87
:1009B0008061682B6093910050939700409396005C
:1009C000809190008860D3CF8091A0008C7F82605E
:1009D0008093A0008091A100807E8061682B60934D
:1009E000A1005093A7004093A6008091A0008068CA
:1009F0008093A00050CF8091A0008C7F8260809374
:100A0000A0008091A100807E8061682B6093A1008E
:100A10005093A7004093A6008091A0008062E8CF89
:100A20008091A0008C7F82608093A0008091A100C3
:100A3000807E8061682B6093A1005093A700409353
:100A4000A6008091A0008860D3CF809120018C7F88
:100A500082608093200180912101807E8061682BDB
:100A6000609321015093270140932601809120013A
:100A70008068809320010FCF809120018C7F82605D
:100A80008093200180912101807E8061682B60939A
:100A9000210150932701409326018091200180621B
:100AA000E8CF809120018C7F82608093200180912B
:100AB0002101807E8061682B609321015093270182
:100AC00040932601809120018860D3CF90E080E0A0
:100AD00008950F931F93009709F489C0611571055C
:100AE00009F485C0009164021091650220916602AC
:100AF000309167020E3F1F4F2F4F3F4F09F068C0E4
:100B00004FEF5FEFBA014093640250936502609328
:100B10006602709367024091640250916502609191
:100B2000660270916702DC011296ED91FC91808162
:100B30009181A281B3818093EB039093EC03A09306
:100B4000ED03B093EE0384819581A681B7818093F4
:100B5000E7039093E803A093E903B093EA03808549
:100B60009185A285B3858093E3039093E403A093DA
:100B7000E503B093E60384859585A685B7858093C4
:100B8000DF039093E003A093E103B093E20310929C
:100B9000DB031092DC031092DD031092DE030E944F
:100BA000211186E491E1909366038093650390930D
:100BB0006803809367030E941010009731F421E0CE
:100BC00030E03093F0032093EF031F910F910895CD
:100BD00000916402109165022091660230916702D3
:100BE000DB010D931D932D933C93139794CF8FEFBF
:100BF0009FEFEBCF8F929F92AF92BF92CF92DF92F7
:100C0000EF92FF921F93CF93DF934B015C01109102
:100C1000F20382E090E09093F0038093EF0381145D
:100C20009104A104B10441F48091F203811104C044
:100C30008091F103C1E08111C0E0C12CD12C76017B
:100C40008091F203811106C08091F103811102C0ED
:100C5000CC23D9F083E090E09093F0038093EF03EE
:100C6000CC2381F1CCE9DFEF111102C00E94AA145C
:100C7000CE01DF91CF911F91FF90EF90DF90CF9049
:100C8000BF90AF909F908F9008956AE070E080E0F1
:100C900090E00E94163480E1C80E87E2D81EE11C65
:100CA000F11C8FEF88169806A806B80631F0C1E04F
:100CB0008C149D04AE04BF0408F0C0E080E00E94E4
:100CC0004410BECFD0E0C0E0CFCFCF92DF92EF9202
:100CD000FF920F931F93CF93DF938F3F910511F0F6
:100CE00008F051C02091EF033091F003233031051B
:100CF00039F02091EF033091F0032130310531F4C8
:100D000024E030E03093F0032093EF036A017B018D
:100D1000EC0182309105A8F011E0AE01C701B601E7
:100D20000E940F10AB01BC01CE011123F9F0DF913D
:100D3000CF911F910F91FF90EF90DF90CF900C9487
:100D4000D3168C01000F111F0B591C4FD8018D9128
:100D50009C91892B09F30E94DD160297E9F6D801D0
:100D6000ED91FC91CE011995182FD7CF0E94F51661
:100D700090E080E0DF91CF911F910F91FF90EF9075
:100D8000DF90CF9008958FEF9FEFF4CF80E00C9429
:100D90004410CF93DF9386E090E09093F00380932C
:100DA000EF030E949D10EC01E5E6F3E084E0DF0133
:100DB0001D928A95E9F70E9442141092F003109256
:100DC000EF03CE01DF91CF9108958091F103089553
:100DD0008091DA03089560936402709365028093B2
:100DE00066029093670290E080E00895FC0191E034
:100DF0008091B803811190E091830895CF92DF92A2
:100E0000EF92FF926B017C019F7720E030E040E899
:100E100059E50E94CB2F87FF2BC020E030E040E057
:100E20005FE3C701B6010E946D3187FD0EC020E06F
:100E300030E040E05FE3C701B6010E94542FFF900D
:100E4000EF90DF90CF900C94A53020E030E040E0B0
:100E50005FEBC701B6010E946D31181684F420E0E3
:100E600030E0A901C701B6010E9471316B017C011C
:100E7000C701B601FF90EF90DF90CF90089520E07A
:100E800030E040E05FE3C701B6010E94532FFF90BE
:100E9000EF90DF90CF900C94B82F4F925F926F92AB
:100EA0007F928F929F92AF92BF92CF92DF92EF92FA
:100EB000FF928091B8038F5F8A3008F070C08093F2
:100EC000B803C090A303D090A403E090A503F090D2
:100ED000A6038FEFC81AD80AE80AF80AC092A3033B
:100EE000D092A403E092A503F092A603C114D1040A
:100EF000E104F10499F48091A7039091A803A091D3
:100F0000A903B091AA030196A11DB11D8093A70367
:100F10009093A803A093A903B093AA038090AB0376
:100F20009090AC03A090AD03B090AE036091A70386
:100F30007091A8038091A9039091AA030E94683040
:100F4000A50194010E94713120E030E040E85FE4A7
:100F50000E9471312B013C01C701B6010E9468302B
:100F6000A50194010E9471319B01AC01C301B20142
:100F70000E94542F60939F037093A0038093A1035A
:100F80009093A203FF90EF90DF90CF90BF90AF902F
:100F90009F908F907F906F905F904F9008951092E8
:100FA000B8038FCF4F925F926F927F928F929F92F2
:100FB000AF92BF92CF92DF92EF92FF920F931F9367
:100FC000CF93DF93C0901402D0901502E0901602E8
:100FD000F0901702A701960160919A0870919B0802
:100FE00080919C0890919D080E94CB2F8823B1F09E
:100FF000C701B601CDD6882309F490C080901402B1
:1010000090901502A0901602B090170280929A0854
:1010100090929B08A0929C08B0929D0881E090E07D
:1010200030DBBC01990F880B990B0E946A3020912C
:1010300028023091290240912A0250912B020E94ED
:1010400071316B017C01AC019B0160912C027091AC
:101050002D0280912E0290912F020E947131609397
:10106000D5087093D6088093D7089093D80820911C
:10107000D9083091DA084091DB085091DC08609182
:1010800010027091110280911202909113020E943D
:1010900071314B015C0140900C0250900D02609048
:1010A0000E0270900F02AC019B01C301B2010E94BD
:1010B000CB2F18166CF4C301B201AFD6811108C052
:1010C00080900C0290900D02A0900E02B0900F0242
:1010D0008091CF08882309F43EC0C092B608D09210
:1010E000B708E092B808F092B908409038025090E2
:1010F000390260903A0270903B02A7019601C30149
:10110000B2010E94CB2F87FF16C04092B6085092C2
:10111000B7086092B8087092B9081DC060911402B7
:1011200070911502809116029091170276D688234D
:1011300009F464CF6BCF40903C0250903D02609028
:101140003E0270903F02A7019601C301B2010E94C6
:101150006D311816D4F220E030E0A9016091300220
:101160007091310280913202909133020E94CB2F14
:10117000811104C08091CE08882389F1C092B608FD
:10118000D092B708E092B808F092B90840903802BF
:101190005090390260903A0270903B02A70196018C
:1011A000C301B2010E94CB2F87FF09C04092B6084D
:1011B0005092B7086092B8087092B90810C0409079
:1011C0003C0250903D0260903E0270903F02A701A9
:1011D0009601C301B2010E946D3118163CF3409094
:1011E000B6085090B7086090B8087090B9080091A0
:1011F000400210914102D0914202C09143029801F5
:101200004D2F5C2FB201C3010E946D311816A4F05E
:101210000091440210914502D0914602C0914702CC
:1012200098014D2F5C2FB201C3010E94CB2F87FD87
:1012300003C08201D62DC72D20E030E0A901C501F1
:10124000B4010E94CB2F412C512C90E8692E95E2DD
:10125000792E882319F0412C512C320198014D2F01
:101260005C2FC701B6010E94532F6B017C01A301C3
:101270009201C501B4010E94542F9B01AC0160E0B2
:1012800070E080E89FE30E94CF2FA70196010E94A3
:1012900071314B015C0120910802309109024091AB
:1012A0000A0250910B020E9471316B017C01009186
:1012B000040210910502D0910602C09107029B0121
:1012C000AC01B8018D2F9C2F0E94CB2F87FD14C03D
:1012D0000091000210910102D0910202C09103021C
:1012E0009601A701B8018D2F9C2F0E946D31181611
:1012F0001CF08601DE2DCF2D98014D2F5C2F6091C3
:1013000048027091490280914A0290914B020E94DA
:1013100071316093E1087093E2088093E308909341
:10132000E408C0904C02D0904D02E0904E02F09044
:101330004F02C092E508D092E608E092E708F092EA
:10134000E8088FEF9FEFDC018093C6089093C708F1
:10135000A093C808B093C9088091D008811144C1F6
:1013600081E08093D00883E090E0A0E0B0E080933B
:10137000CA089093CB08A093CC08B093CD08F7FA95
:10138000F094F7F8F094C092ED08D092EE08E09255
:10139000EF08F092F0080091ED081091EE08D0915E
:1013A000EF08C091F00898014D2F5C2F609150021A
:1013B0007091510280915202909153020E947131BA
:1013C0006093E9087093EA088093EB089093EC0827
:1013D000C0905402D0905502E0905602F09057020F
:1013E000A7019601B8018D2F9C2F0E946D31181610
:1013F000A4F0C0905802D0905902E0905A02F090A8
:101400005B02A7019601B8018D2F9C2F0E94CB2F64
:1014100087FD03C06801ED2EFC2EC701B601FDD487
:10142000C82F882309F48FC12091FD083091FE0850
:101430004091FF085091000960915C0270915D023B
:1014400080915E0290915F020E94CB2F87FF9AC12C
:1014500060912002709121028091220290912302DA
:10146000CDDC2B013C0120E030E040E853E40E9459
:10147000CB2F6FEF87FF0EC020E030E0A901C30142
:10148000B2010E946D3160E087FD04C0C301B2016A
:101490000E943C308AE00E944001CC2309F47BC1C9
:1014A0002091FD083091FE084091FF0850910009FD
:1014B000609160027091610280916202909163027A
:1014C0000E94CB2F87FF86C160911802709119028C
:1014D00080911A0290911B0291DC2B013C0120E0CB
:1014E00030E040E853E40E94CB2F6FEF87FF0EC03F
:1014F00020E030E0A901C301B2010E946D3160E03B
:1015000087FD04C0C301B2010E943C3089E00E9403
:10151000400168E070E080E090E0F5D8EC01909345
:10152000B5088093B408E894F7F820E030E04FE77E
:1015300053E4C701B6010E94CB2F181634F4C12C16
:10154000D12C8FE7E82E83E4F82EB701A601CE0157
:10155000A3D81092CF08C0903002D0903102E09012
:101560003202F090330220E030E0A901C701B60159
:101570000E94CB2F811147C1209134023091350256
:101580004091360250913702C501B4010E94713179
:101590002091B6083091B7084091B8085091B90829
:1015A0000E94542F4B015C018092B6089092B708BC
:1015B000A092B808B092B908409038025090390211
:1015C00060903A0270903B02A30192010E946D313B
:1015D00018160CF008C14092B6085092B7086092F5
:1015E000B8087092B9080FC16091D5087091D608FB
:1015F0008091D7089091D8080091CA081091CB0823
:101600002091CC083091CD0802301105210531051B
:1016100059F1033011052105310509F44BC00130A2
:1016200011052105310509F089C020E030E0A9014C
:101630000E94CB2F18160CF4AECE20E030E040E82C
:101640005FE36091BA087091BB088091BC089091EB
:10165000BD080E94542F6093BA087093BB08809312
:10166000BC089093BD087FCE20E030E0A9010E9425
:10167000CB2F18160CF48FCE84E090E0A0E0B0E001
:101680008093CA089093CB08A093CC08B093CD0860
:10169000C701B601905820E030E040E05FE30E94CF
:1016A00071316093ED087093EE088093EF0890938A
:1016B000F00871CE20E030E041E654E40E946D3144
:1016C00087FD69CE4090BA085090BB086090BC0876
:1016D0007090BD0820E030E040E850E4C301B20162
:1016E0000E94CB2F87FF0DC081E090E0A0E0B0E02A
:1016F0008093CA089093CB08A093CC08B093CD08F0
:1017000042CE20E030E040E850E4C301B2010E9444
:101710006D3187FD40CE82E090E0A0E0B0E08093A4
:10172000CA089093CB08A093CC08B093CD0820E0D2
:1017300030E040E05FE3C701B601B1CF20E030E028
:1017400041E654E4E4CF20E030E0A901C701B6014E
:101750000E94CB2F20E030E040E85FEB87FD6CCEAD
:1017600020E030E0A901C701B6010E946D3120E000
:1017700030E040E85FE318160CF45ECE20E030E085
:10178000A9015ACE6091240270912502809126020F
:101790009091270265CE20E030E0A901C701B60193
:1017A0000E94CB2F20E030E040E85FEB87FD80CE49
:1017B00020E030E0A901C701B6010E946D3120E0B0
:1017C00030E040E85FE318160CF472CE20E030E021
:1017D000A9016ECE60911C0270911D0280911E02C3
:1017E00090911F0279CE40903C0250903D02609053
:1017F0003E0270903F02A3019201C501B4010E9414
:10180000CB2F87FDE8CE20E030E0A901C701B6016B
:101810000E946D31181624F481E08093CE0816C022
:1018200020E030E0A901C701B6010E94CB2F87FF5D
:1018300002C08FEFF2CF20E030E0A901C701B6016E
:101840000E94CB2F81113DC01092CE088091AF0332
:101850009091B003A091B103B091B2030196A11D84
:10186000B11D8093AF039093B003A093B103B093E5
:10187000B203892B8A2B8B2B99F48091B30390911F
:10188000B403A091B503B091B6030196A11DB11D9B
:101890008093B3039093B403A093B503B093B603BE
:1018A000DF91CF911F910F91FF90EF90DF90CF903C
:1018B000BF90AF909F908F907F906F905F904F9070
:1018C000089582E0AACFCF92DF92EF92FF920F931A
:1018D0001F93CF9384E090E024D2809101099091EE
:1018E0000209A0910309B09104098093000290932A
:1018F0000102A0930202B09303024091F9085091B3
:10190000FA086091FB087091FC0840930402509320
:1019100005026093060270930702409338025093C9
:10192000390260933A0270933B0280933C02909399
:101930003D02A0933E02B0933F0240934002509379
:101940004102609342027093430280934402909359
:101950004502A0934602B0934702E9E8F3E085E32D
:10196000DF011D928A95E9F780E090E0A0E8BFEBE7
:101970008093B9039093BA03A093BB03B093BC03C5
:101980008FE692E1A3E8BAE38093AB039093AC03B4
:10199000A093AD03B093AE0384E097E2AFE8BCE65A
:1019A00080938D0390938E03A0938F03B093900345
:1019B00083E29BEFA6E4BDE88093910390939203AA
:1019C000A0939303B09394038EED9CE2A0ECB5E654
:1019D0008093950390939603A0939703B0939803F5
:1019E00081E997E4ADE5B5E28093990390939A037A
:1019F000A0939B03B0939C038DE793E090938C039B
:101A000080938B0389E693E090937E0380937D031C
:101A100081EB92E090936A038093690390936C0347
:101A200080936B0390936E0380936D039093700388
:101A300080936F0390937203809371039093740368
:101A40008093730390937603809375039093780348
:101A50008093770390937A038093790390937C0328
:101A600080937B038DE993E09093820380938103BD
:101A70008DE893E09093800380937F038FE993E058
:101A80009093840380938303E5EDF8E08CE1DF011C
:101A90001D928A95E9F7E4E9F8E081E4DF011D92FF
:101AA0008A95E9F781E08093D208609114027091E1
:101AB000150280911602909117026AD1882309F4C9
:101AC000BDC0C0901402D0901502E0901602F090B4
:101AD0001702C0929A08D0929B08E0929C08F0925C
:101AE0009D08C12CD12C7601C394C0929508D09248
:101AF0009608E0929708F092980844E050E062E07F
:101B000070E081E090E00E947B02C1E0C093990800
:101B10008AE097EDA3E2BCE38093D9089093DA08BA
:101B2000A093DB08B093DC081092DD081092DE0869
:101B30001092DF081092E00880914C0290914D02C3
:101B4000A0914E02B0914F028093E5089093E60871
:101B5000A093E708B093E8081092A608C093D408B1
:101B6000C092A708D092A808E092A908F092AA080B
:101B700061E08AE00E943801C093AB0810929E0891
:101B8000C093D308C0929F08D092A008E092A10809
:101B9000F092A20861E089E00E943801C093A30896
:101BA0001092AE08C093D108C092AF08D092B0088E
:101BB000E092B108F092B208E12CF12C8701A80163
:101BC000970168E070E080E090E00E94C703909386
:101BD000B5088093B408C093B3081092CE08C093A0
:101BE000CF088FEF9FEFDC018093C6089093C70862
:101BF000A093C808B093C9081092D0081092CA08E0
:101C00001092CB081092CC081092CD08E092ED080B
:101C1000F092EE080093EF081093F008E092BA08F3
:101C2000F092BB080093BC081093BD08CF911F91A0
:101C30000F91FF90EF90DF90CF9008956091140284
:101C4000709115028091160290911702E6D08823B8
:101C500009F437CF3ECF80919408811103C081E011
:101C6000809394088091A608811103C081E080933D
:101C7000A60880919E08811103C081E080939E0890
:101C80008091AE0881112EC081E08093AE088091D2
:101C9000AF089091B008A091B108B091B208019737
:101CA000A105B105F9F48091B3088823D9F068E063
:101CB00070E080E090E00E9483039093B5088093E9
:101CC000B40840E050E0BA010E944C0368E070E0C4
:101CD00080E090E00E9483039093B5088093B4085D
:101CE0000C941804089560E070E080E89FE7089580
:101CF00060E070E080E89FE7089560E070E080E8D1
:101D00009FEF089560E070E080E89FEF089560E045
:101D100070E080EC9FEF089560E070E080EC9FEF52
:101D20000895F5DF6093FD087093FE088093FF0827
:101D300090930009F1DF6093F1087093F2088093AB
:101D4000F3089093F408CFDF6093F9087093FA08D2
:101D50008093FB089093FC08CBDF6093F5087093A9
:101D6000F6088093F7089093F808C7DF609301099D
:101D7000709302098093030990930409C3DF609371
:101D8000050970930609809307099093080908953F
:101D9000CF92DF92EF92FF92CF936B017C01AC0167
:101DA0009B016091F9087091FA088091FB0890916D
:101DB000FC080E94CB2FC1E0882371F0A701960197
:101DC00060910109709102098091030990910409C1
:101DD0000E94CB2F8111C0E08C2FCF91FF90EF900C
:101DE000DF90CF9008950F931F938B019C010027E4
:101DF000112720783F770115110520483F4749F406
:101E0000AB01BC016F77772781E0452B462B472B31
:101E100009F480E01F910F910895E5CF4F925F92F2
:101E20006F927F928F929F92AF92BF92CF92DF92EA
:101E3000EF92FF920F931F93F8944090CA03509033
:101E4000CB036090CC037090CD03C090BE03D090C4
:101E5000BF03E090C003F090C103452B09F0A4C07C
:101E60009B01AC01241935094609570929013A019A
:101E70000091C6031091C7032091C8033091C90394
:101E800048015901840C951CA61CB71C80169106AC
:101E9000A206B306A0F40091C2031091C3032091DF
:101EA000C4033091C5030F5F1F4F2F4F3F4F009367
:101EB000C2031093C3032093C4033093C5038092DD
:101EC000C6039092C703A092C803B092C9030091C1
:101ED000C2031091C3032091C4033091C5038092C3
:101EE000CE039092CF03A092D003B092D10300937F
:101EF000D2031093D3032093D4033093D50360937C
:101F0000CA037093CB038093CC039093CD03A8EEC8
:101F1000B3E0A30192010E943F3A6C0D7D1D8E1D1E
:101F20009F1D6093BE037093BF038093C003909383
:101F3000C103009164021091650220916602309104
:101F400067020F3F1F4F2F4F3F4FF1F00091640288
:101F50001091650220916602309167020E3F1F4F7B
:101F60002F4F3F4F89F0C0906402D0906502E090FF
:101F70006602F090670221E08C149D04AE04BF0459
:101F800008F420E02093DA0378941F910F91FF90DA
:101F9000EF90DF90CF90BF90AF909F908F907F9009
:101FA0006F905F904F9008954B015C0184189508E5
:101FB000A608B708A3019201261B370B480B590B43
:101FC0006415750586059705D0F082169306A4065C
:101FD000B50640F420E030E0A90181149104A10489
:101FE000B10491F4A8EEB3E00E943F3AA701960134
:101FF000261B370B480B590BCA01B901C5CF8216F6
:102000009306A406B50670F7A8EEB3E0A501940107
:102010000E943F3A6C0D7D1D8E1D9F1DB5CFFECEDB
:10202000CF93DF9300D01F92CDB7DEB71C821B8207
:102030001A8219821092D6031092D7031092D803F5
:102040001092D903BE016F5F7F4FCE0103960E94AD
:102050000C2D69817A818B819C810E94FA250097E1
:1020600061F4BE016F5F7F4FCE0103960E94182D71
:1020700069817A818B819C812ED50F900F900F9072
:102080000F90DF91CF910895FF920F931F93CF93FD
:10209000DF93082F60E070E0CB010E941634FF242C
:1020A000F3940E94E324EC01892B89F010E0CE3FE9
:1020B0008FEFD80769F0002361F160E070E0CB0199
:1020C0000E94163481E090E0892B59F322C011E080
:1020D00025D5EC01892B21F0CE3F8FEFD80759F79A
:1020E00011111EC011E0229609F410E00E94932401
:1020F000EC01892B21F0CE3F8FEFD807E1F61111CB
:1021000011C011E0CE3F8FEFD80709F410E00111A4
:102110000BC0CE01DF91CF911F910F91FF900895D9
:1021200011E0E4CF11E0F3CF60E070E0CB010E945A
:1021300016341F25812F90E0C7CFCF93DF93809176
:10214000DA03882321F060E070E0CB014CD635D66D
:10215000D0E0C0E0892B71F06AE070E080E090E0B0
:102160000E94163481E090DF28D62196C03D27E0FA
:10217000D20781F727D60E944E261092F2031092C2
:10218000F1031092EB031092EC031092ED03109206
:10219000EE031092E7031092E8031092E903109205
:1021A000EA031092E3031092E4031092E503109205
:1021B000E6031092DF031092E0031092E103109205
:1021C000E2031092DB031092DC031092DD03109205
:1021D000DE034EEF5FEF6FEF7FEF409364025093AB
:1021E000650260936602709367021092DA03EEEC68
:1021F000F3E028E0DF011D922A95E9F71092CA0367
:102200001092CB031092CC031092CD031092C60310
:102210001092C7031092C8031092C9031092C20310
:102220001092C3031092C4031092C5031092BE0310
:102230001092BF031092C0031092C103DF91CF919F
:1022400008951092FE031092FF0310920004109262
:1022500001041092FD03809106049091070490936D
:10226000FC038093FB031092FA031092F90310927F
:10227000F5031092F6031092F7031092F8031092F0
:1022800003041092020490E080E00895CF92DF9260
:10229000EF92FF920F931F93CF938C01892B09F03C
:1022A00055C020910604309107048091FB03909162
:1022B000FC0340910604509107045093FC034093A3
:1022C000FB032817390781F01092FA031092F903E3
:1022D0001092F5031092F6031092F7031092F80390
:1022E0001092030410920204809106049091070456
:1022F000019761F58091020490910304892B21F4E8
:1023000080916802811112C08091020490910304AF
:102310000197E1F48091F5039091F603A091F70302
:10232000B091F8030197A105B10581F41092F5036E
:102330001092F6031092F7031092F80310926802BD
:1023400082E090E09093030480930204809106045D
:1023500090910704019709F01CC180911C04909191
:102360001D048017910709F014C180911804909101
:102370001904A0911A04B0911B04009709F409C133
:102380002091170421110DC0409118045091190497
:1023900060911A0470911B04452B462B472B09F4BE
:1023A000F8C020910204309103042230310509F075
:1023B000F0C02091F9032111ECC0FC01C080D18054
:1023C000E280F3808091FD03882309F4D3C08091DB
:1023D000090490910A04892B09F4FDC02091090495
:1023E00030910A0481E02230310509F080E020912B
:1023F000090430910A04C1E02130310549F02091EF
:10240000090430910A04C1E02230310509F0C0E02E
:10241000882309F456C0209113043091140440918C
:10242000150450911604C701B6010E946D3187FD55
:1024300014C020911304309114044091150450915C
:1024400016046091FE037091FF0380910004909147
:1024500001040E94CB2F87FD22C0209113043091EC
:1024600014044091150450911604C701B6010E944E
:102470006D31181634F520911304309114044091F5
:102480001504509116046091FE037091FF03809132
:102490000004909101040E94CB2F811112C0809101
:1024A0000B0490910C04A0910D04B0910E04892BA3
:1024B0008A2B8B2B19F481E08093FA0381E08093BF
:1024C000F903CC2309F456C020911304309114046D
:1024D0004091150450911604C701B6010E94CB2FFC
:1024E00087FF14C020911304309114044091150407
:1024F000509116046091FE037091FF0380910004D7
:10250000909101040E946D3187FF22C02091130435
:10251000309114044091150450911604C701B6017E
:102520000E94CB2F811126C02091130430911404F6
:1025300040911504509116046091FE037091FF03C1
:1025400080910004909101040E946D31181694F45A
:1025500080910B0490910C04A0910D04B0910E0495
:10256000892B8A2B8B2B19F481E08093FA0381E06D
:102570008093F90381E09091F903911180E08093B9
:10258000FD03C092FE03D092FF03E0920004F0929C
:102590000104012B09F067C18091020490910304AA
:1025A000892BD9F4109208041092F90380916802E3
:1025B000882379F082E090E09093030480930204F2
:1025C00010926802209106043091070481E0232BC9
:1025D000E9F080E01BC081E00ACF10926802809190
:1025E0000804882349F01092FA0310920304109211
:1025F000020410920804EDCF809106049091070424
:10260000892BE1F08091F9031092F90320910204E3
:10261000309103042230310509F45EC088F421159D
:10262000310509F448C02130310509F4F3C0109296
:10263000FA031092F9031092080438C081E0E6CF43
:102640002330310509F4B1C02430310581F74091C0
:10265000F5035091F6036091F7037091F80341156B
:1026600051056105710561F0415051096109710918
:102670004093F5035093F6036093F7037093F803C8
:102680004091F5035091F6036091F7037091F803C0
:10269000452B462B472BD9F4209104043091050497
:1026A0002130310509F046C01092FA03109203045C
:1026B000109202040CC080916802882341F082E0ED
:1026C00090E09093030480930204109268021092A9
:1026D000F3038091FA03CEC08823C9F380910B04E1
:1026E00090910C04A0910D04B0910E0418161906D7
:1026F0001A061B060CF07DC0809106049091070419
:10270000019709F076C080910B0490910C04A09180
:102710000D04B0910E048093F5039093F603A093FB
:10272000F703B093F80383E090E090930304809361
:102730000204CDCF40910F04509110046091110418
:1027400070911204452B462B472BA9F01092FA03E7
:1027500080910F0490911004A0911104B091120483
:102760008093F5039093F603A093F703B093F803D7
:1027700081E090E0DACF882399F08091690290910E
:102780006A02A0916B02B0916C028093F503909362
:10279000F603A093F703B093F80384E090E0C5CF6D
:1027A0001092FA0382E090E0C0CF8091F5039091FF
:1027B000F603A091F703B091F8030097A105B105C6
:1027C00059F00197A109B1098093F5039093F6039D
:1027D000A093F703B093F8038091F5039091F6036B
:1027E000A091F703B091F803892B8A2B8B2B09F06A
:1027F0006ECF8091690290916A02A0916B02B091B4
:102800006C02892B8A2B8B2B09F44ECF81E08093AD
:10281000FA03B3CF4091F5035091F6036091F703AB
:102820007091F803411551056105710561F0415042
:102830005109610971094093F5035093F6036093C0
:10284000F7037093F8034091F5035091F6036091FC
:10285000F7037091F803452B462B472B09F037CF30
:102860008111C7CF9FCF8091F303882309F431CF23
:102870008091F403CF911F910F91FF90EF90DF9023
:10288000CF9008951092FE031092FF03109200045F
:10289000109201041092FD0310920304109202049E
:1028A0001092FC031092FB0310921D0410921C0462
:1028B0001092FA031092F9031092F5031092F603A6
:1028C0001092F7031092F8031092F4031092F3039E
:1028D000109218041092190410921A0410921B04FA
:1028E00010921704109213041092140410921504FD
:1028F0001092160488EE93E0A0E0B0E080936902A5
:1029000090936A02A0936B02B0936C0210920F0432
:1029100010921004109211041092120410920B04E1
:1029200010920C0410920D0410920E0410920A04DE
:102930001092090481E080936802109208041092BA
:10294000070410920604109205041092040490E00B
:1029500080E008958091060490910704892B19F571
:1029600080916802882351F080910804811106C08B
:1029700081E08093F4038093F30308952091080489
:102980003091680281E090E0332311F090E080E024
:1029900030E082239323892B21F01092F40381E00D
:1029A000EACF1092F303089582E090E0FA01918358
:1029B00080838FEF9FEF0895CF93DF93EA01009715
:1029C00011F00E946E271982188290E080E0DF915A
:1029D000CF910895DB01009719F48FEF8C93089540
:1029E0002EEF2C93FC013F96EF30F10508F034C038
:1029F0008827E250FB4E8F4F0C94373A2A15281542
:102A00002615241522151E1520151C151A15181526
:102A1000151511150D1513152C1580E311968C93B2
:102A2000089589E2FBCF82E2F9CF11961C920895B6
:102A300083E2F4CF81E2F2CF81E1F0CF87E2EECF03
:102A40008AE2ECCF80E1EACF84E2E8CF88E2E6CF09
:102A500086E2E4CF81E3E2CF80E2E0CF80912A04F6
:102A600090912B04089590932B0480932A04089549
:102A700080912904089590912904892B8093290439
:102A80000895982F90958091290489238093290493
:102A90000895809128040895809126049091270438
:102AA00008956115710559F0FB0130E020E070E0F8
:102AB00060E02417350719F06115710511F0CB019D
:102AC0000895A081B181A817B90709F4BF012F5F4C
:102AD0003F4F3696EECF80912C0481111CC060D2FE
:102AE00066D290931F0480931E040E946C1F0E9464
:102AF0007E1F90932304809322040E94FB230E9454
:102B00000224909321048093200481E080932C047C
:102B100090E080E0089584EF9FEF08958F929F9258
:102B2000AF92BF92CF92DF92EF92FF920F931F93DB
:102B3000CF93DF9300D000D000D01F92CDB7DEB787
:102B40001A86198618861F821E821D821C821B828D
:102B50001A82198280912C0407EF1FEF882309F451
:102B60009CC08E010D5F1F4F9E012B5F3F4FAE013A
:102B7000495F5F4FBE01675F7F4F90E080E00E943A
:102B80007F258C01009721F00596029708F0DBC0A5
:102B900029853A852115310509F402C1ED80FE80B1
:102BA0004B815C81B701640F751F8F8198858617F3
:102BB000970708F4F5C0E20EF31ED7019C91903CF4
:102BC00009F07FC04230510508F47BC011968C910A
:102BD00040912A0450912B04452B09F49CC0913F4D
:102BE00008F071C02CE1290F2D3008F48BC02DE2C4
:102BF000290F203108F489C0903C21F481508230A3
:102C000008F483C088E3890F8B3008F481C09AEE02
:102C1000C92E94E1D92EE4EDF4E16D817E81AE01FF
:102C20004F5F5F4F89859A8519955C01C114D10466
:102C3000A1F189809A808114910479F18B819C8122
:102C40008815990508F487C010E000E04B815C818D
:102C500070E060E0C7010E94613A01151105E9F4D6
:102C600049815A8169857A858D819E81680F791F96
:102C7000C501F6011995E980FA800D811E812F8129
:102C8000388549855A856FEF7FEF81E090E00E949B
:102C90001A258C01892B09F056C0C8012A960FB657
:102CA000F894DEBF0FBECDBFDF91CF911F910F9182
:102CB000FF90EF90DF90CF90BF90AF909F908F905C
:102CC000089580E085CF30E020E0220F331FF90126
:102CD000E25EFB4F0190F081E02D309709F497CF31
:102CE000892F90E01995009709F491CFDC01129695
:102CF000ED91FC9113971496CD90DC90309709F0EC
:102D00008CCF1FC021E030E0E0CF22E030E0DDCF0B
:102D100023E030E0DACFD12CC12CECEDF4E19F3F81
:102D200009F07BCFE0911E04F0911F04309721F44D
:102D3000C90104EF1FEF0CC08FEF90E019950097C9
:102D4000A9F604EF1FEF89859A85009709F4A5CFAE
:102D50000E946E27A2CF0E9449268C0189859A8500
:102D60000E946E2770E060E0C4010E94E22598870F
:102D70008F830E9417259E838D836F8178856115CF
:102D8000710559F0C8010E94FA289A87898706EFD1
:102D90001FEF892B09F058CF59CF08EF1FEF56CFFF
:102DA00008EF1FEFD0CF20912C04222319F020E050
:102DB0000C94831F87EF9FEF089580912A049091D0
:102DC0002B0408950E9407240E946123F5D0EEE1B0
:102DD000F4E088E0DF011D928A95E9F710922C0457
:102DE00090E080E008950C94BF2121E040E050E0A5
:102DF000BA010C94831F86E090E0FA0191838083EE
:102E000090E080E0089547E050E064EB72E049CE46
:102E1000DF92EF92FF920F931F93CF93DF938A017C
:102E2000EC01C60FD71FE0903004F0903104D98038
:102E30000E943126D816190678F082E090E0F80159
:102E4000918380838EEF9FEFDF91CF911F910F9140
:102E5000FF90EF90DF900895EF2841F482E090E03A
:102E6000F8019183808384EF9FEFEECF8981809377
:102E70002F0490E00196F8019183808390E080E038
:102E8000E3CFCF93DF93EA010E947022882321F0E1
:102E90000E943E260E94712282E090E099838883FE
:102EA0008BEF9FEFDF91CF910895CF93DF93EB01ED
:102EB00086E0FB0111928A95E9F78FEF8883D8DDD0
:102EC0008983E7DD8A83E8DD9D838C83DF91CF9161
:102ED0000895CF93DF93EA010E947322811109C004
:102EE00082E090E09983888385EF9FEFDF91CF9117
:102EF000089590E080E0B7DD81E090E099838883D9
:102F000090E080E0F3CF0F931F93CF93DF93EA011C
:102F10008C01060F171F0E94732281110BC082E0E3
:102F200090E09983888385EF9FEFDF91CF911F9188
:102F30000F910895F8018181823038F082E090E0AD
:102F4000998388838EEF9FEFF0CF81E090E08BDD57
:102F500088E090E09983888390E080E0E6CFCF938B
:102F6000DF930097D1F4EB01FB01329686E0DF019D
:102F70001D928A95E9F78FEF888385E089831A820D
:102F80000E9431268B830E9430269D838C8381E0B2
:102F90008E838F83DF91CF910895DF91CF911ACDEA
:102FA00083E097E190932E0480932D0408958091FF
:102FB0002D0490912E04089510922E0410922D0449
:102FC000089580913004909131040895411105C015
:102FD000611571058105910561F06093300470936E
:102FE000310480933204909333044093340481E09D
:102FF000089580E00895FF920F931F93CF93DF937E
:103000008A01EC01C60FD71FF9800E943126F816FD
:10301000190668F082E090E0F801918380838EEFDA
:103020009FEFDF91CF911F910F91FF9008956C81D9
:103030007D818E819F814B81C9DF811108C082E033
:1030400090E0F8019183808384EF9FEFEACF89813C
:1030500080932F0490E00196F8019183808390E0A3
:1030600080E0DFCFCF93DF93EA01FC01E60FF71F8B
:1030700064817581868197814381A8DF811109C0B0
:1030800082E090E09983888384EF9FEFDF91CF9176
:10309000089581E090E09983888390E080E0F6CF06
:1030A000E0E3F4E04081518162817381480F511D5A
:1030B000611D711D40835183628373830895CF9393
:1030C000C0912F044C2F50E0609130047091310476
:1030D00001960E94583A8C2FE3DF10922F04CF9173
:1030E0000895009799F480913004909131042FEF66
:1030F000FB012083892B59F020912F0430E02F5FB2
:103100003F4F2417350719F4CB01D9CF63CC08956D
:10311000009799F480913004909131042FEFFB01D6
:103120002083892B59F020912F0430E02F5F3F4FEF
:103130002417350719F4CB01C2CF4CCC089523E1F5
:10314000AC01249FC001259F900D1124E09139040A
:10315000F0913A04E80FF91F23813481225031099C
:1031600081E02230310508F080E008950F931F932D
:10317000CF93DF9300913B0410913C04D0E0C0E07A
:1031800080E00C171D0749F491E0811190E0892F30
:10319000DF91CF911F910F9108958111F5CFCE014D
:1031A000CEDF2196EECFA0913904B0913A0410976A
:1031B00029F120913B0430913C0482179307F0F4ED
:1031C00053E1589F9001599F300D1124A20FB31F56
:1031D000ED91FC911197309789F012968C916817B8
:1031E00068F48DE0689FE00DF11D112480819181CC
:1031F000892B21F081E09281491708F080E0089541
:103200009C0143E1429FC001439F900D1124E09136
:103210003904F0913A04E80FF91F8385823091F464
:1032200081E090E06581768140916D0250916E025F
:103230006417750711F490E080E0892B19F081E0A4
:10324000232B09F080E00895FC01A081B1818DE07D
:10325000689FA00DB11D112413964D915C91858539
:103260009685489F9001499F300D589F300D11243D
:10327000C9010196611103C0478144FD0496089578
:10328000EF92FF920F931F93CF93DF93EA01FC011C
:10329000E60FF71F02811381E480F5804F2D6E2D1C
:1032A000C80181DF81110DC082E090E0998388839D
:1032B0008EEF9FEFDF91CF911F910F91FF90EF90D5
:1032C0000895C8013CDF882339F082E090E09983BB
:1032D000888388EF9FEFEECF109374020093730200
:1032E000E0927502F092760281E090E09983888303
:1032F00090E080E0DFCFCF92DF92EF92FF920F93CA
:103300001F93CF93DF937A01EC01C60FD71FC090B4
:103310007302D09074020091750210917602412FD1
:10332000602FC60140DF811110C082E090E0F701FC
:10333000918380838AEF9FEFDF91CF911F910F914F
:10334000FF90EF90DF90CF900895C601F8DE8823BC
:1033500041F082E090E0F7019183808388EF9FEF56
:10336000EBCF4C815D816E817F819A8189818F3F16
:1033700041F082E090E0F701918380838EEF9FEF30
:10338000DBCFE3E1EC9D9001ED9D300D1124E09148
:103390003904F0913A04E20FF31F0190F081E02D1F
:1033A0002DE0029FE00DF11D11240190F081E02D30
:1033B00027E0129FE00DF11D1124808391838B8102
:1033C000828343835483658376831F5F10937602E1
:1033D00081E090E0F7019183808390E080E0ACCFC2
:1033E000EF92FF920F931F93CF93DF937A018C019B
:1033F000060F171FC0913904D0913A04209781F02D
:1034000021E030E0F8018281938140913B045091AA
:103410003C048417950710F030E020E0232B71F472
:1034200082E090E0F701918380838EEF9FEFDF9140
:10343000CF911F910F91FF90EF90089543E1489F26
:103440009001499F300D1124C20FD31F78DE8823CD
:1034500041F082E090E0F7019183808388EF9FEF55
:10346000E6CFF8012481358120383105C8F68781FF
:103470008111D6CF4181842F90E08F7E009741F05B
:1034800082E090E0F7019183808386EF9FEFCFCFBA
:103490004F833E832D83268128871986223010F49E
:1034A00021E0288721E030E0F70131832083BFCF7E
:1034B00088E090E0FA019183808390E080E00895B5
:1034C000FB018FEF808381E181838FEF9FEF9383F7
:1034D000828380E890E09583848316821782089522
:1034E000FB018FEF808391E09183828393838483B8
:1034F00084E3858381E090E0978386830895DF925B
:10350000EF92FF920F931F93CF93DF93EA01FC0199
:10351000E60FF71F8181813071F082E090E099839E
:1035200088838FEF9FEFDF91CF911F910F91FF90D5
:10353000EF90DF90089582819381D4802581E68089
:10354000F7800091390410913A040115110539F4FE
:1035500082E090E0998388838CEF9FEFE4CF4091E5
:103560003B0450913C048417950738F082E090E0CA
:10357000998388838EEF9FEFD6CF892B39F082E035
:1035800090E09983888386EF9FEFCDCF8D2D8D7F3F
:10359000B1F72130A1F781E0D11006C091E0E91622
:1035A000F10431F080E004C0E2E0EE16F104D0F363
:1035B000882329F390E080E0C2DD882339F082E09F
:1035C00090E09983888388EF9FEFADCFF801D38691
:1035D00081E08487F686E586108A178681E090E090
:1035E0009983888390E080E09ECF4CE050E06EEDC0
:1035F00072E057CA8F929F92BF92CF92DF92EF9262
:10360000FF920F931F93CF93DF93EA01FC01E60F24
:10361000F71F828193810481B580E0913904F09194
:103620003A04309791F482E090E0998388838CEF9C
:103630009FEFDF91CF911F910F91FF90EF90DF905F
:10364000CF90BF909F908F90089520913B04309130
:103650003C048217930738F082E090E099838883D6
:103660008EEF9FEFE6CF23E1289F6001299FD00CCA
:103670001124EC0DFD1DE080F180E114F10499F2BC
:103680008281081748F78DE0089F80011124E00E21
:10369000F11EF70180819181892B29F6BB20E1F28F
:1036A000F7E0BF9E40011124C4010E943527F701B5
:1036B00091838083E0913904F0913A04EC0DFD1D73
:1036C0000190F081E02DE00FF11F80819181009742
:1036D00039F482E090E0998388838DEF9FEFA9CF42
:1036E000A40170E060E00E94613A809139049091F9
:1036F0003A04C80ED91EF60180819181080F191F66
:10370000F801B28281E090E09983888390E080E0C4
:1037100090CFAF92BF92CF92DF92FF920F931F9301
:10372000CF93DF93EA01FC01E60FF71F82819381BB
:10373000F4800091390410913A040115110581F4C7
:1037400082E090E0998388838CEF9FEFDF91CF91A7
:103750001F910F91FF90DF90CF90BF90AF90089591
:1037600020913B0430913C048217930738F082E0AB
:1037700090E0998388838EEF9FEFE8CF2FEF2F0D96
:103780002C3FA8F723E1289F6001299FD00C11242A
:103790000C0D1D1DF80180819181892B89F6FDE0BA
:1037A000FF9E50011124C5010E943527F801918325
:1037B0008083E0913904F0913A04EC0DFD1D808185
:1037C0009181009739F482E090E0998388838DEFAE
:1037D0009FEFBCCFA50170E060E00E94613AE091EC
:1037E0003904F0913A04EC0DFD1DF28281E090E085
:1037F0009983888390E080E0A9CFCF92DF92EF9207
:10380000FF920F931F93CF93DF93860F971FFC01B7
:10381000028113818091390490913A04892B81F0BF
:1038200082E090E0FA01918380838CEF9FEFDF913B
:10383000CF911F910F91FF90EF90DF90CF9008955F
:10384000C801B0E0A0E00197A109B1098F3F9F4FE7
:10385000A105B10540F082E090E0FA0191838083F8
:103860008EEF9FEFE4CF7A0183E1809F6001819F1B
:10387000D00C1124C6010E943527EC01009741F4B9
:1038800082E090E0F701918380838DEF9FEFCFCFAF
:10389000A60170E060E00E94613AD0933A04C093C0
:1038A000390410933C0400933B0490E080E02FEF38
:1038B0003FEF41E061E070E08017910741F481E063
:1038C00090E0F7019183808390E080E0B0CF3A8B65
:1038D000298B1B864C877E876D87188A1F860196E9
:1038E0006396EACFEF92FF921F93CF93DF93EC01A1
:1038F00010E0F12CE12C6A811617B0F083E0689F8C
:10390000B0011124AE014F5E5F4FC7010E949A279C
:10391000009721F02FEF3FEF3A8B298BDF91CF916A
:103920001F91FF90EF900895612FCE018DDC61E033
:1039300070E00E94E225E816F90608F47C011F5F9A
:10394000DACFF894209137043091380481E02115C2
:10395000310509F080E0232B09F0789408952F9227
:103960003F924F925F926F927F928F929F92AF920F
:10397000BF92CF92DF92EF92FF920F931F93CF935C
:10398000DF933C01660E771EF301828193814C0127
:10399000B12CA12CC0913904D0913A04209769F040
:1039A00021E030E060913B0470913C04861797075A
:1039B00010F030E020E0232BD1F482E090E0FA0117
:1039C000918380838EEF9FEFDF91CF911F910F91B5
:1039D000FF90EF90DF90CF90BF90AF909F908F902F
:1039E0007F906F905F904F903F902F9008958092BE
:1039F000770290927802A0927902B0927A0263E103
:103A0000689F9001699F300D1124C20FD31FF301ED
:103A10008181833040F082E090E0FA0191838083DD
:103A200086EF9FEFD1CF2A012B813C81232BF1F42C
:103A3000288139819F8191FF2EC0232B09F46FC00B
:103A400020913E049A81422F490F5527551FBA01F4
:103A500041E050E06138710514F050E040E0452B42
:103A600009F45DC02A87920F90933E048150823002
:103A700008F481C066DF882309F4D8C0F30181818E
:103A8000813009F48DC008F47BC0823009F4C6C0CF
:103A900090E080E0ADC0232B09F441C020913D04AB
:103AA0009A81E22FE90FFF27FF1F41E050E0ED3F31
:103AB000F10514F050E040E0452B89F12A87920F80
:103AC00090933D04D3CFA081B181A20FB31F119673
:103AD0006C91060F111D0196295F3F4F84179507C2
:103AE00094F38D859E85089F1001099F300C189FC7
:103AF000300C1124C114D104D1F48F8184FF17C07C
:103B00000E943026F5E02F0E311C21E0821593052E
:103B100008F420E0A701435F5F4F21110EC082E04F
:103B200090E0F2019183808387EF9FEF4DCF0E9459
:103B300030262FEF221A320AE8CF88819981E80EC9
:103B4000F91EF70114830383FFEFCF1ADF0A7A010E
:103B50008A818C151D0409F00CF48CCFE881F98161
:103B6000EE0DFF1D428150E030E020E010E000E06B
:103B700090E080E0B3CFF12CE12CD12CC12CE8CF28
:103B800081E090E09C838B83F1DA882309F480CF75
:103B900081E090E00E94331580E40E94411578CFC7
:103BA00089899A89019661F083E090E09C838B83F8
:103BB00082E090E00E94331580E40E943B1568CFBC
:103BC0008D819E8120916D0230916E028217930744
:103BD000D1F46091710270917202AE014F5E5F4F3D
:103BE00080916F02909170020E94B9280097E1F2D3
:103BF000789422E030E0F20131832083892B99F020
:103C00008DEF9FEFE1CE89288A288B2869F60297ED
:103C100058F6CE0167DE188A1F86E8CF82E090E072
:103C20009C838B8335CF90E080E0CECE82E090E025
:103C3000F2019183808385EF9FEFC6CE8F929F9292
:103C4000AF92BF92CF92DF92EF92FF920F931F93AA
:103C5000CF93DF93EA018C01060F171FF8018181D2
:103C6000833098F082E090E09983888386EF9FEF1D
:103C7000DF91CF911F910F91FF90EF90DF90CF9048
:103C8000BF90AF909F908F9008958091390490914C
:103C90003A04892B61F081E090E020913B0430915F
:103CA0003C04232B11F490E080E0892B39F482E06E
:103CB00090E0998388838EEF9FEFDACF42DE8823EE
:103CC00009F4E0C0F8018181813009F496C0E8F080
:103CD000823099F420913B0430913C04E091390406
:103CE000F0913A0490E080E041E050E02817390775
:103CF00009F0BEC03BDA811117C0789481E090E0F2
:103D00009983888390E080E0B3CF20913B04309189
:103D10003C04E0913904F0913A0490E080E041E005
:103D200050E02817390741F481E090E00E943315F4
:103D300080E40E944115E1CF63817481672B11F00B
:103D40005483438301967396ECCFE0913904F0914C
:103D50003A04E00FF11F2381348122303105D9F478
:103D6000218932892F3F3F4FB1F42581368140911F
:103D70006D0250916E022417350761F5AF014F5E59
:103D80005F4F609171027091720280916F02909109
:103D900070020E94B928EFEFCE1ADE0AEE0AFE0A80
:103DA0000D5E1F4F40913B0450913C0470E060E079
:103DB000C416D506E606F70644F5009731F2789466
:103DC000892B09F49BCF82E090E0998388838DEF63
:103DD0009FEF4ECFC114D104E104F104E1F622308B
:103DE0003105C8F6CF017EDDE0913904F0913A0447
:103DF000E00FF11F108A1786CECF10E000E090E0B0
:103E000080E0C12CD12C7601CDCF0097C1F610E017
:103E100000E0812C912C540183E0E82EF12C1AC093
:103E2000E0913904F0913A04E00FF11F838194810D
:103E3000029749F4F482E38282E090E00E94331515
:103E400080E40E943B15FFEF8F1A9F0AAF0ABF0A5A
:103E50000D5E1F4F80913B0490913C04B0E0A0E0C8
:103E600088169906AA06BB06DCF290E080E0A7CF90
:103E7000638174816230710511F454834383019628
:103E8000739634CF82E090E09983888385EF9FEF2B
:103E9000EFCE0097B9F48FEFFB018083209177027A
:103EA0003091780243E1429FC001439F900D11245D
:103EB000E0913904F0913A04E80FF91F8285FB0183
:103EC000818308950C94EA1488E090E0FA019183CC
:103ED000808390E080E008951092380410923704B7
:103EE000E9E3F4E086E0DF011D928A95E9F785EFCA
:103EF0009AE19093360480933504089580913504B7
:103F00009091360408952F923F924F925F926F9254
:103F10007F928F929F92AF92BF92CF92DF92EF9259
:103F2000FF920F931F93CF93DF93CDB7DEB72F97F9
:103F30000FB6F894DEBF0FBECDBFF894E091370402
:103F4000F09138043196F0933804E0933704789474
:103F50004090390450903A044114510409F40CC2C1
:103F6000E0913B04F0913C04EF2B09F405C22D874E
:103F700049875A876B877C8798878F831201B12C7A
:103F8000A12C10E000E080913B0490913C04A81625
:103F9000B90618F40115110529F1F8948091370438
:103FA0009091380401979093380480933704789463
:103FB000C8012F960FB6F894DEBF0FBECDBFDF91BC
:103FC000CF911F910F91FF90EF90DF90CF90BF9016
:103FD000AF909F908F907F906F905F904F903F90A9
:103FE0002F9008957101E418F508D10117968C916E
:103FF000179781FD54C013968D919C911497039748
:1040000009F04DC015968D919C91EF81F8858E1722
:104010009F0709F044C0B50190E080E07FD48A8317
:104020002091390430913A043D832C833D8533231C
:1040300009F44CC04C815D81452B09F49AC18091F3
:104040003B0490913C04A816B90608F092C1C50142
:10405000D7D88823E9F06C817D816E0D7F1D7D832B
:104060006C83DB011F968D919C91892B89F0D12C5B
:10407000C12CF12CE12CAC81BD8112968C91129750
:104080008E151F0409F094F450961C921E921F97EF
:104090002A81222321F0B50190E080E041D43FEF56
:1040A000A31AB30A43E1240E311C6DCFAC81BD814C
:1040B000ED91FC91EC0DFD1D858196810FD7BFEF31
:1040C000EB1AFB0AEDE0CE0ED11CD5CFEC81FD81C1
:1040D000309709F44EC180913B0490913C04A8169E
:1040E000B90608F046C1EE0DFF1DFF87EE87C5013A
:1040F00087D88B83882339F1AE85BF851F968D9134
:104100009C915097019621E01D964D915C918417EA
:10411000950709F020E02E831982712C10E000E051
:10412000AE85BF8512968C91781608F45DC0EE8539
:10413000FF85878590890196658576850E94013A7D
:10414000908B8787A5CFB1E0BE83E6CF9924939467
:104150006BC08BD6F6019683858382C0D601ED9025
:10416000FC90B7E06B9EE00CF11C1124F701638119
:10417000748180818F3F61F121E030E002C0220F25
:10418000331F8A95E2F7C901092E000CAA0BBB0B5D
:10419000FB01408151816281738184239523A62391
:1041A000B72321E0892B8A2B8B2B09F420E0D40143
:1041B0002C93D70111968C91F60123853485820FBB
:1041C000932F911D880E991E1486138663949BC0AD
:1041D000418150E0C4010E94583AEBCF998206EF2A
:1041E0001FEFC5C01982C3C0F981F111A0CFEDE066
:1041F0007E9E70011124AE85BF85CD90DC90CE0CE3
:10420000DF1C15D49D838C83BB81BB2309F49ECF17
:1042100081E0EE85FF8527853089232B09F080E03A
:10422000982E882309F458C0672D8E859F850CD859
:10423000D60118969C938E93179761E070E0C2D4D4
:10424000EE85FF85218932892F3F320709F481CF1E
:10425000BC01C901CFD7D60116969C938E931597B2
:10426000D60115968D919C911697009709F4B6CFBB
:10427000EC81FD818E0F9F1F1A969C938E93199748
:10428000AE85BF85ED91FC911197EE0EFF1EF701F3
:1042900021853285148613861A968C91870DD90153
:1042A0008D93711016C0EE85FF85878184FF11C044
:1042B00049855A856B857C85F901418352836383E7
:1042C0007483F701838594850496A80FB91F14861B
:1042D0001386F701B287A187D60115968D919C911F
:1042E0001697892B09F443C0EE85FF852581368119
:1042F00080916D0290916E022817390779F0199616
:104300008D909C90612CD60112968C911297681614
:1043100008F424CF1A969C928E921997BE81BB23E3
:1043200009F460CF61E070E0F601878190854AD49E
:10433000D6011796ED90FC90189715964D915C91CB
:10434000E1E0F0E0BA81BB2311F0F0E0E0E00C81A5
:104350001D819C01B501882799278E1B9F0B6AD36D
:104360008C01892B21F0F60185819681B7D5739454
:10437000D7CE0FEF1FEF8CCE10E000E00ECE2F92C5
:104380003F924F925F926F927F928F929F92AF92E5
:10439000BF92CF92DF92EF92FF920F931F93CF9332
:1043A000DF938091390490913A0410E000E0892B6A
:1043B000A9F0C7DA0AEF1FEF882381F020903B04B1
:1043C00030903C04C0913904D0913A04D12CC12CD6
:1043D00010E000E02C143D04A9F47894C801DF91AA
:1043E000CF911F910F91FF90EF90DF90CF90BF90F2
:1043F000AF909F908F907F906F905F904F903F9085
:104400002F900895C6010E940019882309F18B811D
:104410009C810397E9F48F859889892BC9F0B601AF
:1044200090E080E07BD221E030E0882311F030E0A2
:1044300020E044245524421A530AB12CA12C912C7B
:10444000812C8A818815190409F038F4188A1F868E
:104450004FEFC41AD40A6396BDCFE881F981EA0D03
:10446000FB1D85819681892BA1F161E070E0878138
:104470009085A8D33C01DBD28C01E881F981EA0D5B
:10448000FB1D8185928525813681200F311FAC016E
:10449000421B530B9A0147815085421B530B70E01E
:1044A00060E00E94613AE881F981EA0DFB1DE78036
:1044B000F084458156819301B601C201BBD28C01C3
:1044C000892B39F0E881F981EA0DFB1D8581968100
:1044D00005D55FEF851A950A8DE0A80EB11CB1CF06
:1044E00030CA789408952F923F924F925F926F92C4
:1044F0007F929F92AF92BF92CF92DF92EF92FF9204
:104500000F931F93CF93DF9300D000D0CDB7DEB7CA
:104510000091390410913A049924939401151105DE
:1045200009F43EC0A0903B04B0903C040ADA982EF7
:104530008823B1F110923A041092390410923C048D
:1045400010923B0410923D0410923E048FEF9FEFB7
:10455000DC018093770290937802A0937902B09364
:104560007A0278947FD31E830D83C12CD12C7601DF
:10457000C501B0E0A0E089839A83AB83BC83222489
:104580002A94322C89819A81AB81BC81C816D906C4
:10459000EA06FB06F4F0C801A1D480E40E944115AC
:1045A000892D26960FB6F894DEBF0FBECDBFDF91E2
:1045B000CF911F910F91FF90EF90DF90CF90BF9020
:1045C000AF909F907F906F905F904F903F902F9013
:1045D0000895AD81BE8115968D919C91169720917D
:1045E0006D0230916E0282179307D1F451968D912E
:1045F0009C91EED5ED81FE8180819181B12CA12C21
:10460000412C512C3201892B89F5BFEFCB1ADB0AE3
:10461000EB0AFB0AED81FE817396FE83ED83B2CF38
:10462000C114D104E104F10429F7029718F7ED81D0
:10463000FE81818992898F3F980709F029D5AD8144
:10464000BE8152963C922E925197D4CF8A0D9B1DDB
:10465000DC018D919C91009709F040D4BFEF4B1A7B
:104660005B0A6B0A7B0AEDE0AE0EB11CAD81BE8128
:104670008D919C91119712964C9150E070E060E002
:1046800044165506660677060CF328D4BECFCF93A2
:10469000DF93EA0128DF811109C082E090E099836D
:1046A000888385EF9FEFDF91CF91089581E090E0BF
:1046B0000E94331581E090E09983888390E080E048
:1046C000F2CF11DF1092360410923504089542E0C3
:1046D00050E066E273E00C945115FF920F931F9324
:1046E000CF93DF938A01EC01C60FD71FF980B9D2AF
:1046F0000897F816190671F068F082E090E0F8016A
:10470000918380838EEF9FEFDF91CF911F910F9167
:10471000FF9008956C817D818E819F814B810E94E5
:10472000E617811108C082E090E0F8019183808350
:1047300084EF9FEFE9CFF9800E94E1174F2D50E001
:10474000BE01685F7F4F0E94583A89810E945018CD
:1047500081E090E0F8019183808390E080E0D4CF05
:10476000DF92EF92FF920F931F93CF93DF938A0113
:10477000EC01C60FD71F0E94E1177C01D98071D2CE
:10478000DD2059F0029721E030E0D816190619F023
:1047900010F030E020E0232B79F482E090E0F80183
:1047A000918380838EEF9FEFDF91CF911F910F91C7
:1047B000FF90EF90DF900895EF2841F482E090E0C1
:1047C000F8019183808384EF9FEFEECFF9800E9400
:1047D000E1174F2D50E0BE016E5F7F4F0E94583AA7
:1047E00089810E94501881E090E0F80191838083D4
:1047F00090E080E0D9CF87E693E2909340048093E5
:104800003F04089580913F049091400408950895D5
:10481000FC0111821082938382830895DB011D9233
:104820001C92DC011296ED91FC91139771836083C9
:1048300013967C936E9312970895FC018081918169
:10484000DB018D939C93A081B181109741F08D91F4
:104850009C9191838083892B11F4F383E2830895E3
:10486000FC0180819181DB018D939C93892B11F454
:1048700073836283718360830895FC0111821082C7
:10488000938382830895CF93DF931F921F92CDB7B6
:10489000DEB71A821982F894BE016F5F7F4F86E4FB
:1048A00094E0CBDF89819A81009709F017D3898141
:1048B0009A81892B89F7BE016F5F7F4F8AE494E06C
:1048C000BCDF89819A81009709F008D389819A8198
:1048D000892B89F778940F900F90DF91CF910895ED
:1048E000CF93DF931F921F92CDB7DEB71A82198242
:1048F000F894BE016F5F7F4F82E494E09EDF898170
:104900009A81009709F0EAD289819A81892B89F7E7
:1049100078940F900F90DF91CF91089581E00895E2
:1049200090E080E00895EF92FF920F931F93CF9352
:10493000DF931F921F92CDB7DEB71A821982809142
:10494000410407EF1FEF8823A1F1F894BE016F5FC8
:104950007F4F8AE494E071DF789489819A81EE2414
:10496000E394F12C892B51F4F894BE016F5F7F4FD3
:1049700086E494E062DF7894F12CE12C89819A81BD
:104980000EEF1FEF0097A9F0FC014281538164E014
:1049900070E076D68C01892B61F0F89469817A8178
:1049A000C701880F991F880F991F8A5B9B4F58DF9B
:1049B0007894C8010F900F90DF91CF911F910F91C4
:1049C000FF90EF9008950F931F93CF93DF9300D044
:1049D0001F92CDB7DEB71C821B821A82198280918A
:1049E000410407EF1FEF8823C1F0AE014D5F5F4F19
:1049F00064E070E0CE010196B6D68C01892B69F493
:104A0000E981FA818B819C8193838283F894698107
:104A10007A8182E494E002DF7894C8010F900F90CD
:104A20000F900F90DF91CF911F910F910895BBD7F9
:104A3000049608958F929F92AF92BF92CF92DF9289
:104A4000EF92FF920F931F93CF93DF931F921F92CA
:104A5000CDB7DEB71A821982BC016F5F7F4F63301A
:104A6000710598F0AA24AA94BA2CC5010F900F9052
:104A7000DF91CF911F910F91FF90EF90DF90CF903A
:104A8000BF90AF909F908F9008954115510551F3BD
:104A9000480159018A016C01CADF8815990511F78F
:104AA000E114F104F9F28E0D9F1DA816B906D0F29B
:104AB000809141048823F1F0F894B50164507109A4
:104AC0009701AE014F5F5F4FC8010496E1D65C01CC
:104AD000892B71F489819A81F80193838283C601BD
:104AE000880F991F880F991FB8018A5B9B4F96DE2C
:104AF0007894BBCF87EFA82EBB24BA94B6CFAF92E1
:104B0000BF92CF92DF92EF92FF920F931F93CF93BA
:104B1000DF931F921F92CDB7DEB71A821982892BBD
:104B200009F047C06115710509F443C041155105ED
:104B300009F43FC02115310509F43BC001151105E9
:104B4000C1F1809141048823B9F179016A015B01C7
:104B5000F894BE016F5F7F4F82E494E06EDE78943C
:104B600089819A81009759F1DC0112966D917C91AF
:104B7000A8010496A6D68C01E981FA81D501ED93AE
:104B8000FC93828193810496F601918380834FDFA9
:104B9000D7018D939C93C8010F900F90DF91CF9117
:104BA0001F910F91FF90EF90DF90CF90BF90AF904B
:104BB00008950FEF1FEFEFCF07EF1FEFECCF0EEFD2
:104BC0001FEFE9CFCF93DF93EC01672B71F4F4D69D
:104BD0008C179D0760F0E7D62496C80FD91FE6D63C
:104BE0008C0F9D1FDF91CF910895E3D6F1CF90E018
:104BF00080E0F8CF0F931F93CF93DF932091410470
:104C000021112BC08B01EC0186E494E001DE8AE4E3
:104C100094E0FEDD82E494E0FBDD97D00097C1F4E0
:104C2000CBD670E060E0CEDF4BE752E062E070E0B0
:104C300081D1009769F480917B0290917C02CED65D
:104C4000B801CE0103D5009719F421E02093410467
:104C5000DF91CF911F910F91089584EF9FEFF8CFCF
:104C6000A8C6AAC6CF93DF93AAD6EC01892B11F46C
:104C70000ADE36DECE01DF91CF910895CF93DF9328
:104C80009ED6EC01892B09F4FEDDCE01DF91CF9198
:104C9000089580917B0290917C020895CF93DF93D9
:104CA00080914104D0E0C0E08823D1F09CD6EC0193
:104CB000892BB1F4E8DD14DE80917B0290917C02B7
:104CC000E7D1E8D2EC01892B59F486E494E0D5DDF4
:104CD0008AE494E0D2DD82E494E0CFDD10924104D6
:104CE000CE01DF91CF910895EF92FF920F931F9322
:104CF000CF93DF93EC017A018B010F5F1F4F0E9D65
:104D0000A0010F9D500D1E9D500D112470E060E01C
:104D10000E94613A90E080E0F0E0E0E02FEFE816DA
:104D2000F90639F4DF91CF911F910F91FF90EF9029
:104D300008951A8219822883309711F0D283C18393
:104D40000196FE01C00FD11FEACFCF92DF92EF9202
:104D5000FF920F931F93CF93DF930FE515E00C7F26
:104D600043E050E06DE772E083E892E01CD48DE709
:104D7000E82E82E0F82E93E8C92E92E0D92EC6EDF7
:104D8000D5E0D7014D915D917D01F6016191719161
:104D90006F01198308835D834C835B834A837F8320
:104DA0006E839B012F5F3F4F249FC001259F900D75
:104DB000349F900D1124998788870115110511F0F2
:104DC000C80192DF88859985080F191F2A96F3E894
:104DD000EF16F2E0FF06A9F6E0E5F4E08CE091E0E2
:104DE000DF019C011D9221503040E1F710924F04E9
:104DF00010924E041092F5051092F4051092F905E8
:104E00001092F8051092F7051092F6051092FB0526
:104E10001092FA051092FD051092FC051092FF0504
:104E20001092FE05109203061092020610920106DF
:104E300010920006109205061092040610920706C2
:104E4000109206061092D3051092D2051092D50545
:104E50001092D40590E080E0DF91CF911F910F91E7
:104E6000FF90EF90DF90CF9008950097F1F0F894C5
:104E7000A3E8B2E0E6EDF5E030E020E04D915D9191
:104E800048175907A8F0428153814115510581F017
:104E90008AE0829FF001839FF00D1124EA52FA4FBD
:104EA00080819181009759F4789490E080E0089592
:104EB0002F5F3F4F3A962330310501F7F5CFDC01E4
:104EC00011966D917C917183608341505109538398
:104ED0004283FC012193CF0178940895009749F112
:104EE000DC018E91853041F4E091D405F091D50537
:104EF0003097F9F0CD0119948530D8F4282F30E09F
:104F0000F8948FEF8C938AE0829FF001839FF00DDD
:104F10001124EA52FA4F8081918112969C938E93CC
:104F20001197B183A08382819381019693838283B9
:104F300078940895CF92DF92EF92FF920F931F9390
:104F4000CF93DF939C0183E594E08C7F411551055D
:104F500009F49BC02115310509F497C0611571054D
:104F600009F493C07A01AB01B9016D5F7F4F6C7F8B
:104F70009B012F5F3F4F249F8001259F100D349F81
:104F8000100D1124F8942091F4053091F505232B90
:104F900059F42091FC053091FD052115310569F189
:104FA0002017310708F058C02091FE053091FF0509
:104FB000232B91F42091FC053091FD05820F931F66
:104FC00020910606309107062115310509F441C0EC
:104FD0002017310708F056C07894CFEFDFEF86EF47
:104FE0009FEFF701D183C083DF91CF911F910F9184
:104FF000FF90EF90DF90CF900895C3E0D0E0C09095
:105000004E04D0904F0429E031E02C193D092017BF
:10501000310710F32AE02C9FF0012D9FF00D112491
:10502000EA52FA4F918380835583448353834283AA
:105030007783668311870087009709F055DE0C0D92
:105040001D1D10934F0400934E04789490E080E06F
:10505000C8CFC4E0D0E0D3CFC3E0D0E02AE02C9F9B
:10506000F0012D9FF00D1124EA52FA4F91838083B5
:10507000558344835383428377836683009729F360
:1050800033DEE3CFC4E0D0E0E9CF8FEF9FEFACCFCA
:105090009C010397029708F069C0F89484E09AE0B5
:1050A000482F50E0241735070CF44DC091E08AE0FA
:1050B000829FF001839FF00D1124EA52FA4F118272
:1050C000108215821482138212821782168299230B
:1050D000B1F18091F4059091F505892BA9F4209107
:1050E000FC053091FD052115310571F080914E04CC
:1050F00090914F04821B930B90934F0480934E0426
:105100001092FD051092FC058091FE059091FF051F
:10511000892BA9F420910606309107062115310547
:1051200071F080914E0490914F04821B930B9093E9
:105130004F0480934E04109207061092060678944E
:1051400090E080E00895949FF001959FF00D112468
:10515000EA52FA4F40815181452B31F44085518507
:10516000452B11F481509CCF90E0A1CF8FEF9FEFA2
:1051700008954115510549F1009739F161157105FF
:1051800021F1F8942091D2053091D305232BB9F465
:105190002091D4053091D505232B89F49093D30524
:1051A0008093D2057093D5056093D405789425E05B
:1051B00030E090E080E0FA01318320830895789414
:1051C0002FEF3FEF86EF9FEFF6CF8FEF9FEF089522
:1051D000059769F4F8941092D3051092D2051092B5
:1051E000D5051092D405789490E080E008958FEF73
:1051F0009FEF08956115710519F4F0E0E0E011C02A
:105200008530910581F4E091D205F091D305309776
:10521000A1F3CB0101961995009779F3FC0185E084
:105220008193CF0108959C0123503109223031052B
:1052300020F72AE0289FD001299FB00D1124AA52FF
:10524000BA4F2D913C911197232BB9F216962D91BF
:105250003C9117972617370780F2F89412962D91F4
:105260003C9113972115310529F0ED91FC9111978F
:10527000309711F47894C1CF4181528111965C939B
:105280004E932150310913963C932E93129781939C
:105290007894C7CFECE5F5E086E7DF011D928A95AB
:1052A000E9F7E0E5F4E08CE091E0DF019C011D927C
:1052B00021503040E1F710924F0410924E04E6ED79
:1052C000F5E082E3DF011D928A95E9F7E2EDF5E072
:1052D00084E0DF011D928A95E9F790E080E008956F
:1052E000CF93DF93C0918902D0918A02CF3FDC0730
:1052F00059F423D490938A028093890297FF09C0BE
:10530000D0938A02C093890284EF9FEFDF91CF91FF
:10531000089590E080E0FACF8230910528F48093E0
:10532000080690E080E008958FEF9FEF08954F9278
:105330005F926F927F92AF92BF92CF92DF92EF9285
:10534000FF920F931F93CF93DF931F921F92CDB7BE
:10535000DEB71A821982009709F479C061157105C8
:1053600009F475C02091890230918A0207EF1FEF7E
:105370002F3F3F4F09F445C06B015C01412C512C7C
:105380003201F12CE12C10E000E09E012F5F3F4F35
:10539000A6014E195F09B5016E0D7F1D809189022E
:1053A00090918A022ED4892B09F04BC089819A8171
:1053B000009741F4E114F10429F420910806222316
:1053C00009F442C0E80EF91EEC14FD04D0F480E8A4
:1053D000481684E858068EE16806710420F560E0FE
:1053E00070E0CB010E9416342AE0420E511C611C71
:1053F000711C0A3F4FEF140721F0043F8FEF18078D
:10540000A1F4C8010F900F90DF91CF911F910F91E0
:10541000FF90EF90DF90CF90BF90AF907F906F9014
:105420005F904F90089501EF1FEF81E090E0013F02
:105430002FEF120711F090E080E0892B09F4A5CF3F
:10544000E0CF04EF1FEFDDCF0AEF1FEFDACF0FEF52
:105450001FEFD7CF4F925F926F927F92AF92BF9222
:10546000CF92DF92EF92FF920F931F93CF93DF9330
:105470001F921F92CDB7DEB71A821982009709F4E6
:1054800079C06115710509F475C0209189023091C8
:105490008A0207EF1FEF2F3F3F4F09F445C06B0112
:1054A0005C01412C512C3201F12CE12C10E000E088
:1054B0009E012F5F3F4FA6014E195F09B5016E0D8A
:1054C0007F1D8091890290918A024ED3892B09F029
:1054D0004BC089819A81009741F4E114F10429F4C9
:1054E00020910806222309F442C0E80EF91EEC14AC
:1054F000FD04D0F480E4481682E458068FE0680684
:10550000710420F560E070E0CB010E9416342AE0BF
:10551000420E511C611C711C0E3F4FEF140721F00D
:10552000043F8FEF1807A1F4C8010F900F90DF918F
:10553000CF911F910F91FF90EF90DF90CF90BF9090
:10554000AF907F906F905F904F90089502EF1FEFA4
:1055500081E090E0023F2FEF120711F090E080E031
:10556000892B09F4A5CFE0CF04EF1FEFDDCF0EEFBD
:105570001FEFDACF0FEF1FEFD7CF80918902909105
:105580008A028F3F980749F0D0D2892B49F48FEFD8
:105590009FEF90938A028093890290E080E00895C3
:1055A00084EF9FEF0895CF92DF92EF92FF920F93D7
:1055B0001F93CF93DF9321E04115510509F020E0BF
:1055C0004150510921112CC0DC01FB01D12CC12C0F
:1055D00021E022C03FEFC31AD30A7D010D911D9136
:1055E000E701EA80FB80E016F106A8F42081318112
:1055F000E280F380F182E08233832283ED90FC909D
:1056000011979D0122503109E901F982E882119632
:105610001C930E9320E03296C416D506D8F2D2CF52
:10562000DF91CF911F910F91FF90EF90DF90CF907E
:105630000895FC01680F791F90E080E0E617F707F6
:1056400009F408952191820F911DF8CF2091090648
:10565000211113C045DE009791F410920F061092AD
:105660000E0610920D0610920C0610920B06109268
:105670000A0621E020930906089584EF9FEF08951C
:10568000AF92BF92CF92DF92EF92FF920F931F9350
:10569000CF93DF93009709F460C04630510508F4BA
:1056A0005CC020910906C7EFDFEF222309F449C04F
:1056B0008C01060F171FF801C080D180C114D104DE
:1056C00009F44EC096012A5F3F4F4217530708F472
:1056D00047C07C0180910E0690910F0693838283D0
:1056E000B6016C5F7F4F5801A60EB71EC801A1DF3F
:1056F000F5019183808364E070E0C80118DEEC015D
:10570000892BF9F481E090E007DEB601C801049628
:105710000EDEEC01892B91F462E070E0C50107DE3A
:10572000EC01892B59F4C701D9DB80910E069091C9
:105730000F06019690930F0680930E0690E080E08E
:10574000EBDDCE01DF91CF911F910F91FF90EF9094
:10575000DF90CF90BF90AF900895CFEFDFEFF1CF04
:10576000C9EFDFEFEECF6F927F928F929F92AF9251
:10577000BF92CF92DF92EF92FF920F931F93CF933E
:10578000DF9300D01F92CDB7DEB7009709F47AC03F
:105790004115510509F476C02091090607EF1FEF66
:1057A000222309F44DC03A017B015C0164E070E002
:1057B000CE0101964FDE8C01892B09F041C0098191
:1057C0001A810115110509F45AC0480186E0880EB6
:1057D000911CB701680D791D80918B0290918C020C
:1057E00009DD6C01009709F450C0A70170E060E08A
:1057F0000E94613A89819A81AB81BC81EC0CFD1CCD
:10580000F70181939193A193B1937F0181E090E09F
:1058100083DDB801C7011EDE892B31F562E070E03F
:10582000C701800F911F16DE8C01892BE9F490E0EF
:1058300080E072DDF501D182C082F3019182808225
:10584000C8010F900F900F900F90DF91CF911F9193
:105850000F91FF90EF90DF90CF90BF90AF909F900F
:105860008F907F906F90089590E080E055DDF50176
:1058700011821082F30111821082C6012FDB09EF21
:105880001FEFDECF0FEF1FEFDBCF06EF1FEFD8CFFD
:105890000097A1F04115510589F02115310571F0EE
:1058A000F90136966E177F0748F0DC012D933C9383
:1058B000DA01ED93FC9390E080E008958FEF9FEF85
:1058C0000895AF92BF92CF92DF92EF92FF920F9323
:1058D0001F93CF93DF93009709F45FC041155105E3
:1058E00009F45BC06530710508F457C020910906C2
:1058F000C7EFDFEF222391F1DC01CD90DC9011970F
:105900001296ED91FC9196012A5F3F4FC9EFDFEFB0
:105910002617370719F5C0910A06D0910B06209774
:1059200049F521E030E030930B0620930A067A0116
:105930008C01F0930D06E0930C065601B4E0AB0E1B
:10594000B11CB50176DE0A0D1B1DF80120813181E5
:105950008217930729F5D701CD92DC92CE01DF9112
:10596000CF911F910F91FF90EF90DF90CF90BF905C
:10597000AF90089520910C0630910D062F5F3F4F98
:10598000CCEFDFEFE217F30790F2CBEFDFEF2E174C
:105990003F0768F2D0E0C0E0CACFCFEFDFEFDECF45
:1059A000C3EFDFEFDBCF84E090E0089582E090E08A
:1059B00008958CEF9FEF089580E290E00895109293
:1059C0000F0610920E0610920D0610920C06109201
:1059D0000B0610920A0690E080E0089590938C02E6
:1059E00080938B02089580910906882391F0C5DD8C
:1059F000009789F410920F0610920E0610920D0671
:105A000010920C0610920B0610920A0610920906CC
:105A1000089590E080E00895009749F061157105C0
:105A200031F0FC0111821082FB0111821082089575
:105A3000F3CF26E030E040E855E260E070E090E02F
:105A400080E000C08130910571F01CF4892B39F0A1
:105A500008958230910551F0039759F0089580E23E
:105A600096E00C9443378DEB96E0FBCF8AE597E008
:105A7000F8CF87EF97E0F5CF1F920F920FB60F92F6
:105A800011240BB60F922F933F934F935F936F9315
:105A90007F938F939F93AF93BF93EF93FF9386E092
:105AA0009FEF9093250180932401BFD0FF91EF9148
:105AB000BF91AF919F918F917F916F915F914F9126
:105AC0003F912F910F900BBE0F900FBE0F901F9024
:105AD000189586E09FEF9093250180932401A3E71A
