:1000000005C100000C94B7310C94E2310C940D3210
:100010000C9438320C9463320C948E320C94B932B6
:100020000C94E43224C1000022C1000020C1000071
:100030001EC100001CC100001AC1000018C1000050
:1000400016C1000014C1000012C1000010C1000060
:100050000EC100000CC100000AC100000C940F3357
:1000600006C100000C940B370C94413700C100000E
:10007000FEC00000FCC00000FAC00000F8C0000094
:10008000F6C00000F4C00000F2C00000F0C00000A4
:100090000C9497370C94CD37EAC00000E8C00000FC
:1000A000E6C00000E4C00000E2C00000E0C00000C4
:1000B000DEC00000DCC00000DAC00000D8C00000D4
:1000C000D6C00000D4C000000C94A42C0C9423389B
:1000D0000C945938CCC000000C94AF380C94E5381F
:1000E000C6C0000000000A0B02090C0D0E08070331
:1000F00004010000000000000000000000000000FB
:1001000000000000000000000000000000000000EF
:1001100012111000000000000000000000000000AC
:100120000000000000000000000001021020200874
:100130000810204010204080020102010804020142
:1001400001020408102040808040201008040201B1
:10015000800402018040201008040201080402010A
:100160000102040810204080010204081020408091
:1001700005050505070508080808020202020A0A23
:100180000808040404040101010101010101030341
:10019000030303030303040707070C0C0C0C0C0CEC
:1001A0000C0C0202020206060606060606060B0BE9
:1001B0000B0B0B0B0B0B000020002300260029006B
:1001C0002C002F003200000100000301060109018C
:1001D00000002200250028002B002E0031003400F2
:1001E00002010000050108010B01000021002400AC
:1001F00027002A002D003000330001010000040117
:1002000007010A016A37F63782380E3911241FBEFA
:10021000CFEFD1E2DEBFCDBF00E00CBF13E0A0E026
:10022000B2E0E4EAF3E700E00BBF02C007900D92F2
:10023000A034B107D9F728E0A0E4B3E001C01D92D3
:10024000A73EB207E1F711E0C6E0D1E000E006C04A
:1002500021970109802FFE010E949F39C230D107EA
:1002600080E00807A9F70E94332E0C94D039C8CE3D
:10027000611102C00C9450356130E1F362E0FACFB5
:10028000662319F061E00C948C3560E0FCCFCF93CD
:10029000DF93EC0170E060E06C177D070CF5072E32
:1002A000000C880B990B0E94D22F20E030E0A901AE
:1002B0000E94BC2E20E030E0A9010E94BC2E20E06C
:1002C00030E040E450E40E94BC2E20E030E040E406
:1002D00050E40E94BB2E0E949F2F6F5F7F4FDCCFA8
:1002E000DF91CF910895CF93DF9380915003909148
:1002F00051030E94B935EC01809156039091570348
:10030000C6DF80915203909153030E94B935019743
:1003100071F48091540390915503219771F40196E3
:100320009093550380935403DF91CF91089580916A
:10033000540390915503CD2B91F30197F1CFCF93B7
:10034000DF9380914803909149030E94B935EC01F5
:1003500080914E0390914F039ADF80914A039091D0
:100360004B030E94B935019771F480914C03909131
:100370004D03219771F4019690934D0380934C03A4
:10038000DF91CF91089580914C0390914D03CD2B37
:1003900091F30197F1CFCF93DF9380914003909138
:1003A00041030E94B935EC018091460390914703C7
:1003B0006EDF80914203909143030E94B93501970B
:1003C00071F48091440390914503219771F4019653
:1003D0009093450380934403DF91CF9108958091DA
:1003E000440390914503CD2B91F30197F1CFCF9327
:1003F000DF9380914A0390914B030E94B935EC0141
:1004000080914E0390914F0342DF80914803909179
:1004100049030E94B935019771F480914C03909182
:100420004D03CD2B71F4019690934D0380934C03B3
:10043000DF91CF91089580914C0390914D032197C6
:1004400091F30197F1CFCF93DF9380914203909185
:1004500043030E94B935EC01809146039091470314
:1004600016DF80914003909141030E94B9350197B6
:1004700071F48091440390914503CD2B71F4019662
:100480009093450380934403DF91CF910895809129
:10049000440390914503219791F30197F1CFCF93B6
:1004A000DF9380915203909153030E94B935EC0180
:1004B0008091560390915703EADE8091500390910A
:1004C00051030E94B935019771F4809154039091C2
:1004D0005503CD2B71F401969093550380935403EB
:1004E000DF91CF9108958091540390915503219706
:1004F00091F30197F1CF0F931F93CF93DF938C016B
:10050000EC0183E0CC0FDD1F8A95E1F7C05CDC4F86
:10051000798368835B834A838881998160E00E9444
:1005200050358A819B8160E00E9450358881998195
:1005300061E00E948C358A819B8161E00E948C354C
:1005400001301105D9F10230110509F466C0012B03
:1005500009F092C080914003909141030297843149
:10056000910530F587569D4FFC018081082E000CC7
:10057000990B41E050E063E272E00E943D318091CE
:10058000420390914303029784319105A0F487566A
:100590009D4FFC018081082E000C990B41E050E03A
:1005A0006BEC71E0DF91CF911F910F910C943D3175
:1005B0008FEF9FEFDECF8FEF9FEFF0CF809148035B
:1005C0009091490302978431910508F587569D4F14
:1005D000FC018081082E000C990B41E050E067EF90
:1005E00071E00E943D3180914A0390914B03029744
:1005F0008431910578F487569D4FFC018081082E47
:10060000000C990B41E050E06FE971E0CBCF8FEF28
:100610009FEFE3CF8FEF9FEFF5CF80915003909145
:10062000510302978431910508F587569D4FFC01CF
:100630008081082E000C990B41E050E06FE472E0DD
:100640000E943D318091520390915303029784316F
:10065000910578F487569D4FFC018081082E000C8F
:10066000990B41E050E063E771E09CCF8FEF9FEF83
:10067000E3CF8FEF9FEFF5CFDF91CF911F910F91D8
:10068000089523E0880F991F2A95E1F7FC01E05CAB
:10069000FC4F848195810895CF92DF92EF92FF9273
:1006A000CF93882351F16A017B01CFEFC80F20E07F
:1006B00030E0A901CB01B6010E94332F18168CF04F
:1006C000C701B60190580E94A42F9B01AC016C2F6A
:1006D00070E090E080E0CF91FF90EF90DF90CF90BE
:1006E000B2C0C701B6010E949F2F8C2FCF91FF90FF
:1006F000EF90DF90CF900C941634CF91FF90EF9055
:10070000DF90CF9008950F931F938B019C0183E09E
:1007100036952795179507958A95D1F7085A1C4F56
:10072000462F477021E030E0F90102C0EE0FFF1FB5
:100730004A95E2F7AF01F80120812423CB0101960D
:10074000211102C090E080E01F910F9108950F9356
:100750001F938B019C0183E036952795179507958C
:100760008A95D1F7677081E090E001C0880F6A95A3
:10077000EAF7F801E85AFC4F2081452B31F48095C7
:10078000822380831F910F910895822BFACF2F929D
:100790003F924F925F926F927F928F929F92AF9211
:1007A000BF92CF92DF92EF92FF920F931F93CF935E
:1007B000DF93D62EC72E782E692E49015A012801C3
:1007C00061E08D2D0E945035CD2DDC2D8E010F5F07
:1007D0001F4FA8016D2D7C2D872D962DB8DF20E0B1
:1007E00030E0A901C201B7010E94D530181664F4A7
:1007F000C201B7010E94A42F2B01C501B4010E94C0
:10080000A42FA201CE0123D0C801DF91CF911F9167
:100810000F91FF90EF90DF90CF90BF90AF909F909F
:100820008F907F906F905F904F903F902F900895A2
:10083000882341F08150682F70E090E080E050E024
:1008400040E085CF0895862FB9010C9416349C01A1
:10085000FC01EC51FF4FE491E150E231E0F4F0E0B3
:100860008827EA5CFB4F8F4F0C949F3948044F0454
:10087000520469047E044B0493049F04A304BA0445
:10088000CF04E404FB0410054B0425053C05510589
:1008900084B5806884BD60E0822F0C948C3584B56B
:1008A0008062F8CF809180008C7F8260809380008E
:1008B00080918100807E8061682B609381005093DD
:1008C000870040938600809180008068809380003C
:1008D000E2CF809180008C7F826080938000809145
:1008E0008100807E8061682B609381005093870037
:1008F00040938600809180008062E8CF80918000E4
:100900008C7F82608093800080918100807E8061F6
:10091000682B6093810050938700409386008091FC
:1009200080008860D3CF8091B00080688093B00051
:100930008091B100887F682B6093B100ACCF80912B
:10094000B0008062F3CF809190008C7F82608093B2
:10095000900080919100807E8061682B609391006F
:100960005093970040939600809190008068809308
:10097000900091CF809190008C7F82608093900056
:1009800080919100807E8061682B609391005093EC
:10099000970040939600809190008062E8CF80910C
:1009A00090008C7F82608093900080919100807E87
:1009B0008061682B6093910050939700409396005C
:1009C000809190008860D3CF8091A0008C7F82605E
:1009D0008093A0008091A100807E8061682B60934D
:1009E000A1005093A7004093A6008091A0008068CA
:1009F0008093A00050CF8091A0008C7F8260809374
:100A0000A0008091A100807E8061682B6093A1008E
:100A10005093A7004093A6008091A0008062E8CF89
:100A20008091A0008C7F82608093A0008091A100C3
:100A3000807E8061682B6093A1005093A700409353
:100A4000A6008091A0008860D3CF809120018C7F88
:100A500082608093200180912101807E8061682BDB
:100A6000609321015093270140932601809120013A
:100A70008068809320010FCF809120018C7F82605D
:100A80008093200180912101807E8061682B60939A
:100A9000210150932701409326018091200180621B
:100AA000E8CF809120018C7F82608093200180912B
:100AB0002101807E8061682B609321015093270182
:100AC00040932601809120018860D3CF90E080E0A0
:100AD00008950F931F93009709F489C0611571055C
:100AE00009F485C0009160021091610220916202B8
:100AF000309163020E3F1F4F2F4F3F4F09F068C0E8
:100B00004FEF5FEFBA014093600250936102609330
:100B100062027093630240916002509161026091A1
:100B2000620270916302DC011296ED91FC9180816A
:100B30009181A281B3818093E7039093E803A0930E
:100B4000E903B093EA0384819581A681B7818093FC
:100B5000E3039093E403A093E503B093E603808559
:100B60009185A285B3858093DF039093E003A093E2
:100B7000E103B093E20384859585A685B7858093CC
:100B8000DB039093DC03A093DD03B093DE031092AC
:100B9000D7031092D8031092D9031092DA030E945F
:100BA00089108EEA90E190936203809361039093A1
:100BB0006403809363030E94780F009731F421E06F
:100BC00030E03093EC032093EB031F910F910895D5
:100BD00000916002109161022091620230916302E3
:100BE000DB010D931D932D933C93139794CF8FEFBF
:100BF0009FEFEBCF8F929F92AF92BF92CF92DF92F7
:100C0000EF92FF921F93CF93DF934B015C01109102
:100C1000EE0382E090E09093EC038093EB03811469
:100C20009104A104B10441F48091EE03811104C048
:100C30008091ED03C1E08111C0E0C12CD12C76017F
:100C40008091EE03811106C08091ED03811102C0F5
:100C5000CC23D9F083E090E09093EC038093EB03F6
:100C6000CC2381F1CCE9DFEF111102C00E941214F4
:100C7000CE01DF91CF911F91FF90EF90DF90CF9049
:100C8000BF90AF909F908F9008956AE070E080E0F1
:100C900090E00E947E3380E1C80E87E2D81EE11CFE
:100CA000F11C8FEF88169806A806B80631F0C1E04F
:100CB0008C149D04AE04BF0408F0C0E080E00E94E4
:100CC000AC0FBECFD0E0C0E0CFCFCF92DF92EF929B
:100CD000FF920F931F93CF93DF938F3F910511F0F6
:100CE00008F051C02091EB033091EC032330310523
:100CF00039F02091EB033091EC032130310531F4D0
:100D000024E030E03093EC032093EB036A017B0195
:100D1000EC0182309105A8F011E0AE01C701B601E7
:100D20000E94770FAB01BC01CE011123F9F0DF91D6
:100D3000CF911F910F91FF90EF90DF90CF900C9487
:100D40003B168C01000F111F0F591C4FD8018D91BC
:100D50009C91892B09F30E9445160297E9F6D80168
:100D6000ED91FC91CE011995182FD7CF0E945D16F9
:100D700090E080E0DF91CF911F910F91FF90EF9075
:100D8000DF90CF9008958FEF9FEFF4CF80E00C9429
:100D9000AC0FCF93DF9386E090E09093EC038093C9
:100DA000EB030E940510EC01E1E6F3E084E0DF01D3
:100DB0001D928A95E9F70E94AA131092EC031092F3
:100DC000EB03CE01DF91CF9108958091ED0308955B
:100DD0008091D603089560936002709361028093BE
:100DE00062029093630290E080E0089560E070E01A
:100DF00080E89FE7089560E070E080E89FE708954D
:100E000060E070E080E89FEF089560E070E080E8C7
:100E10009FEF089560E070E080EC9FEF089560E040
:100E200070E080EC9FEF0895F5DF60938808709381
:100E3000890880938A0890938B08F1DF60937C087F
:100E400070937D0880937E0890937F08CFDF609336
:100E50008408709385088093860890938708CBDF79
:100E60006093800870938108809382089093830830
:100E7000C7DF60938C0870938D0880938E089093E1
:100E80008F08C3DF60939008709391088093920855
:100E9000909393080895CF92DF92EF92FF92CF93B1
:100EA0006B017C01AC019B01609184087091850805
:100EB00080918608909187080E94332FC1E0882393
:100EC00071F0A701960160918C0870918D08809156
:100ED0008E0890918F080E94332F8111C0E08C2FD3
:100EE000CF91FF90EF90DF90CF9008950F931F93D5
:100EF0008B019C010027112720783F7701151105F0
:100F000020483F4749F4AB01BC016F77772781E068
:100F1000452B462B472B09F480E01F910F91089534
:100F2000E5CFFC0191E08091B403811190E09183C1
:100F30000895CF92DF92EF92FF926B017C019F7731
:100F400020E030E040E859E50E94332F87FF2BC0B6
:100F500020E030E040E05FE3C701B6010E94D530F9
:100F600087FD0EC020E030E040E05FE3C701B6013E
:100F70000E94BC2EFF90EF90DF90CF900C940D302C
:100F800020E030E040E05FEBC701B6010E94D530C1
:100F9000181684F420E030E0A901C701B6010E94D0
:100FA000D9306B017C01C701B601FF90EF90DF9053
:100FB000CF90089520E030E040E05FE3C701B60144
:100FC0000E94BB2EFF90EF90DF90CF900C94202FCB
:100FD0004F925F926F927F928F929F92AF92BF9249
:100FE000CF92DF92EF92FF928091B4038F5F8A30AD
:100FF00008F070C08093B403C0909F03D090A0030A
:10100000E090A103F090A2038FEFC81AD80AE80A73
:10101000F80AC0929F03D092A003E092A103F0923D
:10102000A203C114D104E104F10499F48091A30353
:101030009091A403A091A503B091A6030196A11DD0
:10104000B11D8093A3039093A403A093A503B09331
:10105000A6038090A7039090A803A090A903B09046
:10106000AA036091A3037091A4038091A5039091BA
:10107000A6030E94D02FA50194010E94D93020E040
:1010800030E040E85FE40E94D9302B013C01C70109
:10109000B6010E94D02FA50194010E94D9309B0176
:1010A000AC01C301B2010E94BC2E60939B037093FC
:1010B0009C0380939D0390939E03FF90EF90DF909D
:1010C000CF90BF90AF909F908F907F906F905F90E8
:1010D0004F9008951092B4038FCF4F925F926F920A
:1010E0007F928F929F92AF92BF92CF92DF92EF92B8
:1010F000FF920F931F93CF93DF93C0901402D09071
:101100001502E0901602F0901702A7019601609177
:101110009A0870919B0880919C0890919D080E946C
:10112000332F8823B1F0C701B601B5DE882309F457
:1011300090C08090140290901502A0901602B0907A
:10114000170280929A0890929B08A0929C08B092F5
:101150009D0881E090E095DABC01990F880B990B0E
:101160000E94D22F209128023091290240912A0218
:1011700050912B020E94D9306B017C01AC019B0184
:1011800060912C0270912D0280912E0290912F027D
:101190000E94D9306093CD087093CE088093CF0819
:1011A0009093D0082091D1083091D2084091D30873
:1011B0005091D40860911002709111028091120236
:1011C000909113020E94D9304B015C0140900C02B7
:1011D00050900D0260900E0270900F02AC019B01C6
:1011E000C301B2010E94332F18166CF4C301B2017F
:1011F00097DE811108C080900C0290900D02A090A3
:101200000E02B0900F028091C708882309F43EC0F7
:10121000C092B608D092B708E092B808F092B90828
:10122000409038025090390260903A0270903B0230
:10123000A7019601C301B2010E94332F87FF16C098
:101240004092B6085092B7086092B8087092B908F8
:101250001DC0609114027091150280911602909148
:1012600017025EDE882309F464CF6BCF40903C0206
:1012700050903D0260903E0270903F02A70196019F
:10128000C301B2010E94D5301816D4F220E030E03C
:10129000A9016091300270913102809132029091E7
:1012A00033020E94332F811104C08091C608882325
:1012B00089F1C092B608D092B708E092B808F092CF
:1012C000B908409038025090390260903A0270900C
:1012D0003B02A7019601C301B2010E94332F87FF91
:1012E00009C04092B6085092B7086092B808709250
:1012F000B90810C040903C0250903D0260903E0200
:1013000070903F02A7019601C301B2010E94D5303F
:1013100018163CF34090B6085090B7086090B80893
:101320007090B9080091400210914102D0914202A0
:10133000C091430298014D2F5C2FB201C3010E945E
:10134000D5301816A4F00091440210914502D091B6
:101350004602C091470298014D2F5C2FB201C30194
:101360000E94332F87FD03C08201D62DC72D20E0B8
:1013700030E0A901C501B4010E94332F412C512C4A
:1013800090E8692E95E2792E882319F0412C512C92
:10139000320198014D2F5C2FC701B6010E94BB2E70
:1013A0006B017C01A3019201C501B4010E94BC2E16
:1013B0009B01AC0160E070E080E89FE30E94372F62
:1013C000A70196010E94D9304B015C0120910802CF
:1013D0003091090240910A0250910B020E94D930CB
:1013E0006B017C010091040210910502D09106026C
:1013F000C09107029B01AC01B8018D2F9C2F0E9468
:10140000332F87FD14C00091000210910102D0918A
:101410000202C09103029601A701B8018D2F9C2FF3
:101420000E94D53018161CF08601DE2DCF2D9801B4
:101430004D2F5C2F609148027091490280914A02C1
:1014400090914B020E94D9306093D9087093DA08CA
:101450008093DB089093DC08C0904C02D0904D0242
:10146000E0904E02F0904F02C092DD08D092DE086C
:10147000E092DF08F092E0088FEF9FEFDC018093AD
:10148000BE089093BF08A093C008B093C108809194
:10149000C80881111CC081E08093C80882E090E0F8
:1014A000A0E0B0E08093C2089093C308A093C40862
:1014B000B093C508F7FAF094F7F8F094C092E108F9
:1014C000D092E208E092E308F092E4081DC0609137
:1014D000CD087091CE088091CF089091D0080091EE
:1014E000C2081091C3082091C4083091C50801308A
:1014F00011052105310509F01CC120E030E0A901EA
:101500000E94332F181654F60091E1081091E2085A
:10151000D091E308C091E408C0905002D0905102ED
:10152000E0905202F0905302A7019601B8018D2F6E
:101530009C2F0E94D5301816A4F0C0905402D09071
:101540005502E0905602F0905702A7019601B801AB
:101550008D2F9C2F0E94332F87FD03C06801ED2E35
:10156000FC2EC701B601DCDCC82F882309F4F6C0C5
:10157000209188083091890840918A0850918B0801
:10158000609158027091590280915A0290915B02C9
:101590000E94332F87FF01C16091200270912102C8
:1015A0008091220290912302C4DC2B013C0120E0B7
:1015B00030E040E853E40E94332F6FEF87FF0EC006
:1015C00020E030E0A901C301B2010E94D53060E003
:1015D00087FD04C0C301B2010E94A42F8AE00E94CB
:1015E0004001CC2309F4E2C0209188083091890899
:1015F00040918A0850918B0860915C0270915D0265
:1016000080915E0290915F020E94332F87FFEDC0B0
:10161000609118027091190280911A0290911B0238
:1016200088DC2B013C0120E030E040E853E40E94DC
:10163000332F6FEF87FF0EC020E030E0A901C30118
:10164000B2010E94D53060E087FD04C0C301B20141
:101650000E94A42F89E00E94400168E070E080E0D1
:1016600090E051D8EC019093B5088093B408E894C9
:10167000F7F820E030E04FE753E4C701B6010E94DD
:10168000332F181634F4C12CD12C8FE7E82E83E4C5
:10169000F82EB701A601CE010E944C031092C70894
:1016A000C0903002D0903102E0903202F0903302CC
:1016B00020E030E0A901C701B6010E94332F81115B
:1016C000ADC02091340230913502409136025091E4
:1016D0003702C501B4010E94D9302091B60830917B
:1016E000B7084091B8085091B9080E94BC2E4B0130
:1016F0005C018092B6089092B708A092B808B092A8
:10170000B908409038025090390260903A027090C7
:101710003B02A30192010E94D53018160CF06EC056
:101720004092B6085092B7086092B8087092B90813
:1017300075C020E030E044E354E40E94D53087FDDA
:10174000E3CE81E090E0A0E0B0E08093C208909307
:10175000C308A093C408B093C508B0CE20E030E021
:10176000A901C701B6010E94332F20E030E040E814
:101770005FEB87FD05CF20E030E0A901C701B6018E
:101780000E94D53020E030E040E85FE318160CF40A
:10179000F7CE20E030E0A901F3CE609124027091F1
:1017A00025028091260290912702FECE20E030E0B3
:1017B000A901C701B6010E94332F20E030E040E8C4
:1017C0005FEB87FD19CF20E030E0A901C701B6012A
:1017D0000E94D53020E030E040E85FE318160CF4BA
:1017E0000BCF20E030E0A90107CF60911C0270917F
:1017F0001D0280911E0290911F0212CF40903C0268
:1018000050903D0260903E0270903F02A301920111
:10181000C501B4010E94332F87FD82CF20E030E064
:10182000A901C701B6010E94D530181624F481E041
:101830008093C60816C020E030E0A901C701B601B8
:101840000E94332F87FF02C08FEFF2CF20E030E0FD
:10185000A901C701B6010E94332F81113DC010922A
:10186000C6088091AB039091AC03A091AD03B091F9
:10187000AE030196A11DB11D8093AB039093AC0301
:10188000A093AD03B093AE03892B8A2B8B2B99F4D5
:101890008091AF039091B003A091B103B091B203D6
:1018A0000196A11DB11D8093AF039093B003A09347
:1018B000B103B093B203DF91CF911F910F91FF90CD
:1018C000EF90DF90CF90BF90AF909F908F907F90E0
:1018D0006F905F904F90089582E0AACFCF92DF92F1
:1018E000EF92FF920F931F93CF9384E090E09CDAE6
:1018F00080918C0890918D08A0918E08B0918F08EE
:101900008093000290930102A0930202B09303021D
:1019100040918408509185086091860870918708ED
:1019200040930402509305026093060270930702ED
:10193000409338025093390260933A0270933B020D
:1019400080933C0290933D02A0933E02B0933F02ED
:1019500040934002509341026093420270934302CD
:101960008093440290934502A0934602B0934702AD
:10197000E5E8F3E085E3DF011D928A95E9F780E071
:1019800090E0A0E8BFEB8093B5039093B603A093DB
:10199000B703B093B8038FE692E1A3E8BAE380936C
:1019A000A7039093A803A093A903B093AA0384ED7F
:1019B00097EFADE1B4EE8093890390938A03A093EF
:1019C0008B03B0938C0380E69DE3A4EBB2EC809391
:1019D0008D0390938E03A0938F03B093900383E8BD
:1019E0009BEDA5EFB5EA8093910390939203A093AA
:1019F0009303B093940383E094ECADE9B5EC80934A
:101A0000950390939603A0939703B093980389E767
:101A100093E0909388038093870385E693E0909307
:101A20007A03809379038DEA92E090936603809322
:101A30006503909368038093670390936A03809390
:101A4000690390936C0380936B0390936E03809370
:101A50006D039093700380936F0390937203809350
:101A60007103909374038093730390937603809330
:101A70007503909378038093770389E993E09093BB
:101A80007E0380937D0389E893E090937C038093A9
:101A90007B038BE993E09093800380937F03EDECCD
:101AA000F8E088E1DF011D928A95E9F7E4E9F8E0C2
:101AB00089E3DF011D928A95E9F781E08093CA08E6
:101AC0006091140270911502809116029091170294
:101AD000E2D9882309F4B5C0C0901402D090150251
:101AE000E0901602F0901702C0929A08D0929B08DC
:101AF000E0929C08F0929D08C12CD12C7601C394F1
:101B0000C0929508D0929608E0929708F0929808B3
:101B100044E050E062E070E081E090E00E947B02EF
:101B2000C1E0C09399088AE097EDA3E2BCE38093FB
:101B3000D1089093D208A093D308B093D408109200
:101B4000D5081092D6081092D7081092D808809124
:101B50004C0290914D02A0914E02B0914F028093A1
:101B6000DD089093DE08A093DF08B093E0081092A0
:101B7000A608C093CC08C092A708D092A808E0920B
:101B8000A908F092AA0861E08AE00E943801C09397
:101B9000AB0810929E08C093CB08C0929F08D092C9
:101BA000A008E092A108F092A20861E089E00E94FA
:101BB0003801C093A3081092AE08C093C908C09220
:101BC000AF08D092B008E092B108F092B208E12CD0
:101BD000F12C8701A801970168E070E080E090E0B7
:101BE0000E94C7039093B5088093B408C093B308CC
:101BF0001092C608C093C7088FEF9FEFDC01809357
:101C0000BE089093BF08A093C008B093C10810927B
:101C1000C8081092C2081092C3081092C40810920B
:101C2000C508E092E108F092E2080093E3081093FF
:101C3000E408CF911F910F91FF90EF90DF90CF902C
:101C4000089560911402709115028091160290918E
:101C5000170266D9882309F43FCF46CF80919408B4
:101C6000811103C081E0809394088091A6088111BE
:101C700003C081E08093A60880919E08811103C073
:101C800081E080939E088091AE0881112EC081E092
:101C90008093AE088091AF089091B008A091B108F0
:101CA000B091B2080197A105B105F9F48091B3088C
:101CB0008823D9F068E070E080E090E00E94830320
:101CC0009093B5088093B40840E050E0BA010E94B8
:101CD0004C0368E070E080E090E00E948303909302
:101CE000B5088093B4080C94180408954F925F923D
:101CF0006F927F928F929F92AF92BF92CF92DF921C
:101D0000EF92FF920F931F93F8944090C603509068
:101D1000C7036090C8037090C903C090BA03D09005
:101D2000BB03E090BC03F090BD03452B09F0A4C0B9
:101D30009B01AC01241935094609570929013A01CB
:101D40000091C2031091C3032091C4033091C503D5
:101D500048015901840C951CA61CB71C80169106DD
:101D6000A206B306A0F40091BE031091BF03209118
:101D7000C0033091C1030F5F1F4F2F4F3F4F0093A0
:101D8000BE031093BF032093C0033093C10380921E
:101D9000C2039092C303A092C403B092C503009102
:101DA000BE031091BF032091C0033091C103809204
:101DB000CA039092CB03A092CC03B092CD030093C0
:101DC000CE031093CF032093D0033093D1036093BD
:101DD000C6037093C7038093C8039093C903A8EE0A
:101DE000B3E0A30192010E94A7396C0D7D1D8E1DE9
:101DF0009F1D6093BA037093BB038093BC039093C1
:101E0000BD03009160021091610220916202309145
:101E100063020F3F1F4F2F4F3F4FF1F000916002C1
:101E20001091610220916202309163020E3F1F4FB8
:101E30002F4F3F4F89F0C0906002D0906102E09038
:101E40006202F090630221E08C149D04AE04BF0492
:101E500008F420E02093D60378941F910F91FF900F
:101E6000EF90DF90CF90BF90AF909F908F907F903A
:101E70006F905F904F9008954B015C018418950816
:101E8000A608B708A3019201261B370B480B590B74
:101E90006415750586059705D0F082169306A4068D
:101EA000B50640F420E030E0A90181149104A104BA
:101EB000B10491F4A8EEB3E00E94A739A7019601FE
:101EC000261B370B480B590BCA01B901C5CF821627
:101ED0009306A406B50670F7A8EEB3E0A501940139
:101EE0000E94A7396C0D7D1D8E1D9F1DB5CFFECEA6
:101EF000CF93DF9300D01F92CDB7DEB71C821B8239
:101F00001A8219821092D2031092D3031092D40332
:101F10001092D503BE016F5F7F4FCE0103960E94E2
:101F2000742C69817A818B819C810E946225009743
:101F300061F4BE016F5F7F4FCE0103960E94802C3B
:101F400069817A818B819C812ED50F900F900F90A3
:101F50000F90DF91CF910895FF920F931F93CF932E
:101F6000DF93082F60E070E0CB010E947E33FF24F6
:101F7000F3940E944B24EC01892B89F010E0CE3FB2
:101F80008FEFD80769F0002361F160E070E0CB01CA
:101F90000E947E3381E090E0892B59F322C011E04A
:101FA00025D5EC01892B21F0CE3F8FEFD80759F7CB
:101FB00011111EC011E0229609F410E00E94FB23CB
:101FC000EC01892B21F0CE3F8FEFD807E1F61111FC
:101FD00011C011E0CE3F8FEFD80709F410E00111D6
:101FE0000BC0CE01DF91CF911F910F91FF9008950B
:101FF00011E0E4CF11E0F3CF60E070E0CB010E948C
:102000007E331F25812F90E0C7CFCF93DF93809140
:10201000D603882321F060E070E0CB014CD635D6A2
:10202000D0E0C0E0892B71F06AE070E080E090E0E1
:102030000E947E3381E090DF28D62196C03D27E0C4
:10204000D20781F727D60E94B6251092EE03109290
:10205000ED031092E7031092E8031092E903109247
:10206000EA031092E3031092E4031092E503109246
:10207000E6031092DF031092E0031092E103109246
:10208000E2031092DB031092DC031092DD03109246
:10209000DE031092D7031092D8031092D903109246
:1020A000DA034EEF5FEF6FEF7FEF409360025093E4
:1020B000610260936202709363021092D603EAECAD
:1020C000F3E028E0DF011D922A95E9F71092C6039C
:1020D0001092C7031092C8031092C9031092C20352
:1020E0001092C3031092C4031092C5031092BE0352
:1020F0001092BF031092C0031092C1031092BA0352
:102100001092BB031092BC031092BD03DF91CF91DC
:1021100008951092FA031092FB031092FC031092A0
:10212000FD031092F90380910204909103049093AF
:10213000F8038093F7031092F6031092F5031092C0
:10214000F1031092F2031092F3031092F403109231
:10215000FF031092FE0390E080E00895CF92DF929B
:10216000EF92FF920F931F93CF938C01892B09F06D
:1021700055C020910204309103048091F70390919F
:10218000F80340910204509103045093F8034093E4
:10219000F7032817390781F01092F6031092F50320
:1021A0001092F1031092F2031092F3031092F403D1
:1021B0001092FF031092FE03809102049091030499
:1021C000019761F58091FE039091FF03892B21F423
:1021D00080916402811112C08091FE039091FF03EF
:1021E0000197E1F48091F1039091F203A091F30340
:1021F000B091F4030197A105B10581F41092F103A8
:102200001092F2031092F3031092F40310926402FE
:1022100082E090E09093FF038093FE03809102049C
:1022200090910304019709F01CC1809118049091CA
:1022300019048017910709F014C18091140490913A
:102240001504A0911604B0911704009709F409C170
:102250002091130421110DC04091140450911504D4
:102260006091160470911704452B462B472B09F4F7
:10227000F8C02091FE033091FF032230310509F0B0
:10228000F0C02091F5032111ECC0FC01C080D18089
:10229000E280F3808091F903882309F4D3C0809110
:1022A000050490910604892B09F4FDC020910504D2
:1022B0003091060481E02230310509F080E0209160
:1022C000050430910604C1E02130310549F0209128
:1022D000050430910604C1E02230310509F0C0E068
:1022E000882309F456C020910F04309110044091C6
:1022F000110450911204C701B6010E94D53087FD28
:1023000014C020910F043091100440911104509199
:1023100012046091FA037091FB038091FC03909189
:10232000FD030E94332F87FD22C020910F043091BE
:1023300010044091110450911204C701B6010E948B
:10234000D530181634F520910F04309110044091C7
:102350001104509112046091FA037091FB03809173
:10236000FC039091FD030E94332F811112C08091D4
:10237000070490910804A0910904B0910A04892BE4
:102380008A2B8B2B19F481E08093F60381E08093F4
:10239000F503CC2309F456C020910F0430911004AA
:1023A0004091110450911204C701B6010E94332FCD
:1023B00087FF14C020910F04309110044091110444
:1023C000509112046091FA037091FB038091FC0319
:1023D0009091FD030E94D53087FF22C020910F0409
:1023E000309110044091110450911204C701B601BC
:1023F0000E94332F811126C020910F0430911004C8
:1024000040911104509112046091FA037091FB0302
:102410008091FC039091FD030E94D530181694F42E
:102420008091070490910804A0910904B0910A04D6
:10243000892B8A2B8B2B19F481E08093F60381E0A2
:102440008093F50381E09091F503911180E08093F2
:10245000F903C092FA03D092FB03E092FC03F092DE
:10246000FD03012B09F067C18091FE039091FF03EA
:10247000892BD9F4109204041092F5038091640220
:10248000882379F082E090E09093FF038093FE032D
:1024900010926402209102043091030481E0232B06
:1024A000E9F080E01BC081E00ACF109264028091C5
:1024B0000404882349F01092F6031092FF0310924F
:1024C000FE0310920404EDCF809102049091030466
:1024D000892BE1F08091F5031092F5032091FE0322
:1024E0003091FF032230310509F45EC088F42115D4
:1024F000310509F448C02130310509F4F3C01092C8
:10250000F6031092F5031092040438C081E0E6CF80
:102510002330310509F4B1C02430310581F74091F1
:10252000F1035091F2036091F3037091F4034115AC
:1025300051056105710561F0415051096109710949
:102540004093F1035093F2036093F3037093F40309
:102550004091F1035091F2036091F3037091F40301
:10256000452B462B472BD9F42091000430910104D0
:102570002130310509F046C01092F6031092FF0396
:102580001092FE030CC080916402882341F082E027
:1025900090E09093FF038093FE03109264021092E8
:1025A000EF038091F603CEC08823C9F3809107041E
:1025B00090910804A0910904B0910A041816190614
:1025C0001A061B060CF07DC0809102049091030452
:1025D000019709F076C08091070490910804A091BA
:1025E0000904B0910A048093F1039093F203A0933D
:1025F000F303B093F40383E090E09093FF038093A0
:10260000FE03CDCF40910B0450910C0460910D045A
:1026100070910E04452B462B472BA9F01092F60320
:1026200080910B0490910C04A0910D04B0910E04C4
:102630008093F1039093F203A093F303B093F40318
:1026400081E090E0DACF882399F080916502909143
:102650006602A0916702B09168028093F1039093A3
:10266000F203A093F303B093F40384E090E0C5CFAA
:102670001092F60382E090E0C0CF8091F103909138
:10268000F203A091F303B091F4030097A105B10503
:1026900059F00197A109B1098093F1039093F203D6
:1026A000A093F303B093F4038091F1039091F203AC
:1026B000A091F303B091F403892B8A2B8B2B09F0A3
:1026C0006ECF8091650290916602A0916702B091F1
:1026D0006802892B8A2B8B2B09F44ECF81E08093E3
:1026E000F603B3CF4091F1035091F2036091F303ED
:1026F0007091F403411551056105710561F0415078
:102700005109610971094093F1035093F2036093F9
:10271000F3037093F4034091F1035091F20360913D
:10272000F3037091F403452B462B472B09F037CF69
:102730008111C7CF9FCF8091EF03882309F431CF58
:102740008091F003CF911F910F91FF90EF90DF9058
:10275000CF9008951092FA031092FB031092FC039D
:102760001092FD031092F9031092FF031092FE03E2
:102770001092F8031092F7031092190410921804A3
:102780001092F6031092F5031092F1031092F203E7
:102790001092F3031092F4031092F0031092EF03DF
:1027A000109214041092150410921604109217043B
:1027B0001092130410920F0410921004109211043E
:1027C0001092120488EE93E0A0E0B0E080936502DE
:1027D00090936602A0936702B093680210920B0474
:1027E00010920C0410920D0410920E041092070423
:1027F000109208041092090410920A041092060420
:102800001092050481E080936402109204041092F7
:10281000030410920204109201041092000490E04C
:1028200080E008958091020490910304892B19F5AA
:1028300080916402882351F080910404811106C0C4
:1028400081E08093F0038093EF03089520910404C6
:102850003091640281E090E0332311F090E080E059
:1028600030E082239323892B21F01092F00381E042
:10287000EACF1092EF03089582E090E0FA0191838D
:1028800080838FEF9FEF0895CF93DF93EA01009746
:1028900011F00E94D6261982188290E080E0DF9124
:1028A000CF910895DB01009719F48FEF8C93089571
:1028B0002EEF2C93FC013F96EF30F10508F034C069
:1028C0008827EA59FB4E8F4F0C949F39921490142D
:1028D0008E148C148A148614881484148214801420
:1028E0007D14791475147B14941480E311968C93E1
:1028F000089589E2FBCF82E2F9CF11961C920895E8
:1029000083E2F4CF81E2F2CF81E1F0CF87E2EECF34
:102910008AE2ECCF80E1EACF84E2E8CF88E2E6CF3A
:1029200086E2E4CF81E3E2CF80E2E0CF809126042B
:102930009091270408959093270480932604089586
:1029400080912504089590912504892B8093250476
:102950000895982F909580912504892380932504CC
:102960000895809124040895809122049091230475
:1029700008956115710559F0FB0130E020E070E029
:1029800060E02417350719F06115710511F0CB01CE
:102990000895A081B181A817B90709F4BF012F5F7D
:1029A0003F4F3696EECF8091280481111CC060D233
:1029B00066D290931B0480931A040E94D41E0E9436
:1029C000E61E90931F0480931E040E9463230E94BE
:1029D0006A2390931D0480931C0481E08093280453
:1029E00090E080E0089584EF9FEF08958F929F928A
:1029F000AF92BF92CF92DF92EF92FF920F931F930D
:102A0000CF93DF9300D000D000D01F92CDB7DEB7B8
:102A10001A86198618861F821E821D821C821B82BE
:102A20001A8219828091280407EF1FEF882309F486
:102A30009CC08E010D5F1F4F9E012B5F3F4FAE016B
:102A4000495F5F4FBE01675F7F4F90E080E00E946B
:102A5000E7248C01009721F00596029708F0DBC06F
:102A600029853A852115310509F402C1ED80FE80E2
:102A70004B815C81B701640F751F8F819885861724
:102A8000970708F4F5C0E20EF31ED7019C91903C25
:102A900009F07FC04230510508F47BC011968C913B
:102AA0004091260450912704452B09F49CC0913F86
:102AB00008F071C02CE1290F2D3008F48BC02DE2F5
:102AC000290F203108F489C0903C21F481508230D4
:102AD00008F483C088E3890F8B3008F481C092E545
:102AE000C92E94E1D92EECE3F4E16D817E81AE0133
:102AF0004F5F5F4F89859A8519955C01C114D10498
:102B0000A1F189809A808114910479F18B819C8153
:102B10008815990508F487C010E000E04B815C81BE
:102B200070E060E0C7010E94C93901151105E9F4A0
:102B300049815A8169857A858D819E81680F791FC7
:102B4000C501F6011995E980FA800D811E812F815A
:102B5000388549855A856FEF7FEF81E090E00E94CC
:102B600082248C01892B09F056C0C8012A960FB621
:102B7000F894DEBF0FBECDBFDF91CF911F910F91B3
:102B8000FF90EF90DF90CF90BF90AF909F908F908D
:102B9000089580E085CF30E020E0220F331FF90157
:102BA000E65EFB4F0190F081E02D309709F497CF5E
:102BB000892F90E01995009709F491CFDC011296C6
:102BC000ED91FC9113971496CD90DC90309709F01D
:102BD0008CCF1FC021E030E0E0CF22E030E0DDCF3D
:102BE00023E030E0DACFD12CC12CE4E4F4E19F3FC4
:102BF00009F07BCFE0911A04F0911B04309721F487
:102C0000C90104EF1FEF0CC08FEF90E019950097FA
:102C1000A9F604EF1FEF89859A85009709F4A5CFDF
:102C20000E94D626A2CF0E94B1258C0189859A8563
:102C30000E94D62670E060E0C4010E944A25988771
:102C40008F830E947F249E838D836F817885611599
:102C5000710559F0C8010E9462289A87898706EF9A
:102C60001FEF892B09F058CF59CF08EF1FEF56CF30
:102C700008EF1FEFD0CF20912804222319F020E085
:102C80000C94EB1E87EF9FEF08958091260490919E
:102C9000270408950E946F230E94C922F5D0EAE11B
:102CA000F4E088E0DF011D928A95E9F7109228048C
:102CB00090E080E008950C94272121E040E050E06E
:102CC000BA010C94EB1E86E090E0FA0191838083B8
:102CD00090E080E0089547E050E060EB72E049CE7C
:102CE000DF92EF92FF920F931F93CF93DF938A01AE
:102CF000EC01C60FD71FE0902C04F0902D04D98072
:102D00000E949925D816190678F082E090E0F80123
:102D1000918380838EEF9FEFDF91CF911F910F9171
:102D2000FF90EF90DF900895EF2841F482E090E06B
:102D3000F8019183808384EF9FEFEECF89818093A8
:102D40002B0490E00196F8019183808390E080E06D
:102D5000E3CFCF93DF93EA010E94D821882321F0AB
:102D60000E94A6250E94D92182E090E09983888361
:102D70008BEF9FEFDF91CF910895CF93DF93EB011E
:102D800086E0FB0111928A95E9F78FEF8883D8DD01
:102D90008983E7DD8A83E8DD9D838C83DF91CF9192
:102DA0000895CF93DF93EA010E94DB21811109C0CE
:102DB00082E090E09983888385EF9FEFDF91CF9148
:102DC000089590E080E0B7DD81E090E0998388830A
:102DD00090E080E0F3CF0F931F93CF93DF93EA014E
:102DE0008C01060F171F0E94DB2181110BC082E0AE
:102DF00090E09983888385EF9FEFDF91CF911F91BA
:102E00000F910895F8018181823038F082E090E0DE
:102E1000998388838EEF9FEFF0CF81E090E08BDD88
:102E200088E090E09983888390E080E0E6CFCF93BC
:102E3000DF930097D1F4EB01FB01329686E0DF01CE
:102E40001D928A95E9F78FEF888385E089831A823E
:102E50000E9499258B830E9498259D838C8381E015
:102E60008E838F83DF91CF910895DF91CF911ACD1B
:102E70008BE696E190932A0480932904089580912B
:102E8000290490912A04089510922A04109229048A
:102E9000089580912C0490912D040895411105C04E
:102EA000611571058105910561F060932C047093A3
:102EB0002D0480932E0490932F044093300481E0DE
:102EC000089580E00895FF920F931F93CF93DF93AF
:102ED0008A01EC01C60FD71FF9800E949925F816C8
:102EE000190668F082E090E0F801918380838EEF0C
:102EF0009FEFDF91CF911F910F91FF9008956C810B
:102F00007D818E819F814B81C9DF811108C082E064
:102F100090E0F8019183808384EF9FEFEACF89816D
:102F200080932B0490E00196F8019183808390E0D8
:102F300080E0DFCFCF93DF93EA01FC01E60FF71FBC
:102F400064817581868197814381A8DF811109C0E1
:102F500082E090E09983888384EF9FEFDF91CF91A7
:102F6000089581E090E09983888390E080E0F6CF37
:102F7000ECE2F4E04081518162817381480F511D80
:102F8000611D711D40835183628373830895CF93C4
:102F9000C0912B044C2F50E060912C0470912D04B3
:102FA00001960E94C0398C2FE3DF10922B04CF9141
:102FB0000895009799F480912C0490912D042FEF9F
:102FC000FB012083892B59F020912B0430E02F5FE7
:102FD0003F4F2417350719F4CB01D9CF63CC08959F
:102FE000009799F480912C0490912D042FEFFB0110
:102FF0002083892B59F020912B0430E02F5F3F4F25
:103000002417350719F4CB01C2CF4CCC089523E126
:10301000AC01249FC001259F900D1124E09135043F
:10302000F0913604E80FF91F2381348122503109D1
:1030300081E02230310508F080E008950F931F935E
:10304000CF93DF930091370410913804D0E0C0E0B3
:1030500080E00C171D0749F491E0811190E0892F61
:10306000DF91CF911F910F9108958111F5CFCE017E
:10307000CEDF2196EECFA0913504B09136041097A3
:1030800029F1209137043091380482179307F0F426
:1030900053E1589F9001599F300D1124A20FB31F87
:1030A000ED91FC911197309789F012968C916817E9
:1030B00068F48DE0689FE00DF11D112480819181FD
:1030C000892B21F081E09281491708F080E0089572
:1030D0009C0143E1429FC001439F900D1124E09168
:1030E0003504F0913604E80FF91F8385823091F49E
:1030F00081E090E0658176814091690250916A0299
:103100006417750711F490E080E0892B19F081E0D5
:10311000232B09F080E00895FC01A081B1818DE0AE
:10312000689FA00DB11D112413964D915C9185856A
:103130009685489F9001499F300D589F300D11246E
:10314000C9010196611103C0478144FD04960895A9
:10315000EF92FF920F931F93CF93DF93EA01FC014D
:10316000E60FF71F02811381E480F5804F2D6E2D4D
:10317000C80181DF81110DC082E090E099838883CE
:103180008EEF9FEFDF91CF911F910F91FF90EF9006
:103190000895C8013CDF882339F082E090E09983EC
:1031A000888388EF9FEFEECF1093700200936F0239
:1031B000E0927102F092720281E090E0998388833C
:1031C00090E080E0DFCFCF92DF92EF92FF920F93FB
:1031D0001F93CF93DF937A01EC01C60FD71FC090E6
:1031E0006F02D09070020091710210917202412F13
:1031F000602FC60140DF811110C082E090E0F7012E
:10320000918380838AEF9FEFDF91CF911F910F9180
:10321000FF90EF90DF90CF900895C601F8DE8823ED
:1032200041F082E090E0F7019183808388EF9FEF87
:10323000EBCF4C815D816E817F819A8189818F3F47
:1032400041F082E090E0F701918380838EEF9FEF61
:10325000DBCFE3E1EC9D9001ED9D300D1124E09179
:103260003504F0913604E20FF31F0190F081E02D58
:103270002DE0029FE00DF11D11240190F081E02D61
:1032800027E0129FE00DF11D1124808391838B8133
:10329000828343835483658376831F5F1093720216
:1032A00081E090E0F7019183808390E080E0ACCFF3
:1032B000EF92FF920F931F93CF93DF937A018C01CC
:1032C000060F171FC0913504D0913604209781F066
:1032D00021E030E0F80182819381409137045091E0
:1032E00038048417950710F030E020E0232B71F4A8
:1032F00082E090E0F701918380838EEF9FEFDF9172
:10330000CF911F910F91FF90EF90089543E1489F57
:103310009001499F300D1124C20FD31F78DE8823FE
:1033200041F082E090E0F7019183808388EF9FEF86
:10333000E6CFF8012481358120383105C8F6878130
:103340008111D6CF4181842F90E08F7E009741F08C
:1033500082E090E0F7019183808386EF9FEFCFCFEB
:103360004F833E832D83268128871986223010F4CF
:1033700021E0288721E030E0F70131832083BFCFAF
:1033800088E090E0FA019183808390E080E00895E6
:10339000FB018FEF808381E181838FEF9FEF938328
:1033A000828380E890E09583848316821782089553
:1033B000FB018FEF808391E09183828393838483E9
:1033C00084E3858381E090E0978386830895DF928C
:1033D000EF92FF920F931F93CF93DF93EA01FC01CB
:1033E000E60FF71F8181813071F082E090E09983D0
:1033F00088838FEF9FEFDF91CF911F910F91FF9007
:10340000EF90DF90089582819381D4802581E680BA
:10341000F78000913504109136040115110539F437
:1034200082E090E0998388838CEF9FEFE4CF409116
:103430003704509138048417950738F082E090E003
:10344000998388838EEF9FEFD6CF892B39F082E066
:1034500090E09983888386EF9FEFCDCF8D2D8D7F70
:10346000B1F72130A1F781E0D11006C091E0E91653
:10347000F10431F080E004C0E2E0EE16F104D0F394
:10348000882329F390E080E0C2DD882339F082E0D0
:1034900090E09983888388EF9FEFADCFF801D386C2
:1034A00081E08487F686E586108A178681E090E0C1
:1034B0009983888390E080E09ECF4CE050E06AEDF5
:1034C00072E057CA8F929F92BF92CF92DF92EF9293
:1034D000FF920F931F93CF93DF93EA01FC01E60F56
:1034E000F71F828193810481B580E0913504F091CA
:1034F0003604309791F482E090E0998388838CEFD2
:103500009FEFDF91CF911F910F91FF90EF90DF9090
:10351000CF90BF909F908F90089520913704309165
:1035200038048217930738F082E090E0998388830B
:103530008EEF9FEFE6CF23E1289F6001299FD00CFB
:103540001124EC0DFD1DE080F180E114F10499F2ED
:103550008281081748F78DE0089F80011124E00E52
:10356000F11EF70180819181892B29F6BB20E1F2C0
:10357000F7E0BF9E40011124C4010E949D26F7017F
:1035800091838083E0913504F0913604EC0DFD1DAC
:103590000190F081E02DE00FF11F80819181009773
:1035A00039F482E090E0998388838DEF9FEFA9CF73
:1035B000A40170E060E00E94C939809135049091C7
:1035C0003604C80ED91EF60180819181080F191F9B
:1035D000F801B28281E090E09983888390E080E0F6
:1035E00090CFAF92BF92CF92DF92FF920F931F9333
:1035F000CF93DF93EA01FC01E60FF71F82819381ED
:10360000F48000913504109136040115110581F400
:1036100082E090E0998388838CEF9FEFDF91CF91D8
:103620001F910F91FF90DF90CF90BF90AF900895C2
:1036300020913704309138048217930738F082E0E4
:1036400090E0998388838EEF9FEFE8CF2FEF2F0DC7
:103650002C3FA8F723E1289F6001299FD00C11245B
:103660000C0D1D1DF80180819181892B89F6FDE0EB
:10367000FF9E50011124C5010E949D26F8019183EF
:103680008083E0913504F0913604EC0DFD1D8081BE
:103690009181009739F482E090E0998388838DEFDF
:1036A0009FEFBCCFA50170E060E00E94C939E091B6
:1036B0003504F0913604EC0DFD1DF28281E090E0BE
:1036C0009983888390E080E0A9CFCF92DF92EF9238
:1036D000FF920F931F93CF93DF93860F971FFC01E9
:1036E000028113818091350490913604892B81F0F9
:1036F00082E090E0FA01918380838CEF9FEFDF916D
:10370000CF911F910F91FF90EF90DF90CF90089590
:10371000C801B0E0A0E00197A109B1098F3F9F4F18
:10372000A105B10540F082E090E0FA019183808329
:103730008EEF9FEFE4CF7A0183E1809F6001819F4C
:10374000D00C1124C6010E949D26EC01009741F483
:1037500082E090E0F701918380838DEF9FEFCFCFE0
:10376000A60170E060E00E94C939D0933604C0938E
:103770003504109338040093370490E080E02FEF75
:103780003FEF41E061E070E08017910741F481E094
:1037900090E0F7019183808390E080E0B0CF3A8B96
:1037A000298B1B864C877E876D87188A1F8601961A
:1037B0006396EACFEF92FF921F93CF93DF93EC01D2
:1037C00010E0F12CE12C6A811617B0F083E0689FBD
:1037D000B0011124AE014F5E5F4FC7010E94022766
:1037E000009721F02FEF3FEF3A8B298BDF91CF919C
:1037F0001F91FF90EF900895612FCE018DDC61E065
:1038000070E00E944A25E816F90608F47C011F5F63
:10381000DACFF894209133043091340481E02115FB
:10382000310509F080E0232B09F0789408952F9258
:103830003F924F925F926F927F928F929F92AF9240
:10384000BF92CF92DF92EF92FF920F931F93CF938D
:10385000DF933C01660E771EF301828193814C0158
:10386000B12CA12CC0913504D0913604209769F079
:1038700021E030E060913704709138048617970793
:1038800010F030E020E0232BD1F482E090E0FA0148
:10389000918380838EEF9FEFDF91CF911F910F91E6
:1038A000FF90EF90DF90CF90BF90AF909F908F9060
:1038B0007F906F905F904F903F902F9008958092EF
:1038C000730290927402A0927502B092760263E144
:1038D000689F9001699F300D1124C20FD31FF3011F
:1038E0008181833040F082E090E0FA01918380830F
:1038F00086EF9FEFD1CF2A012B813C81232BF1F45E
:10390000288139819F8191FF2EC0232B09F46FC03C
:1039100020913A049A81422F490F5527551FBA0129
:1039200041E050E06138710514F050E040E0452B73
:1039300009F45DC02A87920F90933A048150823037
:1039400008F481C066DF882309F4D8C0F3018181BF
:10395000813009F48DC008F47BC0823009F4C6C000
:1039600090E080E0ADC0232B09F441C020913904E0
:103970009A81E22FE90FFF27FF1F41E050E0ED3F62
:10398000F10514F050E040E0452B89F12A87920FB1
:1039900090933904D3CFA081B181A20FB31F1196A8
:1039A0006C91060F111D0196295F3F4F84179507F3
:1039B00094F38D859E85089F1001099F300C189FF8
:1039C000300C1124C114D104D1F48F8184FF17C0AD
:1039D0000E949825F5E02F0E311C21E082159305F9
:1039E00008F420E0A701435F5F4F21110EC082E081
:1039F00090E0F2019183808387EF9FEF4DCF0E948B
:103A000098252FEF221A320AE8CF88819981E80E93
:103A1000F91EF70114830383FFEFCF1ADF0A7A013F
:103A20008A818C151D0409F00CF48CCFE881F98192
:103A3000EE0DFF1D428150E030E020E010E000E09C
:103A400090E080E0B3CFF12CE12CD12CC12CE8CF59
:103A500081E090E09C838B83F1DA882309F480CFA6
:103A600081E090E00E949B1480E40E94A91478CF2A
:103A700089899A89019661F083E090E09C838B8329
:103A800082E090E00E949B1480E40E94A31468CF1F
:103A90008D819E812091690230916A02821793077D
:103AA000D1F460916D0270916E02AE014F5E5F4F76
:103AB00080916B0290916C020E9421280097E1F2A4
:103AC000789422E030E0F20131832083892B99F051
:103AD0008DEF9FEFE1CE89288A288B2869F602971F
:103AE00058F6CE0167DE188A1F86E8CF82E090E0A4
:103AF0009C838B8335CF90E080E0CECE82E090E057
:103B0000F2019183808385EF9FEFC6CE8F929F92C3
:103B1000AF92BF92CF92DF92EF92FF920F931F93DB
:103B2000CF93DF93EA018C01060F171FF801818103
:103B3000833098F082E090E09983888386EF9FEF4E
:103B4000DF91CF911F910F91FF90EF90DF90CF9079
:103B5000BF90AF909F908F90089580913504909181
:103B60003604892B61F081E090E020913704309198
:103B70003804232B11F490E080E0892B39F482E0A3
:103B800090E0998388838EEF9FEFDACF42DE88231F
:103B900009F4E0C0F8018181813009F496C0E8F0B1
:103BA000823099F42091370430913804E091350443
:103BB000F091360490E080E041E050E028173907AA
:103BC00009F0BEC03BDA811117C0789481E090E023
:103BD0009983888390E080E0B3CF209137043091BF
:103BE0003804E0913504F091360490E080E041E043
:103BF00050E02817390741F481E090E00E949B14BF
:103C000080E40E94A914E1CF63817481672B11F0D5
:103C10005483438301967396ECCFE0913504F09181
:103C20003604E00FF11F2381348122303105D9F4AD
:103C3000218932892F3F3F4FB1F425813681409150
:103C4000690250916A022417350761F5AF014F5E92
:103C50005F4F60916D0270916E0280916B02909146
:103C60006C020E942128EFEFCE1ADE0AEE0AFE0A4D
:103C70000D5E1F4F409137045091380470E060E0B2
:103C8000C416D506E606F70644F5009731F2789497
:103C9000892B09F49BCF82E090E0998388838DEF94
:103CA0009FEF4ECFC114D104E104F104E1F62230BC
:103CB0003105C8F6CF017EDDE0913504F091360480
:103CC000E00FF11F108A1786CECF10E000E090E0E1
:103CD00080E0C12CD12C7601CDCF0097C1F610E049
:103CE00000E0812C912C540183E0E82EF12C1AC0C5
:103CF000E0913504F0913604E00FF11F8381948147
:103D0000029749F4F482E38282E090E00E949B14DF
:103D100080E40E94A314FFEF8F1A9F0AAF0ABF0A24
:103D20000D5E1F4F8091370490913804B0E0A0E001
:103D300088169906AA06BB06DCF290E080E0A7CFC1
:103D4000638174816230710511F454834383019659
:103D5000739634CF82E090E09983888385EF9FEF5C
:103D6000EFCE0097B9F48FEFFB01808320917302AF
:103D70003091740243E1429FC001439F900D112492
:103D8000E0913504F0913604E80FF91F8285FB01BC
:103D9000818308950C94521488E090E0FA01918395
:103DA000808390E080E008951092340410923304F0
:103DB000E5E3F4E086E0DF011D928A95E9F78DE501
:103DC0009AE19093320480933104089580913104F4
:103DD0009091320408952F923F924F925F926F928A
:103DE0007F928F929F92AF92BF92CF92DF92EF928B
:103DF000FF920F931F93CF93DF93CDB7DEB72F972B
:103E00000FB6F894DEBF0FBECDBFF894E091330437
:103E1000F09134043196F0933404E09333047894B1
:103E200040903504509036044114510409F40CC2FA
:103E3000E0913704F0913804EF2B09F405C22D8787
:103E400049875A876B877C8798878F831201B12CAB
:103E5000A12C10E000E08091370490913804A8165E
:103E6000B90618F40115110529F1F894809133046D
:103E700090913404019790933404809333047894A0
:103E8000C8012F960FB6F894DEBF0FBECDBFDF91ED
:103E9000CF911F910F91FF90EF90DF90CF90BF9047
:103EA000AF909F908F907F906F905F904F903F90DA
:103EB0002F9008957101E418F508D10117968C919F
:103EC000179781FD54C013968D919C911497039779
:103ED00009F04DC015968D919C91EF81F8858E1754
:103EE0009F0709F044C0B50190E080E07FD48A8349
:103EF00020913504309136043D832C833D85332356
:103F000009F44CC04C815D81452B09F49AC1809124
:103F1000370490913804A816B90608F092C1C5017B
:103F2000D7D88823E9F06C817D816E0D7F1D7D835C
:103F30006C83DB011F968D919C91892B89F0D12C8C
:103F4000C12CF12CE12CAC81BD8112968C91129781
:103F50008E151F0409F094F450961C921E921F9720
:103F60002A81222321F0B50190E080E041D43FEF87
:103F7000A31AB30A43E1240E311C6DCFAC81BD817D
:103F8000ED91FC91EC0DFD1D858196810FD7BFEF62
:103F9000EB1AFB0AEDE0CE0ED11CD5CFEC81FD81F2
:103FA000309709F44EC18091370490913804A816D7
:103FB000B90608F046C1EE0DFF1DFF87EE87C5016B
:103FC00087D88B83882339F1AE85BF851F968D9165
:103FD0009C915097019621E01D964D915C9184171C
:103FE000950709F020E02E831982712C10E000E083
:103FF000AE85BF8512968C91781608F45DC0EE856B
:10400000FF85878590890196658576850E94693947
:10401000908B8787A5CFB1E0BE83E6CF9924939498
:104020006BC08BD6F6019683858382C0D601ED9056
:10403000FC90B7E06B9EE00CF11C1124F70163814A
:10404000748180818F3F61F121E030E002C0220F56
:10405000331F8A95E2F7C901092E000CAA0BBB0B8E
:10406000FB01408151816281738184239523A623C2
:10407000B72321E0892B8A2B8B2B09F420E0D40174
:104080002C93D70111968C91F60123853485820FEC
:10409000932F911D880E991E1486138663949BC0DE
:1040A000418150E0C4010E94C039EBCF998206EFF4
:1040B0001FEFC5C01982C3C0F981F111A0CFEDE097
:1040C0007E9E70011124AE85BF85CD90DC90CE0C14
:1040D000DF1C15D49D838C83BB81BB2309F49ECF49
:1040E00081E0EE85FF8527853089232B09F080E06C
:1040F000982E882309F458C0672D8E859F850CD88B
:10410000D60118969C938E93179761E070E0C2D405
:10411000EE85FF85218932892F3F320709F481CF4F
:10412000BC01C901CFD7D60116969C938E931597E3
:10413000D60115968D919C911697009709F4B6CFEC
:10414000EC81FD818E0F9F1F1A969C938E93199779
:10415000AE85BF85ED91FC911197EE0EFF1EF70124
:1041600021853285148613861A968C91870DD90184
:104170008D93711016C0EE85FF85878184FF11C075
:1041800049855A856B857C85F90141835283638318
:104190007483F701838594850496A80FB91F14864C
:1041A0001386F701B287A187D60115968D919C9150
:1041B0001697892B09F443C0EE85FF85258136814A
:1041C0008091690290916A022817390779F019964F
:1041D0008D909C90612CD60112968C911297681646
:1041E00008F424CF1A969C928E921997BE81BB2315
:1041F00009F460CF61E070E0F601878190854AD4D0
:10420000D6011796ED90FC90189715964D915C91FC
:10421000E1E0F0E0BA81BB2311F0F0E0E0E00C81D6
:104220001D819C01B501882799278E1B9F0B6AD39E
:104230008C01892B21F0F60185819681B7D5739485
:10424000D7CE0FEF1FEF8CCE10E000E00ECE2F92F6
:104250003F924F925F926F927F928F929F92AF9216
:10426000BF92CF92DF92EF92FF920F931F93CF9363
:10427000DF93809135049091360410E000E0892BA3
:10428000A9F0C7DA0AEF1FEF882381F020903704E6
:1042900030903804C0913504D0913604D12CC12C13
:1042A00010E000E02C143D04A9F47894C801DF91DB
:1042B000CF911F910F91FF90EF90DF90CF90BF9023
:1042C000AF909F908F907F906F905F904F903F90B6
:1042D0002F900895C6010E946818882309F18B81E8
:1042E0009C810397E9F48F859889892BC9F0B601E1
:1042F00090E080E07BD221E030E0882311F030E0D4
:1043000020E044245524421A530AB12CA12C912CAC
:10431000812C8A818815190409F038F4188A1F86BF
:104320004FEFC41AD40A6396BDCFE881F981EA0D34
:10433000FB1D85819681892BA1F161E070E0878169
:104340009085A8D33C01DBD28C01E881F981EA0D8C
:10435000FB1D8185928525813681200F311FAC019F
:10436000421B530B9A0147815085421B530B70E04F
:1043700060E00E94C939E881F981EA0DFB1DE78000
:10438000F084458156819301B601C201BBD28C01F4
:10439000892B39F0E881F981EA0DFB1D8581968131
:1043A00005D55FEF851A950A8DE0A80EB11CB1CF37
:1043B00030CA789408952F923F924F925F926F92F5
:1043C0007F929F92AF92BF92CF92DF92EF92FF9235
:1043D0000F931F93CF93DF9300D000D0CDB7DEB7FC
:1043E0000091350410913604992493940115110518
:1043F00009F43EC0A0903704B09038040ADA982E31
:104400008823B1F1109236041092350410923804CA
:10441000109237041092390410923A048FEF9FEFF4
:10442000DC018093730290937402A0937502B093A1
:10443000760278947FD31E830D83C12CD12C760114
:10444000C501B0E0A0E089839A83AB83BC832224BA
:104450002A94322C89819A81AB81BC81C816D906F5
:10446000EA06FB06F4F0C801A1D480E40E94A91476
:10447000892D26960FB6F894DEBF0FBECDBFDF9113
:10448000CF911F910F91FF90EF90DF90CF90BF9051
:10449000AF909F907F906F905F904F903F902F9044
:1044A0000895AD81BE8115968D919C9116972091AE
:1044B000690230916A0282179307D1F451968D9167
:1044C0009C91EED5ED81FE8180819181B12CA12C52
:1044D000412C512C3201892B89F5BFEFCB1ADB0A15
:1044E000EB0AFB0AED81FE817396FE83ED83B2CF6A
:1044F000C114D104E104F10429F7029718F7ED8102
:10450000FE81818992898F3F980709F029D5AD8175
:10451000BE8152963C922E925197D4CF8A0D9B1D0C
:10452000DC018D919C91009709F040D4BFEF4B1AAC
:104530005B0A6B0A7B0AEDE0AE0EB11CAD81BE8159
:104540008D919C91119712964C9150E070E060E033
:1045500044165506660677060CF328D4BECFCF93D3
:10456000DF93EA0128DF811109C082E090E099839E
:10457000888385EF9FEFDF91CF91089581E090E0F0
:104580000E949B1481E090E09983888390E080E012
:10459000F2CF11DF1092320410923104089542E0FC
:1045A00050E062E273E00C94B914FF920F931F93F2
:1045B000CF93DF938A01EC01C60FD71FF980B9D2E0
:1045C0000897F816190671F068F082E090E0F8019B
:1045D000918380838EEF9FEFDF91CF911F910F9199
:1045E000FF9008956C817D818E819F814B810E9417
:1045F0004E17811108C082E090E0F801918380831A
:1046000084EF9FEFE9CFF9800E9449174F2D50E0CA
:10461000BE01685F7F4F0E94C03989810E94B81730
:1046200081E090E0F8019183808390E080E0D4CF36
:10463000DF92EF92FF920F931F93CF93DF938A0144
:10464000EC01C60FD71F0E9449177C01D98071D297
:10465000DD2059F0029721E030E0D816190619F054
:1046600010F030E020E0232B79F482E090E0F801B4
:10467000918380838EEF9FEFDF91CF911F910F91F8
:10468000FF90EF90DF900895EF2841F482E090E0F2
:10469000F8019183808384EF9FEFEECFF9800E9431
:1046A00049174F2D50E0BE016E5F7F4F0E94C03909
:1046B00089810E94B81781E090E0F801918380839E
:1046C00090E080E0D9CF8FEC92E290933C0480930D
:1046D0003B04089580913B0490913C040895089513
:1046E000FC0111821082938382830895DB011D9265
:1046F0001C92DC011296ED91FC91139771836083FB
:1047000013967C936E9312970895FC01808191819A
:10471000DB018D939C93A081B181109741F08D9125
:104720009C9191838083892B11F4F383E283089514
:10473000FC0180819181DB018D939C93892B11F485
:1047400073836283718360830895FC0111821082F8
:10475000938382830895CF93DF931F921F92CDB7E7
:10476000DEB71A821982F894BE016F5F7F4F82E430
:1047700094E0CBDF89819A81009709F017D3898172
:104780009A81892B89F7BE016F5F7F4F86E494E0A1
:10479000BCDF89819A81009709F008D389819A81C9
:1047A000892B89F778940F900F90DF91CF9108951E
:1047B000CF93DF931F921F92CDB7DEB71A82198273
:1047C000F894BE016F5F7F4F8EE394E09EDF898196
:1047D0009A81009709F0EAD289819A81892B89F719
:1047E00078940F900F90DF91CF91089581E0089514
:1047F00090E080E00895EF92FF920F931F93CF9384
:10480000DF931F921F92CDB7DEB71A821982809173
:104810003D0407EF1FEF8823A1F1F894BE016F5FFD
:104820007F4F86E494E071DF789489819A81EE2449
:10483000E394F12C892B51F4F894BE016F5F7F4F04
:1048400082E494E062DF7894F12CE12C89819A81F2
:104850000EEF1FEF0097A9F0FC014281538164E045
:1048600070E076D68C01892B61F0F89469817A81A9
:10487000C701880F991F880F991F8E5B9B4F58DFC8
:104880007894C8010F900F90DF91CF911F910F91F5
:10489000FF90EF9008950F931F93CF93DF9300D075
:1048A0001F92CDB7DEB71C821B821A8219828091BB
:1048B0003D0407EF1FEF8823C1F0AE014D5F5F4F4E
:1048C00064E070E0CE010196B6D68C01892B69F4C4
:1048D000E981FA818B819C8193838283F894698139
:1048E0007A818EE394E002DF7894C8010F900F90F4
:1048F0000F900F90DF91CF911F910F910895BBD72B
:10490000049608958F929F92AF92BF92CF92DF92BA
:10491000EF92FF920F931F93CF93DF931F921F92FB
:10492000CDB7DEB71A821982BC016F5F7F4F63304B
:10493000710598F0AA24AA94BA2CC5010F900F9083
:10494000DF91CF911F910F91FF90EF90DF90CF906B
:10495000BF90AF909F908F9008954115510551F3EE
:10496000480159018A016C01CADF8815990511F7C0
:10497000E114F104F9F28E0D9F1DA816B906D0F2CC
:1049800080913D048823F1F0F894B50164507109D9
:104990009701AE014F5F5F4FC8010496E1D65C01FD
:1049A000892B71F489819A81F80193838283C601EE
:1049B000880F991F880F991FB8018E5B9B4F96DE59
:1049C0007894BBCF87EFA82EBB24BA94B6CFAF9212
:1049D000BF92CF92DF92EF92FF920F931F93CF93EC
:1049E000DF931F921F92CDB7DEB71A821982892BEF
:1049F00009F047C06115710509F443C0411551051F
:104A000009F43FC02115310509F43BC0011511051A
:104A1000C1F180913D048823B9F179016A015B01FC
:104A2000F894BE016F5F7F4F8EE394E06EDE789462
:104A300089819A81009759F1DC0112966D917C91E0
:104A4000A8010496A6D68C01E981FA81D501ED93DF
:104A5000FC93828193810496F601918380834FDFDA
:104A6000D7018D939C93C8010F900F90DF91CF9148
:104A70001F910F91FF90EF90DF90CF90BF90AF907C
:104A800008950FEF1FEFEFCF07EF1FEFECCF0EEF03
:104A90001FEFE9CFCF93DF93EC01672B71F4F4D6CE
:104AA0008C179D0760F0E7D62496C80FD91FE6D66D
:104AB0008C0F9D1FDF91CF910895E3D6F1CF90E049
:104AC00080E0F8CF0F931F93CF93DF9320913D04A5
:104AD00021112BC08B01EC0182E494E001DE86E41D
:104AE00094E0FEDD8EE394E0FBDD97D00097C1F407
:104AF000CBD670E060E0CEDF47E752E062E070E0E6
:104B000081D1009769F48091770290917802CED696
:104B1000B801CE0103D5009719F421E020933D049C
:104B2000DF91CF911F910F91089584EF9FEFF8CF00
:104B3000A8C6AAC6CF93DF93AAD6EC01892B11F49D
:104B40000ADE36DECE01DF91CF910895CF93DF9359
:104B50009ED6EC01892B09F4FEDDCE01DF91CF91C9
:104B6000089580917702909178020895CF93DF9312
:104B700080913D04D0E0C0E08823D1F09CD6EC01C8
:104B8000892BB1F4E8DD14DE8091770290917802F0
:104B9000E7D1E8D2EC01892B59F482E494E0D5DD29
:104BA00086E494E0D2DD8EE394E0CFDD10923D0404
:104BB000CE01DF91CF910895EF92FF920F931F9353
:104BC000CF93DF93EC017A018B010F5F1F4F0E9D96
:104BD000A0010F9D500D1E9D500D112470E060E04E
:104BE0000E94C93990E080E0F0E0E0E02FEFE816A5
:104BF000F90639F4DF91CF911F910F91FF90EF905B
:104C000008951A8219822883309711F0D283C183C4
:104C10000196FE01C00FD11FEACFCF92DF92EF9233
:104C2000FF920F931F93CF93DF930FE415E00C7F58
:104C300043E050E069E772E08FE792E01CD489E737
:104C4000E82E82E0F82E9FE7C92E92E0D92ECEEB17
:104C5000D5E0D7014D915D917D01F6016191719192
:104C60006F01198308835D834C835B834A837F8351
:104C70006E839B012F5F3F4F249FC001259F900DA6
:104C8000349F900D1124998788870115110511F023
:104C9000C80192DF88859985080F191F2A96FFE7BA
:104CA000EF16F2E0FF06A9F6ECE4F4E080E091E014
:104CB000DF019C011D9221503040E1F710924B041E
:104CC00010924A041092DD051092DC051092E10565
:104CD0001092E0051092DF051092DE051092E305B8
:104CE0001092E2051092E5051092E4051092E70596
:104CF0001092E6051092EB051092EA051092E90574
:104D00001092E8051092ED051092EC051092EF0557
:104D10001092EE051092BB051092BA051092BD05D7
:104D20001092BC0590E080E0DF91CF911F910F9130
:104D3000FF90EF90DF90CF9008950097F1F0F894F6
:104D4000AFE7B2E0EEEBF5E030E020E04D915D91B1
:104D500048175907A8F0428153814115510581F048
:104D60008AE0829FF001839FF00D1124E254FA4FF4
:104D700080819181009759F4789490E080E00895C3
:104D80002F5F3F4F3A962330310501F7F5CFDC0115
:104D900011966D917C9171836083415051095383C9
:104DA0004283FC012193CF0178940895009749F143
:104DB000DC018E91853041F4E091BC05F091BD0598
:104DC0003097F9F0CD0119948530D8F4282F30E0D0
:104DD000F8948FEF8C938AE0829FF001839FF00D0F
:104DE0001124E254FA4F8081918112969C938E9304
:104DF0001197B183A08382819381019693838283EB
:104E000078940895CF92DF92EF92FF920F931F93C1
:104E1000CF93DF939C018FE494E08C7F4115510583
:104E200009F49BC02115310509F497C0611571057E
:104E300009F493C07A01AB01B9016D5F7F4F6C7FBC
:104E40009B012F5F3F4F249F8001259F100D349FB2
:104E5000100D1124F8942091DC053091DD05232BF1
:104E600059F42091E4053091E5052115310569F1EA
:104E70002017310708F058C02091E6053091E7056A
:104E8000232B91F42091E4053091E505820F931FC7
:104E90002091EE053091EF052115310509F441C04F
:104EA0002017310708F056C07894CFEFDFEF86EF78
:104EB0009FEFF701D183C083DF91CF911F910F91B5
:104EC000FF90EF90DF90CF900895C3E0D0E0C090C6
:104ED0004A04D0904B042DEF30E02C193D092017E7
:104EE000310710F32AE02C9FF0012D9FF00D1124C3
:104EF000E254FA4F918380835583448353834283E2
:104F00007783668311870087009709F055DE0C0DC3
:104F10001D1D10934B0400934A04789490E080E0A8
:104F2000C8CFC4E0D0E0D3CFC3E0D0E02AE02C9FCC
:104F3000F0012D9FF00D1124E254FA4F91838083EC
:104F4000558344835383428377836683009729F391
:104F500033DEE3CFC4E0D0E0E9CF8FEF9FEFACCFFB
:104F60009C010397029708F069C0F89484E09AE0E6
:104F7000482F50E0241735070CF44DC091E08AE02B
:104F8000829FF001839FF00D1124E254FA4F1182A9
:104F9000108215821482138212821782168299233C
:104FA000B1F18091DC059091DD05892BA9F4209168
:104FB000E4053091E5052115310571F080914A0431
:104FC00090914B04821B930B90934B0480934A0463
:104FD0001092E5051092E4058091E6059091E705B1
:104FE000892BA9F42091EE053091EF0521153105AB
:104FF00071F080914A0490914B04821B930B909323
:105000004B0480934A041092EF051092EE057894B9
:1050100090E080E00895949FF001959FF00D112499
:10502000E254FA4F40815181452B31F4408551853E
:10503000452B11F481509CCF90E0A1CF8FEF9FEFD3
:1050400008954115510549F1009739F16115710530
:1050500021F1F8942091BA053091BB05232BB9F4C6
:105060002091BC053091BD05232B89F49093BB059D
:105070008093BA057093BD056093BC05789425E0D4
:1050800030E090E080E0FA01318320830895789445
:105090002FEF3FEF86EF9FEFF6CF8FEF9FEF089553
:1050A000059769F4F8941092BB051092BA05109216
:1050B000BD051092BC05789490E080E008958FEFD4
:1050C0009FEF08956115710519F4F0E0E0E011C05B
:1050D0008530910581F4E091BA05F091BB053097D8
:1050E000A1F3CB0101961995009779F3FC0185E0B6
:1050F0008193CF0108959C0123503109223031055D
:1051000020F72AE0289FD001299FB00D1124A25436
:10511000BA4F2D913C911197232BB9F216962D91F0
:105120003C9117972617370780F2F89412962D9125
:105130003C9113972115310529F0ED91FC911197C0
:10514000309711F47894C1CF4181528111965C93CC
:105150004E932150310913963C932E9312978193CD
:105160007894C7CFECE4F5E08EE6DF011D928A95D6
:10517000E9F7ECE4F4E080E091E0DF019C011D92AE
:1051800021503040E1F710924B0410924A04EEEBAC
:10519000F5E082E3DF011D928A95E9F7EAEBF5E09D
:1051A00084E0DF011D928A95E9F790E080E00895A0
:1051B000CF93DF93C0918502D0918602CF3FDC0769
:1051C00059F423D4909386028093850297FF09C0F7
:1051D000D0938602C093850284EF9FEFDF91CF9139
:1051E000089590E080E0FACF8230910528F4809312
:1051F000F00590E080E008958FEF9FEF08954F92C3
:105200005F926F927F92AF92BF92CF92DF92EF92B6
:10521000FF920F931F93CF93DF931F921F92CDB7EF
:10522000DEB71A821982009709F479C061157105F9
:1052300009F475C0209185023091860207EF1FEFB7
:105240002F3F3F4F09F445C06B015C01412C512CAD
:105250003201F12CE12C10E000E09E012F5F3F4F66
:10526000A6014E195F09B5016E0D7F1D8091850263
:10527000909186022ED4892B09F04BC089819A81A6
:10528000009741F4E114F10429F42091F005222360
:1052900009F442C0E80EF91EEC14FD04D0F480E8D5
:1052A000481684E858068EE16806710420F560E02F
:1052B00070E0CB010E947E332AE0420E511C611C3B
:1052C000711C0A3F4FEF140721F0043F8FEF1807BE
:1052D000A1F4C8010F900F90DF91CF911F910F9112
:1052E000FF90EF90DF90CF90BF90AF907F906F9046
:1052F0005F904F90089501EF1FEF81E090E0013F34
:105300002FEF120711F090E080E0892B09F4A5CF70
:10531000E0CF04EF1FEFDDCF0AEF1FEFDACF0FEF83
:105320001FEFD7CF4F925F926F927F92AF92BF9253
:10533000CF92DF92EF92FF920F931F93CF93DF9361
:105340001F921F92CDB7DEB71A821982009709F417
:1053500079C06115710509F475C0209185023091FD
:10536000860207EF1FEF2F3F3F4F09F445C06B0147
:105370005C01412C512C3201F12CE12C10E000E0B9
:105380009E012F5F3F4FA6014E195F09B5016E0DBB
:105390007F1D80918502909186024ED3892B09F062
:1053A0004BC089819A81009741F4E114F10429F4FA
:1053B0002091F005222309F442C0E80EF91EEC14F6
:1053C000FD04D0F480E4481682E458068FE06806B5
:1053D000710420F560E070E0CB010E947E332AE08A
:1053E000420E511C611C711C0E3F4FEF140721F03F
:1053F000043F8FEF1807A1F4C8010F900F90DF91C1
:10540000CF911F910F91FF90EF90DF90CF90BF90C1
:10541000AF907F906F905F904F90089502EF1FEFD5
:1054200081E090E0023F2FEF120711F090E080E062
:10543000892B09F4A5CFE0CF04EF1FEFDDCF0EEFEE
:105440001FEFDACF0FEF1FEFD7CF8091850290913A
:1054500086028F3F980749F0D0D2892B49F48FEF0D
:105460009FEF909386028093850290E080E00895FC
:1054700084EF9FEF0895CF92DF92EF92FF920F9308
:105480001F93CF93DF9321E04115510509F020E0F0
:105490004150510921112CC0DC01FB01D12CC12C40
:1054A00021E022C03FEFC31AD30A7D010D911D9167
:1054B000E701EA80FB80E016F106A8F42081318143
:1054C000E280F380F182E08233832283ED90FC90CE
:1054D00011979D0122503109E901F982E882119664
:1054E0001C930E9320E03296C416D506D8F2D2CF84
:1054F000DF91CF911F910F91FF90EF90DF90CF90B0
:105500000895FC01680F791F90E080E0E617F70727
:1055100009F408952191820F911DF8CF2091F10592
:10552000211113C045DE009791F41092F7051092F7
:10553000F6051092F5051092F4051092F3051092FD
:10554000F20521E02093F105089584EF9FEF08957F
:10555000AF92BF92CF92DF92EF92FF920F931F9381
:10556000CF93DF93009709F460C04630510508F4EB
:105570005CC02091F105C7EFDFEF222309F449C099
:105580008C01060F171FF801C080D180C114D1040F
:1055900009F44EC096012A5F3F4F4217530708F4A3
:1055A00047C07C018091F6059091F7059383828333
:1055B000B6016C5F7F4F5801A60EB71EC801A1DF70
:1055C000F5019183808364E070E0C80118DEEC018E
:1055D000892BF9F481E090E007DEB601C80104965A
:1055E0000EDEEC01892B91F462E070E0C50107DE6C
:1055F000EC01892B59F4C701D9DB8091F605909114
:10560000F70501969093F7058093F60590E080E00A
:10561000EBDDCE01DF91CF911F910F91FF90EF90C5
:10562000DF90CF90BF90AF900895CFEFDFEFF1CF35
:10563000C9EFDFEFEECF6F927F928F929F92AF9282
:10564000BF92CF92DF92EF92FF920F931F93CF936F
:10565000DF9300D01F92CDB7DEB7009709F47AC070
:105660004115510509F476C02091F10507EF1FEFB0
:10567000222309F44DC03A017B015C0164E070E033
:10568000CE0101964FDE8C01892B09F041C00981C2
:105690001A810115110509F45AC0480186E0880EE7
:1056A000911CB701680D791D809187029091880245
:1056B00009DD6C01009709F450C0A70170E060E0BB
:1056C0000E94C93989819A81AB81BC81EC0CFD1C97
:1056D000F70181939193A193B1937F0181E090E0D1
:1056E00083DDB801C7011EDE892B31F562E070E071
:1056F000C701800F911F16DE8C01892BE9F490E021
:1057000080E072DDF501D182C082F3019182808256
:10571000C8010F900F900F900F90DF91CF911F91C4
:105720000F91FF90EF90DF90CF90BF90AF909F9040
:105730008F907F906F90089590E080E055DDF501A7
:1057400011821082F30111821082C6012FDB09EF52
:105750001FEFDECF0FEF1FEFDBCF06EF1FEFD8CF2E
:105760000097A1F04115510589F02115310571F01F
:10577000F90136966E177F0748F0DC012D933C93B4
:10578000DA01ED93FC9390E080E008958FEF9FEFB6
:105790000895AF92BF92CF92DF92EF92FF920F9354
:1057A0001F93CF93DF93009709F45FC04115510514
:1057B00009F45BC06530710508F457C02091F1050C
:1057C000C7EFDFEF222391F1DC01CD90DC90119740
:1057D0001296ED91FC9196012A5F3F4FC9EFDFEFE2
:1057E0002617370719F5C091F205D091F3052097D8
:1057F00049F521E030E03093F3052093F2057A017A
:105800008C01F093F505E093F4055601B4E0AB0E7E
:10581000B11CB50176DE0A0D1B1DF8012081318116
:105820008217930729F5D701CD92DC92CE01DF9143
:10583000CF911F910F91FF90EF90DF90CF90BF908D
:10584000AF9008952091F4053091F5052F5F3F4FFB
:10585000CCEFDFEFE217F30790F2CBEFDFEF2E177D
:105860003F0768F2D0E0C0E0CACFCFEFDFEFDECF76
:10587000C3EFDFEFDBCF84E090E0089582E090E0BB
:1058800008958CEF9FEF089580E290E008951092C4
:10589000F7051092F6051092F5051092F405109296
:1058A000F3051092F20590E080E00895909388024D
:1058B0008093870208958091F105882391F0C5DDDA
:1058C000009789F41092F7051092F6051092F505ED
:1058D0001092F4051092F3051092F2051092F10562
:1058E000089590E080E00895009749F061157105F2
:1058F00031F0FC0111821082FB01118210820895A7
:10590000F3CF26E030E040E855E260E070E090E060
:1059100080E000C08130910571F01CF4892B39F0D2
:1059200008958230910551F0039759F0089588E069
:1059300096E00C94AB3685EA96E0FBCF82E497E0E4
:10594000F8CF8FED97E0F5CF1F920F920FB60F9221
:1059500011240BB60F922F933F934F935F936F9346
:105960007F938F939F93AF93BF93EF93FF9386E0C3
:105970009FEF9093250180932401BFD0FF91EF9179
:10598000BF91AF919F918F917F916F915F914F9157
:105990003F912F910F900BBE0F900FBE0F901F9055
:1059A000189586E09FEF9093250180932401A3E74B
:1059B000B0E08C918E7F8C93E0E2F1E080818C7F6F
:1059C0008083E1E2F1E08081877E80838081836053
:1059D000808380818B7F80838C9181608C930895FC
:1059E000E3E7F0E0808190819E7F9083817008954D
:1059F00081E008951092F805089568EE73E080E064
:105A000090E07CD690E080E0089526E030E040E031
:105A100050E16EE070E090E080E07CDF88E096E0AE
:105A20000E94E135892B29F088E096E00E94FB3541
:105A3000F5CF90E080E00895CF92DF92EF92FF9251
:105A40000F931F93CF93DF936B017A01E9011982C2
:105A5000188288E096E00E94E135892B79F1860171
:105A6000CC24C39482E0D82E8091F805811111C016
:105A700088E096E00E94FB350297B1F7C092F805E6
:105A8000F801D1928F018881998101969983888349
:105A9000EBCF888199818E159F0580F488E096E090
:105AA0000E94FB358F3F9807A1F3F80181938F0186
:105AB00088819981019699838883EBCF90E080E07B
:105AC000DF91CF911F910F91FF90EF90DF90CF90DA
:105AD00008950F931F93CF93DF93EA01890188E024
